:020000040800F2
:100000006028022079020008659C0008658B0008C2
:10001000619C0008CF7E0008E1A8000800000000F5
:10002000000000000000000000000000C101000806
:100030004D8100080000000015020008BDA6000860
:10004000930200089302000893020008930200083C
:100050009302000893020008FD8100089302000843
:10006000930200089302000893020008930200081C
:10007000930200089302000893020008930200080C
:1000800093020008930200089302000893020008FC
:1000900093020008930200089302000893020008EC
:1000A00093020008930200089302000893020008DC
:1000B00093020008930200089302000893020008CC
:1000C00093020008930200089302000893020008BC
:1000D00093020008930200089302000893020008AC
:1000E000930200089302000893020008930200089C
:1000F000930200089302000893020008930200088C
:1001000093020008559F000893020008930200081C
:10011000930200089302000893020008930200086B
:10012000930200089302000893020008297F000848
:10013000930200089302000893020008930200084B
:10014000930200089302000893020008930200083B
:10015000930200089302000893020008930200082B
:10016000930200089302000893020008930200081B
:10017000930200089302000893020008930200080B
:1001800093020008930200089302000893020008FB
:1001900093020008930200089302000893020008EB
:1001A000C198000893020008D37E0008DFF80CD045
:1001B00000F0F8F80048004709BB0008602802205A
:1001C0002A4B19680868B0E8F04F80F30988BFF33C
:1001D0006F8F4FF0000080F311887047000000001F
:1001E00006480068006880F3088862B661B6BFF30D
:1001F0004F8FBFF36F8F00DF00BF00BF08ED00E03F
:10020000DFF80C00016841F470010160704700BF25
:1002100088ED00E0EFF30980BFF36F8F134B1A688E
:100220001EF0100F08BF20ED108A20E9F04F10607B
:1002300008B44FF0500080F31188BFF34F8FBFF325
:100240006F8F0CF08BFB4FF0000080F3118808BC1F
:1002500019680868B0E8F04F1EF0100F08BFB0EC46
:10026000108A80F30988BFF36F8F70474801002020
:10027000EFF30580704700000648804706480047B6
:10028000FEE7FEE7FEE7FEE7FEE7FEE7FEE7FEE746
:10029000FEE7FEE7CDA60008AD0100082DE9F05FFE
:1002A0000546002092469B468846064681464024E5
:1002B0001BE0284641464746224600F062F8534676
:1002C0005A46C01A914110D311461846224600F0F2
:1002D00049F82D1A67EB01084F46224601200021FC
:1002E00000F040F817EB00094E41201EA4F1010474
:1002F000DFDC484631462A464346BDE8F09F10B54C
:10030000441A0346944209D28418114403E011F8B8
:10031000013D04F8013D521EF9D210BD40EA01042E
:10032000A40703D009E010C9121F10C3042AFAD28F
:1003300003E011F8014B03F8014B521EF9D210BD36
:10034000D2B201E000F8012B491EFBD27047002217
:10035000F6E710B513460A4604461946FFF7F0FFC4
:10036000204610BD202A04DB203A00FA02F10020CA
:1003700070479140C2F1200320FA03F319439040E3
:100380007047202A04DB203A21FA02F0002170474E
:1003900021FA02F3D040C2F12002914008431946ED
:1003A00070470000064C074D06E0E06840F001038E
:1003B00094E8070098471034AC42F6D3FFF7FAFEF2
:1003C000ECE900080CEA000870B58C1810F8015B25
:1003D00015F0070301D110F8013B2A1106D110F8DE
:1003E000012B03E010F8016B01F8016B5B1EF9D1E2
:1003F0002B0705D40023521E0DD401F8013BFAE768
:1004000010F8013BCB1A921C03E013F8015B01F8D2
:10041000015B521EF9D5A142D8D3002070BD000067
:10042000014B83E80300704798050220014B83E8E5
:1004300003007047A0050220014B83E803007047CA
:10044000A8050220704700BF704700BF2DE9F04F9C
:100450004F4E3368DA69B3F92250D469B4F80CB05E
:1004600083458BB07DD8E18981427AD32168089198
:100470004FF0FF31CBEB000B0791BBF1FF3F6AD090
:10048000177EB3F92A80A27CB3F9249094F810A0C7
:1004900017FB02F34046069302F028FC3368069AE5
:1004A0000899099002FB0B109A6BDB690490059286
:1004B000A27C03924FF0010BCDF808B0DA7E0192D6
:1004C0009B7E009328463B465246494601F01CFF5E
:1004D000079801301CD048F0020002F007FC2C4ABB
:1004E000079812680899069B03FB0013916BD26969
:1004F00005910493A37C0393CDF808B0D37E0193B8
:10050000937E009352463B464946284601F0FCFE46
:1005100033681F4FDB695A7E1B7E9A4214D9B8F1AB
:10052000020F11D088F0040002F0E0FB3B68DB69A9
:10053000187ED97E9A7E5B7E00FB01910AFB0252F7
:100540004B44284602F0C6F89DF8240002F0CEFB8A
:100550003368B3F92250627C15445D840BB0BDE86A
:10056000F08FA1680029F6D00F88B842F3D3B1F814
:1005700002E08645EFD34968C01B80B267680897E0
:1005800001EB800731F920B0B7F90210079174E749
:1005900024020020044B1B68DB69DB6909B11A7C6B
:1005A0000A60587C704700BF2402002002230B80A1
:1005B000704700BFC3699A898A4202D8DA898A42A1
:1005C00011D2986818B10388994201D2002070476F
:1005D00042888A42FAD3C91A436833F82100C043DB
:1005E000C0F3C03070470120704700BF2DE9F047CD
:1005F000234E3368002B3FDD224D234F2C68D7F864
:100600000090C3EB431804EB880808F10C080C3485
:100610004FF0000AA4F10803742218464946FFF778
:100620006EFE221F2063A06344F80CAC6263E4609A
:100630007C34A045EED10024A04603E092B132689C
:10064000904514DA08F01EFA2B681A59904203EB11
:10065000040108F1010804F17C04EFD10431396090
:10066000BDE8F087086004313960BDE8F0871946BD
:1006700004313960BDE8F087024B034F1968EDE79C
:10068000380200205007022024020020F8B5194F3C
:10069000194B1A4E384640F80C3F01F067FD34689C
:1006A000C4EB4414A400204600F0AEF8144B3860AC
:1006B00022461B68002198474FF0FF33736008F013
:1006C000E7F93368002B11DD0024254603E072B101
:1006D00033689D420ADA08F0D5F93B681A5990420E
:1006E000234405F1010504F17C04F0D1F8BD186044
:1006F000F8BD00BF50070220117300083802002027
:100700004402002000B9704710B5044600F040FCD8
:10071000204604F06FF8044601F056FB204610BD59
:1007200070B5054600F034FC25B9002401F04CFBFF
:10073000204670BD00F02CFC284604F05BF804460F
:1007400001F042FB002CF0D0144E1549F269736B96
:100750000132F26113F83420013203F8342003EB44
:10076000C4032A465D680B6805F10800002198471C
:100770002968726B12F83130012B01D9F06930B958
:10078000013B02F8313001F01FFB204670BD0138FB
:10079000013BF06102F83130F5E700BF7407022039
:1007A00044020020024B21F0030183E8030070475C
:1007B000B005022000B9704770B50D4C054600F039
:1007C000E7FB636BEE0033445968486803F064FE4E
:1007D000626B6368616A1644013300206360716074
:1007E00002F835006562BDE8704001F0EDBA00BF67
:1007F0007407022028B1034AD36B036003B1586029
:10080000D063704774070220F8B5894E96F82830F7
:100810000446002B2FD00334356CF26B24F0030414
:100820000434A54238BF254662B152F8043C9D42CB
:10083000144604D114E054F8043C9D4210D02468BE
:10084000002CF8D1F368B46B1C4454F8041C611AF2
:100850000B68002B65D14B689D426CDD002408E0DD
:1008600023680BB161685960616801B10B60A242F5
:1008700053D02046F8BD6F4B9A685868012186F81E
:1008800028100AB982089A605A253562102720225A
:10089000402519683764B264356580274FF480724B
:1008A0004FF40075B7653266B5664FF480674FF454
:1008B00000624FF48055A1F114033767B267C6F8A0
:1008C00080504FF400574FF480424FF400450344EA
:1008D000C6F88870C6F89020C6F898504FF4803754
:1008E0004FF400324FF48025C6F8A070C6F8A82057
:1008F000C6F8B050022201254FF40027B16373639C
:100900003261F060C6F8B8705D607562756003F0C2
:10091000C3FD05F069FC35637DE72368F36320467A
:10092000F8BD002006F062FD54F8041C611A0B6843
:10093000002B93D18FE7D6F8B8703D4A581B041DA1
:10094000BB420C4472D2D2F8B070BB426CD2D2F827
:10095000A870BB4266D2D2F8A070BB4260D2D2F877
:1009600098709F425AD9D2F89070BB4254D2D2F8B4
:100970008870BB424ED2D2F88070BB4248D2926F90
:10098000934243D2376F2A4ABB423DD2976EBB4255
:1009900038D2176EBB4233D2976DBB422ED2176D41
:1009A000BB4229D2976CBB4224D2126C93420CD228
:1009B000F2687369521B2B44F260736110B944F8FA
:1009C000045C56E703F068FDF9E700223768D1F8C8
:1009D00008E0FB1A3360CB68BEF1000F01D0CEF8FF
:1009E000043013B1C3F800E0E2E706EBC202C2F83C
:1009F00044E0DDE70122E9E70222E7E70322E5E739
:100A00000422E3E70522E1E70622DFE70722DDE72C
:100A10000822DBE70922D9E70A22D7E70B22D5E72C
:100A20000C22D3E70D22D1E70E22CFE70F22CDE72C
:100A300074070220B0050220074AD169536B0131C7
:100A4000D16113F83020013203F8302003EBC003EA
:100A500058680830704700BF7407022030B403683C
:100A60000A4A53F8085C0446506B10F83530012BE5
:100A700003D9D16909B10139D161013B00F83530A1
:100A800000221046226030BC704700BF740702206D
:100A9000034B5B6B03EBC00040680830704700BF3E
:100AA00074070220C3B2CAB29A1A92B230B415B215
:100AB000002DBCBF524215B2C0F30723C1F3072279
:100AC0009B1A9BB2090C1AB2C1EB1041002A89B2E1
:100AD0000CB2BCBF5B421AB2002CBCBF49420CB284
:100AE00002FB02F205FB0520A1B201FB010030BCB4
:100AF000704700BF2DE9F041002182B0084600F0A8
:100B0000B9F900F045FA042002F0F0F8174B1B6920
:100B1000DD6C1C6DA5F57F57A4F57F5605F57F5557
:100B200004F57F5480463F3F3F353F3E3F346846A3
:100B3000ADF80070ADF80450ADF80260ADF80640B5
:100B400003F032F948B123462A463146384601F0CF
:100B5000C1FD02F0E7FF0028F5D1404602F0C6F8DB
:100B600001F032F902B0BDE8F08100BF14020020AC
:100B700080B582B000AF7860054B1B68002B03D0B6
:100B8000034B1B687868984700BF0837BD4680BD97
:100B900034080220012B3BDC2DE9F84381461C2060
:100BA00090460F461E46FFF72FFE054600287FD0D1
:100BB000414A002F31D00023DFF804E152F82640EB
:100BC00003609EF8001007618E428661A0F81480D1
:100BD000C0F80C904360836002DB731C8EF8003019
:100BE000002C5DD021464C68002CFBD1D9F80000C8
:100BF000CB681B6883422CDD09680029F8D148B90D
:100C00002E4B16361A68284642F82650BDE8F8835F
:100C1000002070472846BDE8F88352F826100029C6
:100C200030D0084600E018460368002BFBD1DFF8FF
:100C300090E000692B6028619EF80000AE6186425A
:100C4000A5F81480C5F80C906B60AB60CBDB0C464C
:100C5000C3E70AD04B6843B31D606B608D4214BF7D
:100C60000B4600234D602B60C9E7B8F1010FF1D1AD
:100C700004E0D9680C6884421946EBDB0B68002B52
:100C8000F7D1E7E7DFF838E001609EF800308661D1
:100C90009E42A0F81480C0F80C9041608160D6DAC2
:100CA00042F82650D9F80000A9E742F82650D5E7C7
:100CB0000020BDE8F88300BF4C0802202402002079
:100CC00044080220FFF796BD00284DD02DE9F041E1
:100CD000DFF89CE0254F9EF80060BC4602E0284605
:100CE000002D27D084690568012CF8DCB44257F840
:100CF0002430A4BF661CF6B20BB932E013465A6822
:100D0000002AFBD1C268116802E01B68002BE6D004
:100D1000DA6812688A42F8DC10D05A68A2B1106012
:100D20004260984214BF1A4600225860026028466A
:100D3000002DD7D18EF80060BDE8F081828A012AAB
:100D40000BD05A68002AEAD147F82400E9E7D368B3
:100D5000D3F8008088451346DFDB1A68002AF6D1F5
:100D6000DBE74CF82400BAE7704700BF4C080220CC
:100D7000440802200F4A816952F8213098420AD073
:100D800042680AB103681360036803B15A60002324
:100D9000036043607047036842F821302BB10022A2
:100DA0005A604268002AEED1F0E74268002AEAD190
:100DB000EDE700BF4C0802200020704701280EDC40
:100DC000084B53F8200058B1C3681B681BB908E0F2
:100DD000C3681B6823B100680028F9D17047002060
:100DE000704770474C080220034B53F82000C3683B
:100DF00008219B6A184700BF4C08022010B500F07C
:100E0000C7F8034B1B681C7C00F0DEFF204610BDBA
:100E10002402002070B504460E46154600F0B8F8CE
:100E200020462A46314601F005FD044610B1002354
:100E300033602B6000F0C8FF204670BD04483423A7
:100E400035216122017002718370C370704700BF49
:100E50000C020020024B53F820301B6918687047C1
:100E60004C080220024B53F820301B695868704729
:100E70004C08022038B505460C4600F089F8044BB2
:100E80001B685D849C8400F09FFF002038BD00BF7C
:100E90002402002090B583B000AF344A334B1B6866
:100EA00023F001031360324B01221A6000BF304B64
:100EB0001B68002BFBD12F4B2F4A1A602D4B1B6850
:100EC0002E4A934200D0FEE701F050F82C4B2E2220
:100ED0001A7007F0DBFD2B4806F07CF806F008FFDF
:100EE000786001F0D1FC0346002B0CBF01230023E6
:100EF000DCB201F0F9FC0346002B0CBF01230023F8
:100F0000DBB22343DBB2002B09D001F0D3FC044653
:100F100001F000FD03461946204601F0E1FE0021E4
:100F2000002000F0F5FE02F041FAFFF75FFB164BE0
:100F30001B68002B12D00DE0134B1B681B68002BA5
:100F400003D0114B1B681B6898470F4B1B685B68ED
:100F50000D4A13600C4B1B68002BEDD10B4B01228B
:100F60001A707B6818460C37BD4690BD002000E023
:100F70000830024000300240C2A507F4CDB5E8B504
:100F800038080220C40502203C0602203E08022048
:100F90002DE9F041234D6B6823B107F073FDAB6879
:100FA000984204D007F0C2FD07F06CFDA8606B68A2
:100FB0000133012B6B6001D0BDE8F0811A4F3B6813
:100FC000002B29DD0024264606E042B33B680136AB
:100FD0009E4204F17C041FDA07F054FD2B681A5975
:100FE00090422344F1D17B68B342E5D0002B10DB63
:100FF0002A68C3EB431302EB8308FFF7DDFE2B687F
:10100000C8F878001C44094BA06F04341C60FFF73B
:101010005BFE7E60BDE8F08100242646E3E71860B1
:10102000E1E700BF50070220380200202402002020
:1010300000B9704710B582B00446FFF7A9FF104B06
:101040001B681B6E9C4217D02046FFF7F5FC4369D6
:10105000019063B90068FFF735FE01A8FFF7FEFCB9
:101060002046FFF7A7FB00F0AFFE02B010BD184608
:1010700000F090FE0198EDE700F0F2FDE4E700BF1C
:101080002402002030B5044683B098B1FFF780FFFA
:101090002046FFF7D1FC036802AD1B6945F8040D3B
:1010A0009B68984701F0AEFF04462846FFF7D6FC40
:1010B00000F08AFE204603B030BD00BFA0B110B5DD
:1010C000044682B0FFF764FF2046FFF7B5FC02AB91
:1010D00000F1180443F8040D1846FFF7BFFC00F0B8
:1010E00073FE204602B010BD704700BF2DE9F04FDF
:1010F000A1B00D9110B921B0BDE8F08F924607461E
:10110000FFF79AFC20AB446943F81C0D1846FFF723
:10111000A5FC3846FFF7B6FF0828054602DD002C7F
:1011200000F0D98001234FF0000B38461F930A933B
:10113000CDF878B0FFF780FC0168DFF868840969B2
:101140000446D8F80000E3684D68B4F908100F931E
:1011500020AE23691491407CB4F90A10099346F833
:10116000144DD4F814901691FFF73EFED8F80010F5
:101170000890487CFFF776FE04463046FFF76EFC89
:10118000099A0A9B082A40F2A080102A13468CBFB5
:1011900004230223CDF828B00E93A54200F0AC81C1
:1011A000D8F80030587CFFF755FE149B064698008F
:1011B000FFF7A8FA129000289DD03846FFF77EFF6F
:1011C0000746B9F1000F00F0F5804846FFF734FC00
:1011D000169B1C90002B40F38B8100230C930F9BDC
:1011E000CDF840A0FB1815931DAB11934FF00108EB
:1011F0001946836800221D925B690C9A9847159BDB
:101200000F9A9B1A0B93149B8342044600F0318182
:10121000099B012B00F0F280002845D01AAB1393F4
:101220001298FFF709FC099B1A90082B07461D9A94
:1012300040F2D4800E9B0B99A34602FB031A814611
:101240003AF8020BA847B047BBF1010B49F8040B71
:10125000F6D1089B1F2B04D838461A46214600F0C9
:10126000BDFD0A9A059200220392089A1D980292E7
:101270000D9A1A9B10990493104401232246CDF82D
:101280000480CDF8008001F03FF81398FFF7E6FBEB
:101290001C981D9B8268119957690C9A1C441D94D7
:1012A000B84704460028BBD1159A0F990C9B0A44F5
:1012B0001592109A01321092169A01339A420C93A9
:1012C00000F016811C98119993E7012A6ED11EAB8C
:1012D0000E920A9361E73846FFF7AEFB20ABB0F9F8
:1012E000088043F8100D02460168B0F90A00089022
:1012F00018460E69D2F80CB009920E93FFF7AEFBB8
:10130000A848A94900687368407C0C9351F82010E4
:101310000C6923680A93FFF767FD0828099A40D9EA
:1013200010288CBF2023102309938CBF4FF0040991
:101330004FF00209A64200F02D82202D00F09E8180
:10134000102D7FF4D8AE08FB09F0FFF7DBF9109001
:1013500000283FF4D0AEFFF76FFB1E903846FFF732
:101360006BFB1C90236900F118020B92002B00F01C
:1013700022827369002B00F01E82B0F90800800001
:10138000FFF7C0F90F90002840F069821D900E9879
:10139000FFF764FB1EA8FFF761FB1098FFF70AFA3E
:1013A000A9E6082309934FF00109C3E70E93CDF88E
:1013B00028B0F2E60A9B05930F9B03930124099B37
:1013C00004900293149A169B0D9801945146009430
:1013D00000F09AFF1298FFF7EDF98CE60E9B0B993F
:1013E000A14602FB031B82461BF8010BA847B0472E
:1013F000B9F101094AF8040BF6D12AE700283FF4B5
:1014000053AF17960C9F0A9EDDF84090DDF834A08C
:10141000DDF844B01395DDF874E00B9D05960EF0F1
:10142000070006900AEB0E00BEF1000FB8BF0EF1E8
:10143000070E05EBEE0E0F9DCDF810E022460123BE
:1014400049460395CDF80880CDF80480CDF800809A
:1014500001F0CAFC1C981D9B82681C4459465369C4
:101460001D943A46984704460028D4D1139D179EF0
:101470001AE71298FFF7E0FA099B1A90082B8146A9
:10148000149FDDF82CA0044629D93AF8020BA8478E
:10149000B047013F44F8040BF7D1089B1F2B04D839
:1014A00048461A46149900F099FC0A9A059220AB16
:1014B0001A460D9852F8183D0493144600220392E0
:1014C000089A0292CDF80480CDF800800123149A86
:1014D000109900F019FF2046FFF7C0FAE4E61AF869
:1014E000010BA847B047013F44F8040BF7D1D4E7FC
:1014F0001CA8FFF7B3FA6DE73846FFF7DFFD074694
:10150000B9F1000F00F0A9804846FFF795FA169B45
:101510001C90002B40F39D8000261DABCDF82CA025
:10152000DDF834A0B146012598468368CDF8749063
:101530005B69324641469847149B834204462DD04E
:10154000099B012B55D008B30B9B03EB060B0A9BA1
:101550001D9805930E9B0F9A039203FB0073099A43
:101560000292049322465044012359460195009566
:1015700000F0CAFE1C981D9B82681C4441465369BA
:101580001D943246984704460028E0D10F9B01364F
:101590001F44169BB3425CDD1C98C6E70897B34610
:1015A0001F4604E0240200204C080220A3461C9899
:1015B00083680BF101045B692246414698478742E4
:1015C000F4D0099902910B990A9A089F0592C6EBEB
:1015D0000B030F9A049731440F9E03920133019538
:1015E0000095149A504606FB0377264600F08CFEC1
:1015F000CFE70028CAD00B9B089603EB060BDDF85B
:1016000074E00A9805900EF0070006900AEB0E00B1
:10161000BEF1000FB8BF0EF1070E07EBEE0E0F9EE6
:10162000CDF810E022460123594603960295019514
:10163000009501F0D9FB1C981D9B82681C44414613
:1016400053691D94089A984704460028D7D1089EEC
:101650009CE71CA8FFF702FA4DE50A9B05930F9B38
:1016600003930124099B04900293149A169B0D98EE
:1016700001945146009400F047FE3CE509FB08F058
:10168000FFF740F80B9000283FF435ADFFF7D4F991
:101690001E903846FFF7D0F91C90256900F1180715
:1016A00045B34FEA880B012619E0B9F1040F19D0B0
:1016B000B9F1010F16D000221E990998029001235A
:1016C00005920392049101965146009642460D9868
:1016D0009A4400F019FE089B013B089350D0B9F1E1
:1016E000020FE2D138461E9925694B464246A8476B
:1016F0005F44E0E70C950126089C14E0B9F1040F63
:1017000000F08D81994500F035810C9D059503957C
:10171000099D02951E9D01960096049500F0F4FD2A
:10172000013C2DD0DA460123B9F1020F5146424661
:101730000D980AEB030BE1D108944FEA88050124C8
:10174000DDF87890BB4646465BF8040B0A9B984749
:10175000013E29F8020BF7D11E9B099A02920493CD
:1017600051460123059603960194009442460D9834
:101770009A4400F0C9FD089B013B2F440893DFD138
:101780000E98FFF76BF91EA8FFF768F90B98FFF7A3
:1017900011F8B0E40124183200260492CDF80CB000
:1017A0000295089B0D980596424651460194009477
:1017B00000F0AAFD9FE400250126089C16E0B9F17F
:1017C000040F00F0FC80994500F0A4801E9F08974C
:1017D000099F0297089F0595039501960096049727
:1017E00000F092FD013C3FF4D2ADDA460123B9F19D
:1017F000020F514642460D980AEB030BDFD14FEA28
:1018000048060C9D08940A9F0A9601241E9EDDF846
:101810002CB0C1463BF8020BA847B847B9F1010903
:1018200026F8020BF6D10B9E1E9A099B0293B64630
:101830000A9E049201235146B644CDF81490CDF887
:101840000C900194009442460D98CDF82CE09A44F7
:1018500000F05AFD089B013B0893D7D197E5FFF7AD
:10186000EBF81D9000283FF492AD4FEA480337464D
:101870000A9301250C940B9E19E0B9F1040F30D0A6
:10188000B9F1010F28D000221E9909980290012376
:1018900005920392049101955146009542460D9898
:1018A0009A4400F031FD089B013B08932BD0B9F11D
:1018B000020FE2D1DDF878B01D994B464246304622
:1018C0007C69A0470A9C1D9826440C9C59464B46AF
:1018D00042462469A047D6E7DDF878B01D99022377
:1018E000ECE730461D997C69DDF878B0022342466A
:1018F000A0470C9C1D9824694B4659464246A04778
:101900000A9B1E44BFE71DA8FFF7A8F80F98FEF733
:1019100051FF3CE508FA03F60C9D08940A9F0A96CD
:101920004C461E9EDDF82CB0C1463BF8020BA84782
:10193000B847B9F1010906F8010BF6D10B9E1E9AC2
:10194000099B0293B6460A9E049201235146B6446F
:10195000CDF81490CDF80C900194009442460D9867
:10196000CDF82CE09A4400F0CFFC089B013B089393
:10197000D7D10CE508944FEA88054C46DDF87890FD
:10198000BB4646465BF8040B0A9B9847013E09F8A4
:10199000010BF7D11E9B099A029204935146012331
:1019A000059603960194009442460D989A4400F0DF
:1019B000ABFC089B013B2F440893DFD1E0E64FEAE4
:1019C00048060C9D08940A9F0A9601241E9EDDF885
:1019D0002CB0C1463BF8020BA847B847B9F1010942
:1019E00046F8040BF6D10B9E1E9A099B0293B6464D
:1019F0000A9E049201235146B644CDF81490CDF8C6
:101A00000C900194009442460D98CDF82CE09A4435
:101A100000F07AFC089B013B0893D7D1B7E4089407
:101A20004FEA88050124DDF87890BB4646465BF80E
:101A3000040B0A9B9847013E49F8040BF7D11E9B03
:101A4000099A029204935146012305960396019444
:101A5000009442460D989A4400F056FC089B013BC6
:101A60002F440893DFD18BE6184B194A196A70B5D9
:101A700000290CBF0646002682B09157012923DDBC
:101A800003EB86021469651C1561ECB9956853F87F
:101A9000263026462C4600E01C4601348C420ABF04
:101AA000002494609660A342F6D0FFF787F9019076
:101AB00050B1C36821215B6A01A89847034618B159
:101AC000224629460198984702B070BD6006022060
:101AD0004808022030B50C4D6B6A83B0044653B100
:101AE0002A6A0A4B002A18BF00240129B8BF012125
:101AF000195503B030BD2846054B40F8243F0191ED
:101B000000F034FB0199EBE7600602204808022050
:101B100005720008094B1A6A002A18BF002003EB5F
:101B2000800210B49469002C04DB43F820104FF0BD
:101B3000FF3393615DF8044B704700BF60060220DD
:101B4000164B174A196A30B500290CBF0446002409
:101B500083B01257012A05DD03EB84042369013B9E
:101B600023610BB103B030BD05460120A840FEF74C
:101B7000FFFF2846A568A561FFF720F9019000281E
:101B8000F0D0C36822215B6A01A898470346002869
:101B9000E8D029460198984703B030BD600602207E
:101BA0004808022020B321B322B3B2F900C0B1F932
:101BB0000630F0B5B1F90050B2F902E0B1F90240D7
:101BC000B2F90470B2F90660B1F904206545A8BF06
:101BD0006546A6457146A8BF2146BA42B8BF3A46F7
:101BE000B342B8BF3346058041808280C380F0BDD8
:101BF000704711460B684A6842600360704700BF37
:101C000078B170B4068844888588C38889B292B256
:101C10000E44144429440680448070BC1A448180D8
:101C2000C2807047B0F90220B1F906309A4214DC44
:101C3000B1F90220B0F906309A420EDCB0F900206A
:101C4000B1F904309A4208DCB0F90400B1F900306F
:101C50008342CCBF0020012070470020704700BFA6
:101C600008B5FFF795F900F0B3FF01F0ABF801F00C
:101C7000FBF9BDE8084000F0A7B800BF70B50D4DF6
:101C80002B6804465E7CFFF783F9012C03D900F032
:101C90009BF8304670BD2046FFF790F80028F6D03C
:101CA0002B685C74FFF7DCFF034B1C6000F08CF8C2
:101CB000304670BD240200207828022010B504466A
:101CC000FFF766F9204600F0A5FFBDE8104000F0E0
:101CD0007BB800BF024BDA69D8611046704700BF7D
:101CE0008C060220014B1860704700BF14020020D0
:101CF000024B1A6818601046704700BF2802002087
:101D0000024B5A6858601046704700BF28020020F6
:101D100038B505460C46FFF73BF9094A094B1268EE
:101D20000949507C094A53F820000D80C36814808B
:101D3000294622461C6AA047BDE8384000F044B856
:101D4000240200204C0802203A0802203C0802200D
:101D5000024B1B6803B11847704700BF640702209D
:101D6000024B1A6802B91860FFF7F2BFF0060220B2
:101D70002DE9F843089C054689469846AB684946D4
:101D80005F6828464346561CB847013C3246F5D1A9
:101D9000BDE8F88330B5054683B0FFF7F9F828466B
:101DA000FEF74AFE02AB848943F8040D013C24B2DD
:101DB00084811846FEF752FE14B92846FEF7FAFC55
:101DC00000F002F803B030BD034A5368013B536092
:101DD00003B1704706F0BABE50070220082A10B4BB
:101DE0000EDD102A1CDC00EB4101034650F8042BE9
:101DF00023F8022B9942F9D101205DF8044B70477A
:101E0000022A11D0042A00F09080012A3CD001441B
:101E1000034650F8042B03F8012B9942F9D1EBE764
:101E200000205DF8044B704700F1100252F8103C9E
:101E300001294FEA8313DBB223D052F80C4C240162
:101E400004F03004022943EA04031AD052F8084C83
:101E5000A40004F00C04032943EA040311D052F84F
:101E6000044C04F003042343043900F8013B02F15D
:101E70001002C1D052F8103C01294FEA8313DBB2A3
:101E8000DBD103700120B8E700F1200252F8203CBA
:101E900001294FEAC313DBB2F3D052F81C4CA40162
:101EA00004F04004022943EA0403EAD052F8184C33
:101EB000640104F02004032943EA0403E1D052F84A
:101EC000144C240104F01004042943EA0403D8D07C
:101ED00052F8104CE40004F00804052943EA040316
:101EE000CFD052F80C4CA40004F00404062943EAB5
:101EF0000403C6D052F8084C640004F00204073909
:101F000043EA040302F12002BBD052F8244C04F04F
:101F10000104234300F8013B52F8203C01294FEA19
:101F2000C313DBB2B9D10370ACE700F1080454F875
:101F3000083C01294FEA0313DBB212D054F8042CF9
:101F400002F00F021343023900F8013B04F10804C8
:101F50003FF452AF54F8083C01294FEA0313DBB2B7
:101F6000ECD103705DF8044B0846704730B51B4D4B
:101F7000EB6F85B00BB105B030BD194B0FCB6C4684
:101F800007C404A924F8023B1B0C237011F8102D80
:101F90000123EB6705F1800404F8012B11F8012FF0
:101FA000002AF9D1FEF74AFF234610F8012B194603
:101FB00003F8012B0278002AF7D14A7006F058FD89
:101FC000FEF764FB07F012FB064B0748C5F8943098
:101FD00005B0BDE8304000F0C9B800BFC40502201C
:101FE00034DD0008C171000858060220B1F9003044
:101FF000B0F900209A42B8BF0380B0F90220B1F9CD
:1020000002309A42B8BF4380B0F90420B1F90430DD
:102010009A42C8BF8380B0F90620B1F906309A42CF
:10202000C8BFC380704700BFF0B5B2F900C0B1F9B6
:102030000050B1F90240B2F90230B2F904E0B2F94D
:102040000670B1F90420B1F90660AC456146B8BF2D
:102050002946A342B8BF23467245A8BF7246B7427D
:102060003C46A8BF34469142018043808280C480B0
:1020700004DCA342CCBF00200120F0BD0020F0BD55
:10208000F0B40B0E4FEA1064124B02FB04F208BFCF
:1020900020F07F41A3FB0232D20900F0FF160D0AA7
:1020A000C2F1FF0705F0FF1501F0FF13C0F307248D
:1020B00002FB06F107FB05F044F0807407FB0311F7
:1020C00002FB0400090A00F0FF2001F0FF110843A1
:1020D000F0BC7047818080802DE9F04F87B0924638
:1020E000139A109B9DF8509001900291002A35D0D0
:1020F000129ADFF870B0DFF87080920002EB830371
:102100000493002305920393129C029E019D57465F
:1021100055F8040BDBF8003056F8041B020E09FBDF
:1021200002F2A8FB02E2C2F3C71240F07F409847D8
:10213000013C40F07F4047F8040BE9D1019A059932
:10214000039B10460844029A01908A4404990A4469
:102150000292139A01339A420393D5D107B0BDE896
:10216000F08F00BF280200208180808080B483B07F
:1021700000AF7860064B1A687B685A60044A7B6837
:10218000136000BF0C37BD465DF8047B704700BF8D
:1021900038060220F8B506464AB18407C9B208D00D
:1021A00001E0830705D0013A00F8011BF9D1304660
:1021B000F8BD97083B4657B301EB0124032F02F00B
:1021C000030204EB044416D900F110033D46043D1C
:1021D000032D43F8104C43F80C4C43F8084C43F8DB
:1021E000044C03F11003F2DC043FBB085D1C00EB60
:1021F0000510A7EB830343B1012B046003D0022B2E
:10220000446018BF846000EB8300002ACFD0FEF743
:10221000A0F83046F8BD00BF70B4840702D5018035
:10222000013A023056080DD0032E334601EB01442B
:102230000DD8012B046003D0022B446018BF8460CA
:1022400000EB8300D30748BF018070BC704700F1EA
:1022500010033546043D032D43F8104C43F80C4C55
:1022600043F8084C43F8044C03F11003F2DC043E3D
:10227000B3085D1CB6EB830300EB0510D9D1E1E791
:10228000044A054B1268527C53F822301B691B68C4
:10229000184700BF240200204C080220C0F3072288
:1022A000C0F307439A4200B5C0B21FD0144900EBF7
:1022B00080007F3003EB830302EB8202A1FB00E08E
:1022C0007F337F32A1FB03E3C009A1FB021200EBC5
:1022D000C000D209DB0903EB800302EB420003EBF1
:1022E00040006B2888BF28305DF804FB9042DDD1A8
:1022F000044B0830A3FB0030000978305DF804FB84
:1023000081808080F1F0F0F02DE9F04FB64C91B073
:10231000D4F800E01B9D1D9E1E9F1F9CDDF868A049
:102320000D95DDF870C00E96079708940F900592F2
:102330000C93BEF1000F06D0DEF80040A44611B0A9
:10234000BDE8F04F60474AEA0503012B894600F0DB
:102350009280CCF1080302930C9B002B40F3888001
:10236000A24BCDF828E018680491F046E1460D9A9A
:10237000049953181A460B93B0F90A30013A934264
:10238000099268DCB0F90E308B4264DB059B002BB0
:1023900061DD0F9B079F06970026354603EB0A0475
:1023A0004CE0029BC9EB060648FA03F313F0FF0367
:1023B00008FA09F85FFA88F802D1027C920738D44B
:1023C000D0F83CE0DEF800200392089A0AB152F8F7
:1023D0002330B0F908B0B0F90CC0CEF80030621E5E
:1023E0005945B8BF594662451346A8BF63468B425C
:1023F0001CDBB0F90A20049FB0F90EC0BA42B8BF86
:102400003A46099FBC45A8BFBC4662450EDC407CED
:10241000774F57F82000D0F80CE0CDF800C0DEF878
:1024200010B0D847714B1868D0F83CE0039BCEF849
:102430000030059B0135AB4254440CD0CAEB04017B
:10244000002EAED1069A029E92F800801346013308
:1024500006933346A8E7079A0E990A9B0A44079207
:102460000B9A04920C9A01339A420A937FF47FAF3D
:1024700011B0BDE8F08F5D4B1968B1F90A20C9EBC6
:102480000203002B40F3C2800C98C41A002CEFDD2D
:1024900006FB037307930C9BB1F90E004B44013B01
:1024A0001B1A002B02DDE41A002CE1DD0F98059DBC
:1024B0004319B1F90C00013B1B1A002B01DDEB1A8B
:1024C0000593B1F908000F9D854216DB0023059E98
:1024D000002ECDDD487C464951F820000899C5689A
:1024E0001E93079B1D930E9B1F911C93CDF86CC0F0
:1024F0001A9433460F996C6820E7059E431BF61A21
:102500000CF1FF3505961F2DE1D801A656F825F0F0
:10251000F5250008D1250008CF240008B9250008BA
:10252000CF240008CF240008CF240008AD250008E0
:10253000CF240008CF240008CF240008CF240008AF
:10254000CF240008CF240008CF2400089F250008CE
:10255000CF240008CF240008CF240008CF2400088F
:10256000CF240008CF240008CF24000891250008BC
:10257000CF240008CF240008CF240008CF2400086F
:10258000CF240008CF240008CF240008912500089C
:10259000079D0F9005EB83030793002397E7079DA3
:1025A0000F9005EB43030793002390E7079D0F90DF
:1025B0001D44079500238AE7079D05EB63050795F2
:1025C0000F9D23F0010005440F9503F001037EE702
:1025D000079D05EBA30507950F9D23F00300054418
:1025E0000F9503F0030372E7540802202402002031
:1025F0004C080220079D05EBE30507950F9D23F08E
:10260000070005440F9503F0070360E70C9C4A465A
:10261000234641E7124B30B41C68B4F90A308B42B0
:102620000FDCB4F90E3099420BDCB4F90850B4F960
:102630000C30A842B8BF28469A42A8BF1A4690421A
:1026400001DD30BC7047074B647C53F82440E568DB
:10265000AD681346AC460A460146204630BC60478A
:10266000240200204C080220184B1B68B3F90A20F2
:102670008A421DDCB3F90E20914219DCB3F908201F
:10268000824215DCB3F90C20904211DC30B41A7C84
:10269000D2070ED40E4A5C7CDB6B52F824401B68D8
:1026A000E568AD690A46AC460146204630BC604745
:1026B00070475A7C064B53F82230DC68E4690A46BE
:1026C00001461846234630BC184700BF24020020AC
:1026D0004C08022070B5154C2468B4F90860B4F9B0
:1026E0000C50B042B8BF3046AA42A8BF2A46824228
:1026F00082B00BDBB4F90A60B4F90E50B142B8BF36
:102700003146AB42A8BF2B46994201DD02B070BDF5
:10271000657C074C54F82540E568009313460A464B
:10272000014620462C69A04702B070BD240200205B
:102730004C080220012801DD0020704710B5FEF78B
:102740003DFB28B1C36808219B6ABDE810401847CB
:10275000002010BD034B53F82020D26803EB80000B
:10276000536A18474C080220012801DD00207047F9
:1027700010B5FEF723FB28B1C3680C219B6ABDE8A6
:1027800010401847002010BD012801DD00207047CF
:1027900010B5FEF713FB28B1C3680D219B6ABDE895
:1027A00010401847002010BD094B1B68587C0128B9
:1027B00001DD0020704710B5FEF700FB28B1C368AB
:1027C00009219B6ABDE810401847002010BD00BFDA
:1027D00024020020012801DD0020704710B5FEF71B
:1027E000EDFA28B1C36809219B6ABDE8104018477B
:1027F000002010BD10B50020FEF7E0FA041C4FF0D9
:10280000010018BF0124FEF7D9FA00B101342046B7
:1028100010BD00BF10B5064B1B68587CFEF7CEFA02
:1028200028B1C3680221DB6ABDE81040184710BD1B
:102830002402002030B583B00C461546FEF7BEFAE0
:10284000019070B1C36804215B6A0DEB01009847E9
:10285000034630B101982A4621469847002003B02C
:1028600030BD012003B030BD012801DD00207047DC
:1028700010B5FEF7A3FA28B1C3680E219B6ABDE824
:1028800010401847002010BD014B1868704700BF6A
:10289000B8060220012801DD0020704710B5FEF7C0
:1028A0008DFA28B1C36801219B6ABDE81040184722
:1028B000002010BD38B501252846FEF77FFA002418
:1028C000012178B1C3689B6A98478442B8BF044627
:1028D0000DB9204638BD00252846FEF76FFA0121C4
:1028E0000028EFD1F1E700BF014B5868704700BFE7
:1028F000B8060220012801DD0020704710B5FEF760
:102900005DFA28B1C36802219B6ABDE810401847F0
:10291000002010BD38B501252846FEF74FFA0024E7
:10292000022178B1C3689B6A98478442B8BF0446C5
:102930000DB9204638BD00252846FEF73FFA022192
:102940000028EFD1F1E700BF2DE9F84360B38568B7
:1029500065B3DFF86480D8F8006006B30768B7F5A0
:10296000807F1FDC124B1B689F42A8BF1F46002FB1
:1029700081460DDD043D002401E0D8F8006055F8E3
:10298000040FFFF77DFC46F824000134BC42F4D16B
:10299000084B1B680BB148469847D8F80060304692
:1029A000BDE8F8830026FAE70646F8E72E46F6E784
:1029B00034020020AC0602205C0802202DE9F84316
:1029C00060B3856865B3DFF86480D8F8006006B34B
:1029D0000768B7F5807F1FDC124B1B689F42A8BFBA
:1029E0001F46002F81460DDD043D002401E0D8F88C
:1029F000006055F8040FFFF743FC46F8240001344B
:102A0000BC42F4D1084B1B680BB148469847D8F834
:102A100000603046BDE8F8830026FAE70646F8E78E
:102A20002E46F6E734020020AC0602205C080220A5
:102A3000044A054B1268527C53F822301B695B68CC
:102A4000184700BF240200204C080220A0F17803A0
:102A50000F2B10B52AD96B2802D9932832D92838E0
:102A600019491A4BA1FB00429208A1FB0241A3FBAA
:102A700000E302EB4204890801EB4101A0EB4400B2
:102A8000DB08A2EB410200EB400003EB430303EB46
:102A9000031302EB420200EB001002EB021203EB05
:102AA000004000EB022040F07F4010BD00EB00131F
:102AB00000EB031000EB003000F17840083040F0EC
:102AC0007F4010BD002010BDABAAAAAA398EE33802
:102AD000C0F3C423094910B4CA5C094CC0F34513C0
:102AE00000F01F00E35C085C5DF8044B120402EB8D
:102AF0000323184440F07F40704700BF0CE10008FA
:102B0000CCE0000840F07F40704700BF704700BF36
:102B100038B50B4D2C680CB1002038BD094B186836
:102B20008000FDF771FE286038B10748074B40F878
:102B3000043FFFF71BFB204638BD012038BD00BF16
:102B40005C08022034020020AC0602204D7200080E
:102B50002DE9F84FFFF74EFEB0F100092FDD194FB8
:102B6000DFF868B000252846FEF728F920B33B6857
:102B7000284693F811805D74FFF7DCFD082818DC07
:102B80005BF82530104A1B69934212D02846FFF7A4
:102B900021FE061E0DDD00245FFA84FA5046FFF781
:102BA00047FF013402465146284600F0A5F8A642E8
:102BB000F2D13B6883F811800135A945D3D1BDE836
:102BC000F88F00BF24020020A4DD00084C0802207A
:102BD00010B50E4C0E4B2268517C53F8210038B1D1
:102BE000C36813B11B68042B0BD000680028F7D111
:102BF000002102F1080311665361BDE8104000F0A6
:102C000035B8FEF7B7F82268F2E700BF24020020CB
:102C10004C080220014B1B685B68184730020020FB
:102C2000044B1B681A7C52074CBFDB6B9B6B186014
:102C3000704700BF2402002030B50A4C0A4B2268BE
:102C4000527C53F82230DA6883B00546694618464C
:102C5000126B904720686A4629460830FFF7E4F96E
:102C600003B030BD240200204C080220044A054B6A
:102C700011684A7C53F82200C36808311B6B18475F
:102C8000240200204C080220014B1B681B681847D7
:102C900030020020044B1B681A7C52074CBF9B6B10
:102CA000DB6B1860704700BF2402002030B583B092
:102CB0000C461546FEF782F8019068B1C3681621EC
:102CC0005B6A01A89847034630B101982A4621461D
:102CD0009847002003B030BD012003B030BD00BFD5
:102CE000014B83E803007047B8060220014B1B68C4
:102CF0009B6818473002002030B583B00C4615465B
:102D0000FEF75CF8019068B1C36810215B6A01A806
:102D10009847034630B101982A462146984700203B
:102D200003B030BD012003B030BD00BF30B583B06B
:102D30000C461546FEF742F8019068B1C3680B21B6
:102D40005B6A01A89847034630B101982A4621469C
:102D50009847002003B030BD012003B030BD00BF54
:102D600010B582B00C46FEF729F8019060B1C36837
:102D700009215B6A01A89847034628B101982146BA
:102D80009847002002B010BD012002B010BD00BF66
:102D900030B583B00C461546FEF710F8019068B1C7
:102DA000C3680A215B6A01A89847034630B10198BD
:102DB0002A4621469847002003B030BD012003B0C9
:102DC00030BD00BF10B5074C2368186BFFF758FAE9
:102DD000FFF760FF2368586BFFF752FABDE8104019
:102DE000FFF71EBF240200202DE9F04F91B0824C66
:102DF0001B9D0E952E461D9D0C9524681E9D0695C7
:102E00001F9D0895DDF868A0DDF870E0209D0F900B
:102E100005920D932CB12468A44611B0BDE8F04F83
:102E200060474AEA0603012B894600F09180CEF103
:102E3000080302930D9B002B40F387806F4B0A948D
:102E400018680491A046F1460E9A049953181A4640
:102E50000B93B0F90A30013A9342099268DCB0F959
:102E60000E308B4264DB059B002B61DD0F9B069FC0
:102E700007970026354603EB0A044CE0029BC9EB9A
:102E8000060648FA03F313F0FF0308FA09F85FFA9D
:102E900088F802D1027C920738D4D0F83CE0DEF802
:102EA00000200392089A0AB152F82330B0F908B012
:102EB000B0F90CC0CEF80030621E5945B8BF594673
:102EC00062451346A8BF63468B421CDBB0F90A205B
:102ED000049FB0F90EC0BA42B8BF3A46099FBC453C
:102EE000A8BFBC4662450EDC407C454F57F8200029
:102EF000D0F80CE0CDF800C0DEF810B0D8473F4B5A
:102F00001868D0F83CE0039BCEF80030059B0135F3
:102F1000AB4254440CD0CAEB0401002EAED1079A48
:102F2000029E92F800801346013307933346A8E7C8
:102F3000069A0C990A9B0A4406920B9A04920D9ADF
:102F400001339A420A937FF47FAF11B0BDE8F08F4E
:102F50002A4B1868B0F90A20531A002B47DD0D9947
:102F6000CC1A002CF1DD069E0C9901FB036306933D
:102F70000D9BB0F90E104B44013B5B1A002B02DD98
:102F8000E41A002CE1DD0F99059E8B19B0F90C10A5
:102F9000013B5B1A002B01DDF31A05930F99B0F981
:102FA0000830491B99420DDA5B1A069F1D4407EB56
:102FB000E5070697059F23F00706FB1A05F00705AE
:102FC00005933144059B002BBFDD407C0C4B089FD3
:102FD00053F82000059BC6681E95069D1D950C9D07
:102FE0001F971C95CDF86CE01A94746814E70D9C3B
:102FF0000A462346BDE700BF5408022024020020F1
:103000004C080220C8B130F0010317D030F00303A0
:1030100001D10820704730F00703FAD030F00F03D9
:10302000F7D030F01F03F4D030F0FF03F1D020F4DC
:10303000FF7323F001031BB9102070470120704774
:1030400020F47F6323F00F03002BF5D020F4FF431F
:1030500023F07F03002BEFD0000C000400280CBFEE
:1030600010202020704700BF024B1B68012283F80C
:1030700054207047240200202DE9F043044687B015
:10308000FDF786FF24B9FEF79FFE07B0BDE8F08389
:103090002046FDF7D1FC034603C804AD85E80300D4
:1030A00001A801931F6AD3F82880FDF7D7FC2046BA
:1030B00000F05EFE06460028E5D0FDF769FF2046D9
:1030C000FDF7E6FCD0F81890FEF77EFE18F0020F30
:1030D00020D12046FDF7B0FC01904846FDF7ACFC3E
:1030E00003903046FDF7A8FC039A0199D569076261
:1030F00003460D6201A8D4610293FDF7AFFC03A85B
:10310000FDF7ACFC02A8FDF7A9FCFEF75DFE07B0D9
:10311000BDE8F08328463A46494601F039F9D8E738
:103120002DE9F04F87B01E46804689461546109F10
:10313000139CFDF72DFF6A4BD3F800A07FB9694BB4
:103140001B88002B70D104F12C00FDF7E9FA04462E
:1031500028BBFEF739FE204607B0BDE8F08F7B1C88
:103160006DD03846FDF768FCB0F90020B0F90230A8
:103170000190904499441DB9B0F90450AD1A01353D
:103180001EB9B0F90660F61A013601A8FDF766FC13
:1031900004F12C00FDF7C4FA04460028D9D0514AA6
:1031A000138801331380FDF747FC11994E4B826A57
:1031B0000DF1180B4AEA010A4BF8180D45444E442C
:1031C0000AEA03031343013D129A8362013E85809C
:1031D000C6800261A0F80080A0F802905846FDF772
:1031E0003DFC424B186800285BD11C6039462046E4
:1031F00000F0A6FE1AF0200F2FD11AF0010F20D1F7
:103200001AF0400F25D11AF0020F58D106A9012358
:10321000204641F8103D039401F020F9FEF7D4FD5B
:10322000204607B0BDE8F08F314A324B1268527C1D
:1032300053F822305A1C012A85D91F4691E70027EE
:1032400081E72D4A13681AF0400F03F10103136060
:10325000D9D02046FFF710FFD5E7254EFDF798FEA1
:10326000336825469C6400E005462846FDF710FCBF
:1032700080690028F8D11F4B1A6895421CD05B6802
:103280009D4218D0FFF7F2FC2046FDF701FC3368A1
:10329000B0F90010B0F902201A65D964FEF794FD68
:1032A000ABE7FDF7F5FB05462046FDF7F1FB6B6943
:1032B00043616C619AE70120FEF7E0FCE2E72046FB
:1032C000FDF7BAFB034658469A6A009342F00202A1
:1032D0009A62FDF7C3FB0021204600F015F995E73F
:1032E00064280220722802209F3F3F0068280220A5
:1032F00024020020C02802207C28022003680E3B04
:1033000010B5044640681A2B12D8DFE803F01B11F1
:10331000111111110E111120111111111111111191
:1033200011112211111111111400E16800F0D8FBE4
:103330000023E36010BD0028FCD00021BDE8104050
:1033400000F0E2B82146BDE8104000F00DBBE0609F
:1033500010BD6FF07043E36010BD00BF034A044B23
:103360001268527C53F82200704700BF24020020EC
:10337000C028022010B5044638B1FDF709FE2046EA
:10338000FDF786FBC469FEF71FFD204610BD00BF98
:1033900010B5044638B1FDF7FBFD2046FDF778FB7C
:1033A0008469FEF711FD204610BD00BF2DE9F04FE6
:1033B000454D2B7885B0002B7BD1444FDFF84091F1
:1033C00038684349434ADFF82C81DFF838A1424E80
:1033D000AB6043641C46C9F800300B8013809B46E9
:1033E0002046FDF7EBFC43F6FF7300214FF0020C83
:1033F0004FF0FF3E1A4690B1CDF80CB0CDF808A0C2
:10340000CDF804C0CDF800E00846FFF789FE6FF064
:10341000704248F8240046F82420002850D1013496
:10342000022CDDD12D4800F053FB2D4800F050FB5D
:103430002C4800F04DFB2C4800F04AFB2B4800F0D4
:1034400047FB2B4800F044FBD8F80060FDF7A0FDD7
:103450003B680EB9D9F800609E64344600E004462B
:103460002046FDF715FB80690028F8D1D8F8003018
:10347000204A9C4221D053689C421DD0FFF7F6FBA6
:103480003046FDF705FB3B68B0F90010B0F90220AB
:103490001A65D964FEF798FC3A68174B17486B62B7
:1034A000012382F854302B7005B0BDE8F04FFEF7D1
:1034B0005DBE05B0BDE8F08F0120FEF7DFFBDDE764
:1034C000002100F021F8AAE7C00602202402002013
:1034D00070280220722802208028022098280220CA
:1034E00088280220A8280220A02802209028022054
:1034F000B0280220C028022069720008E4060220D9
:1035000068280220417C00082DE9F041074686B07A
:103510000C46FDF73DFD3846FDF78EFAD0F82880C1
:10352000009018F0020F2FD003C804AE18F4803FAB
:1035300086E8030045D17CB120686168009C02AB3D
:1035400003C3B4F90220B4F9001002A8FEF758FB37
:1035500002A93046FEF74AFD3D4608E0FEF746FD6B
:10356000019B9C6901A8BCB1FDF778FA2546284665
:10357000FDF762FA034601939A6A930701463046C3
:10358000ECD401A8FDF76AFA6846FDF767FAFEF782
:103590001BFC06B0BDE8F081FDF760FA104B1A681D
:1035A000AA4202D05B689D42EED140F6010308EAD0
:1035B0000303012B0BD031463846202203F04AFD8D
:1035C000E2E7384600F02AFD002CB5D1C4E7009BA5
:1035D00030461A6A9969202300F072FED4E700BFD2
:1035E000C028022000B970472DE9F04FA1B0044671
:1035F00001920D46FDF720FA836A05909A0740F183
:103600005681024629460EA8FEF70EFD002800F05E
:103610004E8105A8FDF722FA2046019A0EA903F073
:1036200019FD2046FFF7A6FE0446002800F042815F
:103630002046FDF701FA836A06909B0740F13D8121
:1036400002460EA910A8FEF7EFFC002800F0358115
:1036500006A8FDF703FA019A10A9204603F0FAFC28
:103660002046FFF787FE0546002800F018810294E7
:103670002846FDF7E1F9836A07909F0740F1218111
:10368000024610A912A8FEF7CFFC002800F019810D
:1036900007A8FDF7E3F9DDF804A02846524612A971
:1036A00003F0D8FC2846FFF765FE002800F0EF8005
:1036B000039505462846FDF7BFF9836A08909E07E3
:1036C00040F10381024612A914A8FEF7ADFC0028C0
:1036D00000F0FB8008A8FDF7C1F92846524614A95E
:1036E00003F0B8FC2846FFF745FE002800F0C7802D
:1036F000AB4680464046FDF79FF9836A09909D07D7
:1037000040F1E780024614A916A8FEF78DFC0028B8
:1037100000F0DF8009A8FDF7A1F94046524616A93E
:1037200003F098FC4046FFF725FE002800F09D803E
:1037300081464846FDF780F9836A0A909C0740F16C
:10374000D580024616A918A8FEF76EFC002800F0E6
:10375000CD800AA8FDF782F9524618A9484603F021
:1037600079FC4846FFF706FE0546002874D0284637
:10377000FDF762F9836A0B90990740F1C480024615
:1037800018A91AA8FEF750FC002800F0BC800BA86E
:10379000FDF764F952461AA9284603F05BFC284657
:1037A000FFF7E8FD0646002850D03046FDF744F903
:1037B000836A0C909A0740F1B18002461AA91CA8AE
:1037C000FEF732FC002800F0A9800CA8FDF746F9AE
:1037D00052461CA9304603F03DFC3046FFF7CAFDB7
:1037E000074668B33846FDF727F9836A0D909B07B3
:1037F00040F19F8002461CA91EA8FEF715FC002878
:1038000000F097800DA8FDF729F952461EA9384609
:1038100003F020FC3846FFF7ADFD044650B12046CA
:1038200052461EA9FFF7DEFE2046FDF731F9046A75
:10383000002CF4D13846FDF72BF9076A002FD1D1BF
:103840003046FDF725F9066A002EAED12846FDF771
:103850001FF9056A002D8AD14846FDF719F9D0F8FD
:103860002090B9F1000F7FF464AF4046FDF710F9E6
:10387000D0F82080B8F1000F7FF43CAF5D462846B9
:10388000FDF706F9056A002D7FF414AF039D284665
:10389000FDF7FEF8056A002D7FF4EAAE029C204693
:1038A000FDF7F6F8046A002C7FF4C2AE02E005A82A
:1038B000FDF7D4F821B0BDE8F08F06A8FDF7CEF8EB
:1038C000EDE707A8FDF7CAF8E1E708A8FDF7C6F895
:1038D000D5E709A8FDF7C2F84046FDF7D9F8D0F8BA
:1038E0002080B8F1000F7FF405AFC7E70AA8FDF705
:1038F000B5F84846FDF7CCF8D0F82090B9F1000FA4
:103900007FF417AFB1E70BA8FDF7A8F82846FDF73D
:10391000BFF8056A002D7FF42AAF9DE70CA8FDF7DC
:103920009DF83046FDF7B4F8066A002E7FF43DAFEF
:103930008CE70DA8FDF792F83846FDF7A9F8076A5D
:10394000002F7FF44FAF7BE7054A064B1168002834
:1039500008BF0023081C136018BF0120704700BF78
:103960006028022084DD0008E1B170B505460C46F0
:10397000FDF70EFB1DB9BDE87040FEF725BAFDF757
:1039800007FB2846FDF784F88669FEF71DFA002E2E
:10399000F1D0A5602146304600F060FDBDE87040E2
:1039A000FEF712BA704700BF2DE9F041454F3B6862
:1039B00093F8542086B0002A39D1986CDFF808813A
:1039C000FDF73AF8034603C802AE86E803006846EE
:1039D0000093FDF743F8D8F80040002C4ED13C6826
:1039E000636C002B65D018685968D8F8002004ADC6
:1039F0002B4603C3CAB11046FDF71EF806ACB0F95A
:103A0000022044F8140DB0F900102846FEF7F8F82B
:103A10002046FDF723F828463146FEF7E7FA284608
:103A2000FFF70AF906B0BDE8F081A26CE3E75A6C33
:103A3000002A42D0244C10685168246804AD2A46FC
:103A400003C2CCB12046FCF7F7FF06ACB0F9022068
:103A500044F8100DB0F900102846FEF7D1F82046C2
:103A6000FCF7FCFF19492846FEF7C0FA2846FFF785
:103A7000E3F806B0BDE8F0819C6CE3E704AD07E035
:103A8000FEF7B4FA049B9C6928467CB1FCF7E6FF7C
:103A90002046FCF7D1FF034601469A6A0493930738
:103AA0003046EDD42846FCF7D9FF98E7FCF7D6FF5F
:103AB00095E73046FFF7C0F8B4E70448FFF7BCF8D5
:103AC000B0E700BF24020020D0280220D406022044
:103AD000024B1A6802601860704700BFDC280220A1
:103AE00080B179B130B583B00C46FCF7A5FF02ADCB
:103AF000214645F8040D00F007F82846FCF7AEFF14
:103B000003B030BD704700BF30B400230B804B8042
:103B1000058844888288C388521B1B1B8A80CB80FF
:103B200030BC70472DE9F043DFF84082D8F8003010
:103B300093F8540087B030B18B4E336A012B05DD0A
:103B4000013B3362002007B0BDE8F08306F11407A3
:103B5000F36997E8030002AD013385E80300F361E0
:103B600053B9F3680293B6F90E30B6F912207E4CC1
:103B70009A4217DA336AE3E7328BB6F91010B6F9D6
:103B80001630ADF80A30013212B29142ADF8082079
:103B9000EBDA738BB289ADF8082001331BB2ADF8B4
:103BA0000A30E2E7D8F80030DFF8C091986CFCF7F3
:103BB00043FFBDF90830B4F90C1000909942024659
:103BC00000F0B980D8F80020ADF80C30906C10B936
:103BD0000DE0A06958B1FCF75BFF29460446006A76
:103BE00002F0B4FD0028F4D0BDF90830EAE7009BEC
:103BF0002946D86902F0AAFD0028F5D1B6F910309F
:103C0000BDF90820ADF80C309A4200F38C80D8F84A
:103C10000030986C0DF1100868B3FCF739FF046AA6
:103C200081466CB923E0E1074BD4BDF81030019810
:103C3000013BADF80C30046A01A8FCF70FFFB4B1EA
:103C40002046FCF7F9FE846A0190A307F3D503C868
:103C500088E8030041462846FDF7E4FF0028E2D14A
:103C60000198046A01A8FCF7F9FE002CE8D1D9F804
:103C700018000028D1D1009BDC690DF1100874B93F
:103C800040E0E3072ED4BDF810300198013BADF8B9
:103C90000C30046A01A8FCF7E1FE002C32D020466B
:103CA000FCF7CAFE846A0190A207F2D503C888E82F
:103CB000030041462846FDF7B5FF0028E1D10198F1
:103CC000E7E70198C469002CB5D020464246294652
:103CD00002F082FD2046FCF7DBFE046A002CF4D1E2
:103CE0000198BEE70198C469002CD2D02046424614
:103CF000294602F071FD2046FCF7CAFE046A002C3A
:103D0000F4D1DCE76846FCF7A9FEF26944F62063CB
:103D10009A423FF72FAF95E8030087E80300FFF7CB
:103D200043FE01200FE795E8030087E8030068469B
:103D3000FCF794FE2DE7D9F800102369886C0393F3
:103D400050B1FCF7A5FE04462946006A02F0F4FDD6
:103D5000A0690028F5D1009AD069294602F0ECFD4F
:103D6000BDF908302EE700BFC00602202402002063
:103D700038B50546FFF70CFB10B90024204638BDC6
:103D8000FCF786FEC469002CF7D0A54203D1F4E706
:103D90001C46002BF1D02046FCF77AFE036A9D42B8
:103DA000F6D1204638BD00BF2DE9F0435E4C2268B5
:103DB00092F8543089B04BB15C4D2B6A0133012B22
:103DC0002B6209DD012009B0BDE8F083FFF7ECFDAF
:103DD000012009B0BDE8F0830746906CFCF72CFE8B
:103DE000534B01901B784FF0FF32EA61002B61D0FA
:103DF000083003C804AE86E803001FB139463046D8
:103E0000FEF7F4F823685B6C002B00F08780494FC5
:103E1000186859683A6806AB03C3019802900DF11F
:103E20000808002A60D1B0F90220B0F9001006A8F5
:103E3000FDF7E6FE304606A9FEF7D8F84046FCF747
:103E40000DFED7F800900DF10C08B9F1000F26D146
:103E500023689F6C08E0FEF7C9F8039B9C69404605
:103E60008CB3FCF7FBFD27463846FCF7E5FD03461F
:103E700001469A6A039393073046ECD44046FCF718
:103E8000EDFD2B6A013B2B6200209CE7FEF7AEF8AC
:103E9000039B9F6940467FB3FCF7E0FDB946484667
:103EA000FCF7CAFD034601469A6A0393920730461F
:103EB000E4D5EBE7836A13F0020627D003C804AE0B
:103EC00086E8030099E7FCF7C9FD1B4B1A68974287
:103ED00002D05B689F42D4D196E80300174B83E879
:103EE0000300FFF71FFE6EE74046FCF7B7FD38689A
:103EF000FCF7A2FD029096E7FCF7B0FD0E4B1A68A6
:103F00009145A5D05B689945A2D0BAE72B6A01A874
:103F1000013B2B62FCF7A2FD304654E701A8FCF7F9
:103F20009DFD044F8DE700BF24020020C006022043
:103F300074280220D0280220C0280220CC060220AB
:103F400001B9704770B584B00C460546FCF774FDA6
:103F500003460022846120461A620193FCF76CFD3F
:103F6000C4690290002C2CD0019B20469E6AFCF76D
:103F700063FD06F008060390002E2BD1836A1A0712
:103F80003DD402A8FCF76AFD03A8FCF767FD2046B4
:103F9000FCF77EFD046A039024B92EE0046A0390C6
:103FA000002C2AD02046FCF773FD836A1B07F5D549
:103FB000039A019B15621C6201A8FCF74FFD04B037
:103FC00070BDC56101A8FCF749FD02A8FCF746FDDC
:103FD00004B070BD02A8FCF741FD03A8FCF73EFD4C
:103FE0002046FCF755FD026A039032B11046FCF7FB
:103FF0004FFD026A0390002AF8D10562DCE7019ABE
:10400000029B146201A8DD61FCF728FD02A8FCF701
:1040100025FD03A8FCF722FDDAE700BF00B97047D1
:104020002DE9F04F8FB00446FCF706FD836A05903A
:104030009A0740F13C81406A40B1A04B1B689C420A
:1040400004D0FCF7F5FF059B00225A622046FFF7DB
:1040500091F90390002800F02A81DFF8608203982C
:10406000FCF7EAFC836A06909B0740F11581406AE1
:1040700048B1D8F80030039A934204D0FCF7D8FF37
:10408000069B00225A620398FFF774F902900028F9
:1040900000F002810298FCF7CFFC836A07909F072B
:1040A00040F1EF80406A48B1D8F80030029A93425C
:1040B00004D0FCF7BDFF079B00225A620298FFF76D
:1040C00059F98346002800F0DC805846FCF7B4FC20
:1040D000836A08909E0740F1C880406A40B1D8F8D2
:1040E00000305B4504D0FCF7A3FF089B00225A6216
:1040F0005846FFF73FF98246002800F0B680504648
:10410000FCF79AFC836A09909D0740F1A280406AFF
:1041100040B1D8F80030534504D0FCF789FF099B23
:1041200000225A625046FFF725F90190002800F05E
:1041300090800198FCF780FC836A0A909C077DD5EB
:10414000406A48B1D8F80030019A934204D0FCF795
:104150006FFF0A9B00225A620198FFF70BF906468F
:1041600000286BD03046FCF767FC836A0B909907F8
:104170005BD5406A40B1D8F80030B34204D0FCF7B8
:1041800057FF0B9B00225A623046FFF7F3F80546B3
:1041900000284AD02846FCF74FFC836A0C909A0707
:1041A0003AD5406A40B1D8F80030AB4204D0FCF7B1
:1041B0003FFF0C9B00225A622846FFF7DBF84FF0C6
:1041C0000009044640B32046FCF736FC836A0D9094
:1041D0009B0718D5406A40B1D8F80030A34204D0FC
:1041E000FCF726FF0D9BC3F824902046FFF7C2F88A
:1041F000074640B13846FFF711FF3846FCF748FC48
:10420000076A002FF6D10DA8FCF728FC2046FCF722
:104210003FFC046A002CD6D10CA8FCF71FFC2846F2
:10422000FCF736FC056A002DB4D10BA8FCF716FC90
:104230003046FCF72DFC066A002E93D10AA8FCF745
:104240000DFC0198FCF724FC036A0193002B7FF41A
:1042500070AF09A8FCF702FC5046FCF719FCD0F837
:1042600020A0BAF1000F7FF44AAF08A8FCF7F6FBD4
:104270005846FCF70DFCD0F820B0BBF1000F7FF4DE
:1042800024AF07A8FCF7EAFB0298FCF701FC036ADD
:104290000293002B7FF4FEAE06A8FCF7DFFB039829
:1042A000FCF7F6FB036A0393002B7FF4D8AE05A856
:1042B000FCF7D4FB0FB0BDE8F08F00BFD42802207C
:1042C00001B970472DE9F041054686B008460C4615
:1042D0001E461746FCF7B0FBD0F82880009018F077
:1042E000020F42D00246294602A8FDF79DFE002893
:1042F0003BD040F6010308EA0303012B3FD02046E0
:10430000324602A902F0A6FE009BDC696CB3BC42F7
:104310002BD02046FCF790FB836A01909B072AD59F
:10432000024602A904A8FDF77FFE20B301A8FCF70E
:1043300095FB324604A9204602F08CFE2046FFF78A
:1043400019F8054650B12846324604A9FFF74AF944
:104350002846FCF79DFB056A002DF4D12046FCF7AA
:1043600097FB046A0CB1A742D3D16846FCF776FBF1
:1043700006B0BDE8F08101A8FCF770FBEEE70099FC
:1043800033460A6A896902A8FFF79AFFBCE700BFB3
:1043900001B97047F0B5054687B0084616460C4689
:1043A000FCF74AFB876A0090BA0740D502462946C7
:1043B00002A8FDF739FE002839D040F601033B4042
:1043C000012B43D02046202202A902F043FE009B8D
:1043D000DC6964B3A6422AD02046FCF72DFB836A31
:1043E00001909B0728D5024602A904A8FDF71CFEF0
:1043F00010B301A8FCF732FB202204A9204602F0EA
:1044000029FE2046FEF7B6FF054650B12846202279
:1044100004A9FFF7E7F82846FCF73AFB056A002DE8
:10442000F4D12046FCF734FB046A002CD2D1684654
:10443000FCF714FB07B0F0BD01A8FCF70FFB20460A
:10444000FCF726FB046A002CC4D1F0E70099202376
:104450000A6A896902A8FFF733FFB8E770B50D4C07
:104460002268132A00DD70BD06460D46FCF710FBDE
:1044700002696E6042B12368284601332360904789
:104480002368013B236070BD2846BDE87040FEF7FD
:1044900035BF00BF70070220C04BDA68F0B59C6BD7
:1044A000013A22440D18AA4203D30A58002A00F008
:1044B000A1808C4205D251F8042C8A1A1468002C71
:1044C0004AD0D3F8B840B54AA04280F01E81D2F855
:1044D000B040A04280F01B81D2F8A840A04280F0FA
:1044E0001881D2F8A040A04280F01581D2F89840FF
:1044F000A04280F01281D2F89040A04280F00F815B
:10450000D2F88840A04280F00C81D2F88040A042CE
:1045100080F00981946FA04280F00781126F904271
:1045200080F005819C6E9D4AA04280F00281146E4D
:10453000A04280F00081946DA04280F0FE80146D56
:10454000A04280F0FC80946CA04280F0FA80126C53
:10455000904280F0A680F0BD5168D3F8B8508F4CDF
:10456000A942084480F0F980D4F8B050A94280F004
:104570000681D4F8A850A94280F0FF80D4F8A0505A
:10458000A94280F0F880D4F89850A94280F0FC80CD
:10459000D4F89050A94280F0FF80D4F88850A94206
:1045A00080F0F880D4F88040A14280F0F1809D6FC7
:1045B0007A4CA94280F0EA80256FA94280F01381ED
:1045C000A56EA94280F00D81256EA94280F0078179
:1045D000A56DA94280F00181256DA94280F0FB8084
:1045E000A56CA94280F00481246CA14280F08180F6
:1045F000114666E76A68D3F8B860B242104480F0AA
:10460000AE80D3F8B060B24280F0B280D3F8A86038
:10461000B24280F0AA80D3F8A060B24280F0A280BB
:10462000D3F89860B24280F0AC80D3F89060B24288
:1046300080F0BF80D3F88860B24280F0B780D3F8B2
:104640008060B24280F0AF809F6FBA4280F0A88055
:104650001F6FBA4280F0B9809F6EBA4280F0B2807C
:104660001F6EBA4280F0AB809F6DBA4280F0A4808A
:104670001F6DBA4280F0AC809F6CBA4280F0B5806A
:104680001E6CB242FFF415AF4FF0000E1E68AF680B
:10469000ED68B21A1A6007B17D60002D58D02F6006
:1046A00007E70022083203EBC2040D1864688C602F
:1046B00000260E604860096101F1080645F8040C07
:1046C00004B1666000258C60CD60196893F82950AC
:1046D000324C03EBC202014456601960002D7FF496
:1046E0003AAFE368A268591A91427FF634AFA160ED
:1046F000F0BD00271C689568D668611A196005B17D
:104700006E6006B335601146DBE60F22CAE70E2263
:10471000C8E70D22C6E70C22C4E70B22C2E70A2233
:10472000C0E70922BEE70822BCE70722BAE7062253
:10473000B8E70522B6E70422B4E70322B2E7022273
:10474000B0E70122AEE703EBC70711467D64B8E688
:1047500003EBCE0ECEF84470ABE60F27CAE74FF05E
:104760000F0E93E74FF00C0E90E74FF00D0E8DE714
:104770004FF00E0E8AE70C27BCE70D27BAE70E278D
:10478000B8E74FF00B0E81E70B27B3E70727B1E738
:104790000827AFE70927ADE70A27ABE77407022030
:1047A0004FF0070E72E74FF0080E6FE74FF0090E5B
:1047B0006CE74FF00A0E69E74FF0030E66E74FF023
:1047C000040E63E74FF0050E60E74FF0060E5DE75D
:1047D0004FF0020E5AE702278CE703278AE70427E7
:1047E00088E7052786E7062784E74FF0010E4DE7A7
:1047F00001277FE72DE9F041C04C94F828300546A9
:10480000002B00F0F880206C2368854224BFE81C50
:1048100020F0030000F10C06B342B84D02D2002094
:10482000BDE8F0816B682A6B934240F25481656A5F
:10483000626B4FEAC508013B02EB080163604B68FD
:104840006362012302F83530002DE8D0AB4FD4F875
:10485000B8E0764580F02181D7F8B0309E4280F0F4
:104860001E81D7F8A8309E4280F01B81D7F8A03077
:104870009E4280F01A81D7F898309E4280F01381D2
:10488000D7F890309E4280F01481D7F888309E424D
:1048900080F00D81D7F880309E4280F00E81BB6F92
:1048A0009E4280F008813B6F9E4280F00A81A36E99
:1048B0009E4280F004813B6E9E4280F00481BB6D7D
:1048C0009E4280F002813B6D9E4280F00281BB6C73
:1048D0009E4280F0FC803B6C9E424FF0FF3328BF2D
:1048E00000230F2B12D8002104EBC100436C2BB91D
:1048F00007E05A6896421DD99B6813B19B68002B4C
:10490000F7D10131102900F10800EFD1304602F053
:104910006DFD00289BD0626B6368616A904400263D
:1049200001336360C8F8041002F8356030466562F0
:10493000BDE8F081216C971B01F10C0087422CBF70
:1049400030461046964540F2F580D4F8B0706B4E74
:10495000BA4280F0F180D6F8A870BA4280F0E880C0
:10496000D6F8A070BA4280F0CD80D6F89870BA42DE
:1049700080F0D880D6F89070974240F2DF80D6F869
:104980008870974240F2DE80D6F88070974240F2FD
:10499000D780B76F974240F2E580366F964240F27B
:1049A000DF80A66E554F964240F2D8803E6E96420A
:1049B00040F2D280BE6DB24280F0CC803E6D964215
:1049C00040F2C680BE6CB24280F0C080914240F29C
:1049D000BB80646B1918A04490424FF00004C8F8E3
:1049E00004301D6058601B619C6041F8040C7EDB44
:1049F0002846BDE8F081424B9A685868012184F846
:104A000028100AB982089A605A26266210272022A6
:104A1000402619682764A264266580274FF48072B7
:104A20004FF40076A7652266A6664FF480674FF4C0
:104A300000624FF48056A1F114032767A267C4F8FF
:104A400080604FF400574FF480424FF40046034417
:104A5000C4F88870C4F89020C4F898604FF4803788
:104A60004FF400324FF48026C4F8A070C4F8A82098
:104A7000C4F8B060022201264FF40027A1636363EB
:104A80002261E060C4F8B8705E6066626660FFF73D
:104A900003FD01F0A9FB2663B5E60F2124E70E21F3
:104AA00022E70D2120E70B211EE70C211CE709213D
:104AB0001AE70A2118E7072116E7082114E705215C
:104AC00012E7062110E704210EE703210CE701217C
:104AD0000AE7022108E7013A2A6301F085FB2B6B04
:104AE00001332B6300287FF49AAE6B689FE6101A9F
:104AF000FFF7D2FC2846BDE8F08100BF7407022012
:104B0000B00502200C2126689F68D3F80CE0B61A85
:104B100026600FB1C7F804E0BEF1000F04D0CEF854
:104B2000007056E70B21EEE704EBC1014F6450E73C
:104B30000D21E8E70F21E6E70E21E4E70A21E2E78D
:104B40000821E0E70921DEE70021DCE70121DAE7BF
:104B50000221D8E70321D6E70421D4E70521D2E7D3
:104B60000621D0E70721CEE701207047F0B5124CAF
:104B7000D4F800E0BEF1000F03D0F446BDE8F040E9
:104B800060470646DFF838E00C480C4615461F46DD
:104B900056F8041BC1F30742C1F30723825C1EF8D9
:104BA0000330C9B2D202415C02EB43130B44013D16
:104BB00023803C44ECD1F0BDA8050220CCDE0008E7
:104BC000CCDD000810B450F8044B013A24F07F44C7
:104BD0000C601944F7D15DF8044B70472DE9F0479C
:104BE0000C4CDFF8348027680546894692461E46FD
:104BF00055F8044B24F07F40240EB84718F80430D1
:104C0000BAF1010A40EA031089F80000B144EFD17B
:104C1000BDE8F0878CDD0008CCDF00082DE9F84303
:104C20000B4CD4F800800646894615461F4656F8B8
:104C3000044B24F07F40C047240C04F47F442043FD
:104C4000013DA9F80000B944F1D1BDE8F88300BFE7
:104C500084DC0008F0B5134CD4F800E0BEF1000F7E
:104C600003D0F446BDE8F040604706460E480C46C7
:104C700015461F4656F8041BC1F30742CBB2825CAF
:104C8000C35CC1F3072E02EB8322CB0F10F80E108A
:104C900002EBC33303EB4113013D23803C44E9D1D4
:104CA000F0BD00BF98050220CCDE0008F0B5194C1D
:104CB000D4F800E0BEF1000F03D0F446BDE8F040A8
:104CC0006047DFF854E006460C4615461F4656F886
:104CD000043BD8B2190EC3F3074208300831AEFBCB
:104CE00000C0AEFB01C10832C3F307230009090964
:104CF000AEFB02C2083300EB01311209AEFB030325
:104D000001EB022223F00F031344013D23803C44B6
:104D1000DDD1F0BDA0050220F1F0F0F010B450F8A4
:104D2000044B0C60013A1944F9D15DF8044B70470B
:104D30002DE9F8430646FDF737FD0746FDF76AFD06
:104D400058B1A0F104084346002002E00130874238
:104D500005DD53F8042FB242F8D1BDE8F8830024F2
:104D600025466FF07F4958F8041F3046FBF79AFE3E
:104D7000814588BF2C4605F1010588BF8146AF42B9
:104D8000F1DC2046BDE8F883F0B5C0F30724C0F39A
:104D90000743671C542F03F10106C0B294BF0022E1
:104DA000012200F1010E542E4FEA820194BF00252A
:104DB0000125BEF1540F01EB4501154494BF0022BB
:104DC0000122542E01EBC2012A4401D8542F0CD9E0
:104DD0001C442318C2EB82101844C2EBC212B0FB71
:104DE000F2F201EB52010846F0BDBEF1540FEFD8CC
:104DF000F9E700BF064B10B51B68044620F07F4062
:104E00009847240E034B1B5D40EA031010BD00BF02
:104E10008CDD0008CCDF0008054B10B51B6804468C
:104E200020F07F409847240C04F47F44204310BDB9
:104E300084DC0008094AC3B2C0F3072110B4D35C74
:104E4000515CC0F30744C00F03EBC030135D5DF845
:104E5000044B00EB411000EB83207047CCDE0008D0
:104E6000010E30B40E4DC4B2C0F30742083408310D
:104E7000A5FB0434A5FB01310832C0F30723240944
:104E8000A5FB02020909083304EB0131A5FB03036A
:104E9000120901EB022223F00F00104430BC7047CE
:104EA000F1F0F0F0C0F30743074A10B4C0F3072154
:104EB000064CD35C615C5DF8044BC0B2DB02105C55
:104EC00003EB411318447047CCDE0008CCDD00082A
:104ED00020F07F40704700BF704700BF2DE9F843C6
:104EE000846805460E46174634B3BE421CD0EB68B4
:104EF00008219B6A28469847A1696369A26803FB59
:104F000001F300FB03F0C30882B152F8261052F8F7
:104F10002790D4F83880B8F1000F1AD03A463146BD
:104F2000A869C047C4F80090BDE8F883626803FB35
:104F3000062103FB0729ECE75020FBF765FC21461F
:104F4000A8605022FDF726F9AC68002CCDD1BDE851
:104F5000F88303481A46036848469847E2E700BFCB
:104F6000400200202DE9F04F8BB00E46159C169D97
:104F70000095013C189D01950293DDF850E0179FC4
:104F8000199D039083680F2C3AD8DFE814F03C0099
:104F9000AD003900FA003900390039004801390004
:104FA0003900390039003900390039001000DC6C53
:104FB0002CB1A6490968097CC90740F15C83BEF1A0
:104FC000000F1DDD14460EEB0205029ADFF880A2E9
:104FD000DDF80CB0DDF800804FEA420901E0DBF8B3
:104FE00008301A6A1868DAF8003002FB046200EB35
:104FF0004200394601344A469847AC424744EED114
:105000000BB0BDE8F08FDC6B2CB190490968097CCE
:10501000C90740F11F83BEF1000FF1DD1146724454
:105020000492019A894806909846B018C2F1080384
:10503000DFF820B205908A46089346460795294630
:10504000069B3A781B681BF802401B7C019A356A64
:10505000486803F003031441059A022B05FB0A2557
:1050600000F08782032B00F06282012B00F05F8248
:105070003368DDF808800E68DDF820C0CDF824A084
:105080002A46B94645469A4690466545AE4628BFEB
:10509000E64673460AEB480214F0010F0CBF314696
:1050A0000146013B4FEA540422F8021BF4D1BCEB49
:1050B0000E0CF044CEEB050507D199F801301BF832
:1050C000034009F101094FF0080C002DDDD1DDF896
:1050D00024A0009B1F44049B0AF1010A9A458FD02B
:1050E000039B07999E68ABE7BEF1000F88DD574927
:1050F0000198096803910299301801440EEB020BE4
:1051000004900E464FF0C00E03993878097C11F0D8
:10511000030100F0EB8002292DD1002D00F0438225
:10512000DDF804C0DDF81080B946BA4601E0464516
:1051300020D0CCF103046400C4F106014EFA01F161
:105140000140E1400CF1010C07D01C6A1F6855F8C2
:10515000211004FB028427F81410BCF1040F08F19D
:105160000108E4D1464599F801004FF0000C09F11F
:105170000109DED15746013200995A450F44C3D187
:105180003EE7BEF1000F7FF73BAF30490198096859
:1051900003910299301801440EEB020B04900E4665
:1051A0004FF0F00E03993878097C11F0030100F0FC
:1051B000E48002292DD1002D00F01E82DDF804C00C
:1051C000DDF81080B946BA4601E0464520D0CCF162
:1051D0000104A400C4F104014EFA01F10140E140D0
:1051E0000CF1010C07D01C6A1F6855F8211004FB54
:1051F000028427F81410BCF1020F08F10108E4D171
:10520000464599F801004FF0000C09F10109DED183
:105210005746013200995A450F44C3D1F0E61C6C41
:10522000D4B10A490968097C890715D4A5B1009B46
:1052300080691693029B149331463B46A44617950A
:10524000CDF854E00BB0BDE8F04F604724020020D9
:10525000400200203CE10008BEF1000F7FF7D0AE15
:105260000299D44C0839C80800F1010C4FEA001823
:10527000A1EBC00A02992468CDF808A04FEACC003F
:1052800003904FEA0C1008F1200B0490DDF8008029
:10529000CDF814B04800964401908B46FDB1186AD1
:1052A00094F810C000FB026118681CF0030C00EBBE
:1052B000410100F0A980BCF1020F10D1BBF1000F39
:1052C0000DDD019807F1FF3C01EB00091CF8010F0F
:1052D00010B155F82000088002314945F6D101325D
:1052E00072454744DAD10BB0BDE8F08F196A1C68EB
:1052F000DDF804C001FB02F9049901EB0908B1448F
:1053000004EB480804EB4909BA461DB924E0C84536
:105310003FF431AFCCF103014C00C4F106014EFA69
:1053200001F10140E1400CF1010C55F8211028F881
:10533000021BBCF1040FEAD19AF801004FF0000CF7
:105340000AF1010AE3E79AF801004FF0000C0AF1B4
:10535000010AC8453FF40FAFCCF103014C00C4F182
:1053600006014EFA01F101400CF1010CE140BCF1E3
:10537000040F28F8021BECD1E5E7196A1C68DDF878
:1053800004C001FB02F9049901EB0908B14404EBE4
:10539000480804EB4909BA461DB924E0C8453FF462
:1053A00038AFCCF101018C00C4F104014EFA01F1D7
:1053B0000140E1400CF1010C55F8211028F8021BC6
:1053C000BCF1020FEAD19AF801004FF0000C0AF18B
:1053D000010AE3E79AF801004FF0000C0AF1010A14
:1053E000C8453FF416AFCCF101018C00C4F10401B3
:1053F0004EFA01F101400CF1010CE140BCF1020F49
:1054000028F8021BECD1E5E7BBF1070F40F31F8141
:1054100001F110000090059800EB010A009807F1D7
:10542000080C99461CF8083C55F8233020F8103C2D
:105430001CF8073C55F8233020F80E3C1CF8063CBD
:1054400055F8233020F80C3C1CF8053C55F8233067
:1054500020F80A3C1CF8043C55F8233020F8083C9E
:105460001CF8033C55F8233020F8063C1CF8023C9D
:1054700055F8233020F8043C1CF8013C55F8233043
:1054800020F8023C103082450CF1080CCAD1049877
:10549000DDF808A0014403984B463818BAF1030F11
:1054A00023DD90F800C055F82CC0A1F800C090F89A
:1054B00001C055F82CC0A1F802C090F802C055F800
:1054C0002CC0A1F804C090F80390AAF1040A4FEA96
:1054D0009A0C55F82990A1F806900CF10109AAEB55
:1054E0008C0A00EB890001EBC901BAF1000F3FF40F
:1054F000F6AE90F800C0BAF1010F55F82CC0A1F833
:1055000000C03FF4ECAE90F801C0BAF1020F55F8BC
:105510002CC0A1F802C03FF4E2AE8078013255F809
:1055200020008880724547447FF4B8AEDBE6039BD9
:105530001B699B689847029B03EB050E4FEA4E0ED2
:105540006D00089B3946844604E0640802357545C1
:105550003FF4BFADE00704D530682A5A8CEA020256
:105560002A52013BF1D14A7808231BF8024001314D
:10557000ECE7029B089A591949006D00BE4604E009
:1055800064080235A9423FF4A4ADE30744BF336881
:105590005853013AF4D19EF8013008221BF8034019
:1055A0000EF1010EEDE7DDF80480DDF81090BA464B
:1055B000AC4603E0240200204E4544D0C8F1030469
:1055C0006400C4F106014EFA01F10140E14008F126
:1055D000010805D01C6A1D6804FB029425F814100C
:1055E000B8F1040F09F10109E6D19AF801004FF072
:1055F00000080AF1010ADFE7DDF80480DDF8109009
:10560000BA46AC4601E04E451FD0C8F10104A400E3
:10561000C4F104014EFA01F10140E14008F1010832
:1056200005D01C6A1D6804FB029425F81410B8F11B
:10563000020F09F10109E6D19AF801004FF00008C4
:105640000AF1010ADFE7654695E56546E1E5DA46D8
:10565000384623E7009B80691793029B1593019BB3
:10566000149331463B46A4461895CDF858E00BB04C
:10567000BDE8F04F6047009B80691693029B14932E
:1056800031463B46A446CDF854E00BB0BDE8F04FA0
:10569000604700BF2DE9F04FA74C246895B08346C2
:1056A000206E0A921F9DDDF88CA009930C46FBF733
:1056B000C3F942691190002A40F0AE800346DB68CE
:1056C000069311A81292FBF7C9F9229B1298E318CE
:1056D0000893994B1B6820B11A7C974C910700F0F6
:1056E000CF80186EFBF7A8F904460A99B4F9062092
:1056F000E368B4F904908A1A03FB02F3089A14A829
:10570000C9EB0209183303EB4903E31840F8044DD1
:105710000293FBF7A3F9102D00F08480172D41DDD3
:105720001E9B002B40F3B984DDF82890129E4B4459
:105730000393219BA3F1040A1AF1040F20D0029FC6
:10574000F7B1002E5AD0B268099D546808992B46CB
:105750004A463046A047089CD046DBF8103058F83F
:10576000040F1B689847B36827F8020B21461B6893
:105770004A4630469847013D04F10104EDD1129E9E
:10578000029B069A13440293209B9A44039B09F1BF
:1057900001099945D0D116B112A8FBF75FF915B0F0
:1057A000BDE8F08F082D74D0644BBAF1000F08BF2C
:1057B0009A461E9B002B40F32B811C46229B069889
:1057C000029A209E21999B000393229B5B000793E2
:1057D0000023022D00F02381042D00F0F881012D1B
:1057E00000F0378301339C4231440244F1DCDDF8A0
:1057F00048B0DE46BEF1000FCED1D0E7099C3D4651
:105800005646DBF8103056F8040F1B689847013CE9
:1058100025F8020BF5D1B2E71046FBF70DF9119B05
:1058200002464CE7129F002F00F029841E9B002B9C
:10583000B2DD099B424EDDF878A0DDF880B05D0056
:105840000024A046A946219C029D21464A4628469E
:1058500064B15DB1336898473FB1BB680A9A089953
:10586000384642445F68099BB847129F069B08F17F
:105870000108C2455C441D44E7DC002F8CD18EE753
:105880001E9B00930A9A099B0899FCF771FA2368FA
:1058900027E71E9B002B40F30984DDF82890DDF8F4
:1058A00048B0099A4B440493219B013B0393029B0C
:1058B000584603EB42065746039B591C1E4B1B6878
:1058C0001B7C002F49D013F003033BD0022B1FD1C8
:1058D000BBF1000F64D0DDF80CA0DDF80880099D55
:1058E000089C1AF8013F21464A460134584643B104
:1058F000DBF808E057F82330A8F80030DEF8003075
:105900009847013D08F10208EBD1DDF848B0584650
:10591000029B069A19461144039B029120990B445D
:105920000393049B09F101094B451644C4D1002897
:105930007FF432AF33E700BF24020020ACE9000857
:1059400040020020039A029B12F8011F57F8211011
:1059500023F8021BB342F7D1DAE713F0030300F098
:105960006A83022BD4D1BBF1000F00F07E83DDF8F7
:105970000CA0DDF80880099D089C1AF8013F21461B
:105980004A460134584633B1DBF808E0A8F8003045
:10599000DEF800309847013D08F10208EDD1B4E788
:1059A0000399029B11F8012F12B157F822201A8097
:1059B00002339E42F6D1AAE7039B4A4614F0010F38
:1059C0004FEA540403D019888AEA01011980013A88
:1059D00003F10203F2D1039B03EB49030393BBF1F1
:1059E000000F40F0C682DDF88CA00B9B069A0133B5
:1059F0001C460B93029B13440293209A0C9B11A804
:105A000013440C93FBF72AF81E9A9442C0F22D829D
:105A1000DDF848E0BEF1000F7FF4BEAEBFE60B93A9
:105A2000229BDDF848B00292C3F10403DBB20C9371
:105A30005B462191D3469A46D6465746A44B219AB7
:105A40001B6814781B7C079A03F003039440012B16
:105A5000E4B200F09D807BD3022B66D1099B0393B7
:105A6000219B0593089B04930B9A0A9BDDF83090C9
:105A7000029D03EB020A039A039B9145C8BF5FFA9C
:105A800082F9C9EB030309F1FF3903935FFA89F93E
:105A900047B309F10108049E05EB480814F0C00F54
:105AA00031464FEA941306F101065246384607D0B4
:105AB000D7F808E05BF823302B80DEF800309847F9
:105AC0000235A4004545E4B2E8D1049B01334B44C0
:105AD0000493039BC3B1059B13F8014F05934FF04B
