:020000040800F2
:10000000B829022079020008411A0108F9060108FE
:100010003D1A0108B1F900086D2501080000000033
:10002000000000000000000000000000C101000806
:1000300045FA00080000000015020008C523010869
:10004000930200089302000893020008930200083C
:10005000930200089302000893020008930200082C
:10006000930200089302000893020008930200081C
:10007000930200089302000893020008930200080C
:1000800093020008930200089302000893020008FC
:1000900093020008930200089302000893020008EC
:1000A00093020008930200089302000893020008DC
:1000B00093020008930200089302000893020008CC
:1000C00093020008930200089302000893020008BC
:1000D00093020008930200089302000893020008AC
:1000E000930200089302000893020008930200089C
:1000F000930200089302000893020008930200088C
:10010000930200089D1C0108930200089302000856
:10011000930200089302000893020008930200086B
:1001200093020008930200089302000809FA0008ED
:10013000930200089302000893020008930200084B
:10014000930200089302000893020008930200083B
:10015000930200089302000893020008930200082B
:10016000930200089302000893020008930200081B
:10017000930200089302000893020008930200080B
:1001800093020008930200089302000893020008FB
:1001900093020008930200089302000893020008EB
:1001A0004916010893020008B5F90008DFF80CD0E1
:1001B00000F0F8F800480047CD360108B8290220C1
:1001C0002A4B19680868B0E8F04F80F30988BFF33C
:1001D0006F8F4FF0000080F311887047000000001F
:1001E00006480068006880F3088862B661B6BFF30D
:1001F0004F8FBFF36F8F00DF00BF00BF08ED00E03F
:10020000DFF80C00016841F470010160704700BF25
:1002100088ED00E0EFF30980BFF36F8F134B1A688E
:100220001EF0100F08BF20ED108A20E9F04F10607B
:1002300008B44FF0500080F31188BFF34F8FBFF325
:100240006F8F14F06DF94FF0000080F3118808BC37
:1002500019680868B0E8F04F1EF0100F08BFB0EC46
:10026000108A80F30988BFF36F8F70475001002018
:10027000EFF30580704700000648804706480047B6
:10028000FEE7FEE7FEE7FEE7FEE7FEE7FEE7FEE746
:10029000FEE7FEE7D5230108AD0100082DE9F05F78
:1002A0000546002092469B468846064681464024E5
:1002B0001BE0284641464746224600F062F8534676
:1002C0005A46C01A914110D311461846224600F0F2
:1002D00049F82D1A67EB01084F46224601200021FC
:1002E00000F040F817EB00094E41201EA4F1010474
:1002F000DFDC484631462A464346BDE8F09F10B54C
:10030000441A0346944209D28418114403E011F8B8
:10031000013D04F8013D521EF9D210BD40EA01042E
:10032000A40703D009E010C9121F10C3042AFAD28F
:1003300003E011F8014B03F8014B521EF9D210BD36
:10034000D2B201E000F8012B491EFBD27047002217
:10035000F6E710B513460A4604461946FFF7F0FFC4
:10036000204610BD202A04DB203A00FA02F10020CA
:1003700070479140C2F1200320FA03F319439040E3
:100380007047202A04DB203A21FA02F0002170474E
:1003900021FA02F3D040C2F12002914008431946ED
:1003A00070470000064C074D06E0E06840F001038E
:1003B00094E8070098471034AC42F6D3FFF7FAFEF2
:1003C0004CA101086CA1010870B58C1810F8015BF4
:1003D00015F0070301D110F8013B2A1106D110F8DE
:1003E000012B03E010F8016B01F8016B5B1EF9D1E2
:1003F0002B0705D40023521E0DD401F8013BFAE768
:1004000010F8013BCB1A921C03E013F8015B01F8D2
:10041000015B521EF9D5A142D8D3002070BD000067
:1004200038B5204B204C1D6801F05EFC284605F0D5
:10043000CDFC03F0C7FF1D4B1D6801F055FC28469D
:1004400005F0FEFC03F0BEFF01F04EFC2368012224
:100450001A7603F0B7FF01F047FC236800259D855D
:1004600003F0B0FF01F040FC23685D8503F0AAFFB4
:1004700001F03AFC284605F015FD03F0A3FF0C4BF4
:100480001D6801F031FC236805B1DD6103F09AFFBE
:1004900001F02AFC236800229A76BDE8384003F078
:1004A00091BF00BF280200202C020020240200205F
:1004B00020020020014B83E803007047AC050220B6
:1004C000014B83E803007047B4050220014B83E829
:1004D00003007047BC050220704700BF704700BF93
:1004E0002DE9F04F4F4E3368DA69B3F92250D469E1
:1004F000B4F80CB083458BB07DD8E18981427AD3C2
:10050000216808914FF0FF31CBEB000B0791BBF155
:10051000FF3F6AD0177EB3F92A80A27CB3F92490FA
:1005200094F810A017FB02F34046069305F0BAFCBE
:100530003368069A0899099002FB0B109A6BDB69E5
:1005400004900592A27C03924FF0010BCDF808B005
:10055000DA7E01929B7E009328463B4652464946EE
:1005600004F03EFE079801301CD048F0020005F070
:1005700099FC2C4A079812680899069B03FB001304
:10058000916BD26905910493A37C0393CDF808B0D5
:10059000D37E0193937E009352463B4649462846BC
:1005A00004F01EFE33681F4FDB695A7E1B7E9A42A1
:1005B00014D9B8F1020F11D088F0040005F072FCD4
:1005C0003B68DB69187ED97E9A7E5B7E00FB0191D9
:1005D0000AFB02524B44284604F0E8FF9DF8240031
:1005E00005F060FC3368B3F92250627C15445D84E9
:1005F0000BB0BDE8F08FA1680029F6D00F88B84293
:10060000F3D3B1F802E08645EFD34968C01B80B24E
:100610006768089701EB800731F920B0B7F902103D
:10062000079174E72C020020044B1B68DB69DB692F
:1006300009B11A7C0A60587C704700BF2C02002068
:1006400002230B80704700BFC3699A898A4202D88F
:10065000DA898A4211D2986818B10388994201D286
:100660000020704742888A42FAD3C91A436833F897
:100670002100C043C0F3C03070470120704700BF65
:100680002DE9F04F3E4D2B68DA69B3F92A60D36942
:1006900089B043B11A88904202D35988814205D269
:1006A0009B68002BF6D109B0BDE8F08FD3F8048029
:1006B000DFF8CC90841A08EBC407304697F802B0F4
:1006C00005F0F0FB8246286818F83420D0F81CE0CA
:1006D000D0F838C09EF81830B0F92410B0F92200D4
:1006E000CDF814C006934FF0010C7B680493CDF84D
:1006F0000CB0CDF808C09EF81BC0CDF804C09EF821
:100700001AE0069BCDF800E004F06AFD2B68DA6978
:10071000537E92F818B05B4523D9022E069320D061
:10072000D17E079101F0B8F9064601F083F903F094
:10073000A3FBD9F8002018F834C0D469B2F922001C
:1007400094F81BE00799B2F92440069B0CFB0E02BB
:1007500001FB034301FB0B4104F028FF304603F08B
:100760008BFB504605F09EFB2B687978D8695A8C34
:10077000807E00FB01225A8409B0BDE8F08F00BFE3
:100780002C020020114B70B41B68DD69EB6943B18A
:100790001A88904202D35C88844205D29B68002B61
:1007A000F6D1184670BC70475E68AC7E821A06EBC4
:1007B000C2035B7813FB04F00029F3D016F8323043
:1007C00014FB03F30B6070BC704700BF2C020020C9
:1007D00001230B80704700BFC06950B103888B4272
:1007E00002D843888B4203D280680028F6D1704734
:1007F000012070472DE9F047234E3368002B3FDD81
:10080000224D234F2C68D7F80090C3EB431804EB1C
:10081000880808F10C080C344FF0000AA4F1080312
:10082000742218464946FFF76AFD221F2063A06321
:1008300044F80CAC6263E4607C34A045EED1002443
:10084000A04603E092B13268904514DA0FF0D4FD6F
:100850002B681A59904203EB040108F1010804F1D6
:100860007C04EFD104313960BDE8F08708600431C1
:100870003960BDE8F087194604313960BDE8F0877A
:10088000024B034F1968EDE794020020E0070220B5
:100890002C020020F8B5194F194B1A4E384640F873
:1008A0000C3F04F0D7FB3468C4EB4414A40020468A
:1008B00000F0AEF8144B386022461B6800219847C0
:1008C0004FF0FF3373600FF0A1FD3368002B11DD93
:1008D0000024254603E072B133689D420ADA0FF026
:1008E0008BFD3B681A599042234405F1010504F140
:1008F0007C04F0D1F8BD1860F8BD00BFE00702200D
:100900004DDA000894020020A002002000B97047D0
:1009100010B5044601F0E8F9204608F04DFA044607
:1009200003F050FD204610BD70B5054601F0DCF91E
:1009300025B9002403F046FD204670BD01F0D4F92E
:10094000284608F039FA044603F03CFD002CF0D0AC
:10095000144E1549F269736B0132F26113F83420B9
:10096000013203F8342003EBC4032A465D680B68A8
:1009700005F10800002198472968726B12F83130A0
:10098000012B01D9F06930B9013B02F8313003F095
:1009900019FD204670BD0138013BF06102F831308D
:1009A000F5E700BFA8080220A0020020024B21F0BA
:1009B000030183E803007047C405022000B97047B3
:1009C00070B50D4C054601F08FF9636BEE003344B2
:1009D0005968486808F042F8626B6368616A1644B7
:1009E000013300206360716002F835006562BDE884
:1009F000704003F0E7BC00BFA808022028B1034AFA
:100A0000D36B036003B15860D0637047A80802201D
:100A1000F8B5894E96F828300446002B2FD00334C1
:100A2000356CF26B24F003040434A54238BF25462C
:100A300062B152F8043C9D42144604D114E054F8CB
:100A4000043C9D4210D02468002CF8D1F368B46BAC
:100A50001C4454F8041C611A0B68002B65D14B68C8
:100A60009D426CDD002408E023680BB16168596089
:100A7000616801B10B60A24253D02046F8BD6F4BB4
:100A80009A685868012186F828100AB982089A6085
:100A90005A25356210272022402519683764B26430
:100AA000356580274FF480724FF40075B765326664
:100AB000B5664FF480674FF400624FF48055A1F1A2
:100AC00014033767B267C6F880504FF400574FF4ED
:100AD00080424FF400450344C6F88870C6F8902061
:100AE000C6F898504FF480374FF400324FF4802509
:100AF000C6F8A070C6F8A820C6F8B050022201259A
:100B00004FF40027B16373633261F060C6F8B870C8
:100B10005D607562756007F0A1FF0BF0E7F9356362
:100B20007DE72368F3632046F8BD00200DF0FCF854
:100B300054F8041C611A0B68002B93D18FE7D6F888
:100B4000B8703D4A581B041DBB420C4472D2D2F807
:100B5000B070BB426CD2D2F8A870BB4266D2D2F859
:100B6000A070BB4260D2D2F898709F425AD9D2F896
:100B70009070BB4254D2D2F88870BB424ED2D2F8A9
:100B80008070BB4248D2926F934243D2376F2A4A59
:100B9000BB423DD2976EBB4238D2176EBB4233D2B6
:100BA000976DBB422ED2176DBB4229D2976CBB42C8
:100BB00024D2126C93420CD2F2687369521B2B44FC
:100BC000F260736110B944F8045C56E707F046FF21
:100BD000F9E700223768D1F808E0FB1A3360CB68E8
:100BE000BEF1000F01D0CEF8043013B1C3F800E01D
:100BF000E2E706EBC202C2F844E0DDE70122E9E7E2
:100C00000222E7E70322E5E70422E3E70522E1E722
:100C10000622DFE70722DDE70822DBE70922D9E722
:100C20000A22D7E70B22D5E70C22D3E70D22D1E722
:100C30000E22CFE70F22CDE7A8080220C40502202C
:100C4000F8B54A4C94F82830002B3DD0D4F8BC308D
:100C5000464A3BBBD2F8B43023BBD2F8AC300BBB16
:100C6000D2F8A430F3B9D2F89C30DBB9D2F8943082
:100C7000C3B9D2F88C30ABB9D2F8843093B9D36F02
:100C800083B9536F73B9E36E63B9536E53B9D36DC0
:100C900043B9536D33B9D36C23B9536C13B96FF0A7
:100CA0000B00F8BD9B68002BF9D0002201E09B6887
:100CB00043B159689B689142104684BF0A4610466A
:100CC000002BF4D10C38F8BD294B9A6858680121E3
:100CD00084F828100AB982089A601968A1635A2614
:100CE0001022202526622264A564402780264FF426
:100CF00080724FF40075A1F114032765A665226682
:100D0000A5664FF480674FF400664FF480524FF4AD
:100D1000005503442767A667C4F88020C4F88850AC
:100D20004FF480474FF400464FF480324FF40035C3
:100D3000C4F89070C4F89860C4F8A020C4F8A85013
:100D4000022201254FF480274FF4002663632261BD
:100D5000E060C4F8B070C4F8B8605D60656265605A
:100D600007F07CFE0BF0C2F825636FE7A8080220AD
:100D7000C4050220024A936901339361704700BFA2
:100D8000A8080220074AD169536B0131D16113F8D9
:100D90003020013203F8302003EBC00358680830DC
:100DA000704700BFA8080220F8B5584C00F09CFF1F
:100DB00094F82830002B57D0D4F8BC30534A9BBB52
:100DC000D2F8B43083BBD2F8AC306BBBD2F8A430CD
:100DD00053BBD2F89C303BBBD2F8943023BBD2F843
:100DE0008C300BBBD2F88430F3B9D36FE3B9536FB7
:100DF000D3B9E36EC3B9536EB3B9D36DA3B9536D11
:100E000093B9D36C83B9536C73B96FF00B0340493A
:100E1000DA1781FB0313C2EB6313246A04FB03F4A8
:100E200003F0D0FA2046F8BD9B68002BF5D00022D5
:100E300001E09B6843B159689B689142104684BFAA
:100E40000A461046002BF4D10C38B0F5800F03464B
:100E5000DDD8226A2E4B02FB00F0A3FB00235C09C5
:100E600003F0B0FA2046F8BD2A4B9A685868012171
:100E700084F828100AB982089A601968A1635A2672
:100E80001022202526622264A564402780264FF484
:100E900080724FF40075A1F114032765A6652266E0
:100EA000A5664FF480674FF400664FF480524FF40C
:100EB000005503442767A667C4F88020C4F888500B
:100EC0004FF480474FF400464FF480324FF4003522
:100ED000C4F89070C4F89860C4F8A020C4F8A85072
:100EE000022201254FF480274FF40026636322611C
:100EF000E060C4F8B070C4F8B8605D6065626560B9
:100F000007F0ACFD0AF0F2FF256355E7A8080220C0
:100F10001F85EB51C4050220024A9369013B93618E
:100F2000704700BFA808022030B403680A4A53F88B
:100F3000085C0446506B10F83530012B03D9D16999
:100F400009B10139D161013B00F83530002210466A
:100F5000226030BC704700BFA8080220034B5B6BC7
:100F600003EBC00040680830704700BFA8080220AB
:100F70002DE9F0470E4682B08C008146414F00F0CB
:100F8000B3FE304600F094FDA31907EB83033A68E3
:100F9000D3F80480824672B3BAF1000F36D1A51996
:100FA00007EB850501236869C5F804902B720028BA
:100FB00063D1B9F1000F18D0344407EB840499E8E9
:100FC0000300E368D9F8087022690125591AD21B79
:100FD0000095334602F092FE6061304600F068FDF5
:100FE000002838D1237A002B3ED103F0EBF940469C
:100FF00002B0BDE8F0873846234B40F82C3F012370
:101000003B6004F027F8BAF1000FC8D0504602F058
:1010100007FF0546002002F023FF00F0DBF8002266
:101020001146D9F8000000F09BFBD9F80030344499
:101030005A88198807EB8404504602F073FF28464B
:101040000125C4F80490257202F0EAFE304600F053
:101050002FFD0028C6D0294602F074FF03F0B2F934
:10106000404602B0BDE8F087606902F013FE03F06D
:10107000A9F9404602B0BDE8F08702F085FAC5F84C
:1010800014A096E77406022091D900082DE9F041DA
:1010900014460646884600F027FE204600F008FD6C
:1010A000E8B9A7001B4D3B1905EB8303DA68B24290
:1010B00006D11B69434503D1BDE8F04103F082B975
:1010C0003B1905EB83035869D0B93C4405EB840414
:1010D000E660C4F81080BDE8F04103F073B90D4B31
:1010E00004EB840403EB840463689A685968C2EBD8
:1010F0000802711A02F006FFBDE8F04103F062B980
:101100005B689A685968C2EB0802711A02F06CFABF
:10111000DBE700BF7406022070B5174B1B685D7CCF
:1011200000F0E2FD154B05EB850403EB840401267A
:1011300063682672BBB1284600F0BAFC60B9237A16
:101140001BB9BDE8704003F03DB9606902F0A2FD33
:10115000BDE8704003F036B9314602F0F3FEBDE859
:10116000704003F02FB929460548FFF701FFBDE89D
:10117000704003F027B900BF2C0200207406022043
:10118000B4800108C3B2CAB29A1A92B230B415B28E
:10119000002DBCBF524215B2C0F30723C1F3072292
:1011A0009B1A9BB2090C1AB2C1EB1041002A89B2FA
:1011B0000CB2BCBF5B421AB2002CBCBF49420CB29D
:1011C00002FB02F205FB0520A1B201FB010030BCCD
:1011D000704700BF2DE9F041002182B0084600F0C1
:1011E000F5FC00F081FD042004F05CFE174B1B6948
:1011F000DD6C1C6DA5F57F57A4F57F5605F57F5571
:1012000004F57F5480463F3F3F353F3E3F346846BC
:10121000ADF80070ADF80450ADF80260ADF80640CE
:1012200006F02AFE48B123462A463146384604F0E5
:10123000BDF906F0DFFC0028F5D1404604F032FE8F
:1012400003F0C0F802B0BDE8F08100BF1C0200202E
:1012500080B582B000AF7860054B1B68002B03D0CF
:10126000034B1B687868984700BF0837BD4680BDB0
:1012700068090220012B12DCF8B506461C2017462F
:101280000C461D46FFF7C4FBB8B154B104610023FE
:10129000836085618782C66003604360F8BD00207B
:1012A0007047074B53F825200AB9F0E71A46136830
:1012B000002BFBD113690361E9E70020F8BD00BFF3
:1012C00088090220012B3BDC2DE9F84381461C20D4
:1012D00090460F461E46FFF79BFB054600287FD031
:1012E000414A002F31D00023DFF804E152F82640B4
:1012F00003609EF8001007618E428661A0F814809A
:10130000C0F80C904360836002DB731C8EF80030E1
:10131000002C5DD021464C68002CFBD1D9F8000090
:10132000CB681B6883422CDD09680029F8D148B9D5
:101330002E4B16361A68284642F82650BDE8F88328
:10134000002070472846BDE8F88352F8261000298F
:1013500030D0084600E018460368002BFBD1DFF8C8
:1013600090E000692B6028619EF80000AE61864223
:10137000A5F81480C5F80C906B60AB60CBDB0C4615
:10138000C3E70AD04B6843B31D606B608D4214BF46
:101390000B4600234D602B60C9E7B8F1010FF1D176
:1013A00004E0D9680C6884421946EBDB0B68002B1B
:1013B000F7D1E7E7DFF838E001609EF8003086619A
:1013C0009E42A0F81480C0F80C9041608160D6DA8B
:1013D00042F82650D9F80000A9E742F82650D5E790
:1013E0000020BDE8F88300BF880902202C020020FD
:1013F00080090220FFF702BB00283CD070B484694A
:10140000012C03DD0123184670BC70471E4B1F4D95
:101410001A789442A4BF621C1A7055F824300BB994
:101420002FE013465A68002AFBD1C268116802E017
:101430001B68002BE6D0DA6812689142F8DB0DD009
:101440005A68DAB110604260984214BF1A4600220E
:1014500058600023026070BC18467047828A012AD7
:10146000EED104E0D3681E68B1421346E8DC1A6886
:10147000002AF7D1E4E701231846704745F8240015
:10148000E2E745F82400BEE780090220880902202F
:1014900000284DD02DE9F041DFF89CE0254F9EF863
:1014A0000060BC4602E02846002D27D0846905680C
:1014B000012CF8DCB44257F82430A4BF661CF6B205
:1014C0000BB932E013465A68002AFBD1C268116892
:1014D00002E01B68002BE6D0DA6812688A42F8DC6A
:1014E00010D05A68A2B110604260984214BF1A46E8
:1014F0000022586002602846002DD7D18EF8006087
:10150000BDE8F081828A012A0BD05A68002AEAD10C
:1015100047F82400E9E7D368D3F8008088451346EC
:10152000DFDB1A68002AF6D1DBE74CF82400BAE7C3
:10153000704700BF88090220800902200F4A816994
:1015400052F8213098420AD042680AB10368136009
:10155000036803B15A600023036043607047036867
:1015600042F821302BB100225A604268002AEED1A5
:10157000F0E74268002AEAD1EDE700BF88090220BF
:101580000020704701280EDC084B53F8200058B1AA
:10159000C3681B681BB908E0C3681B6823B10068F7
:1015A0000028F9D170470020704770478809022051
:1015B0002DE9F84307460EF023FF07440EF020FF05
:1015C0003E1A002EDFF86090DFF8608022DD00F028
:1015D00049F9D9F800309E42A8BF1E4600F084FBAE
:1015E000D8F80040FFF7C6FBB4B1254602F0EAFE8A
:1015F000013DFBD130460EF0F9FE00F075FB013CD9
:10160000FBD1FFF789FC02F0DDFE0EF0F9FE3E1A79
:10161000002EDCDCBDE8F88330460EF0E7FEFFF775
:101620007BFC02F0CFFEF0E738020020E407022046
:1016300008B100F001B870472DE9F04F474E83B074
:10164000044600F051FB00F049FA33680746B3F94D
:10165000229000F087FA3268938C1FFA80FACAEB66
:1016600003031BB29384217800294DD0BFB2B0464A
:1016700047F6FF71204603F089FB0146834620466A
:1016800003F042FB31688B8D03F00303012B5AD02A
:10169000022B5CD085B24FF0000E4A8CB1F9243099
:1016A000ADF80230CEEB020292B210B2013B05F16E
:1016B000FF3E964448843B446A465946ADF80000D4
:1016C0002046ADF80630ADF804E003F0B7F8336813
:1016D000BDF802209A845946204602F043FD225C60
:1016E0000A2A04EB00031BD00D2A19D0BDF8000014
:1016F000D8F8002005445584197819B159785C1C34
:101700000029B5D1B2F92430918D9A4421F0030318
:10171000A2F824A0938502F055FE03B0BDE8F08F37
:101720003268918D01F00301013901298ABF118CC2
:10173000A2F82290518419780A29DED1918C39447B
:1017400091841978D9E71FFA80FE7546A5E700EB6A
:10175000D072C2F34F0E85B29FE700BF2C0200206B
:101760002DE9F04FDFF8F49089B0044690460F461B
:1017700000F0BAFAD9F800302088DA6C1D6D638861
:101780001744A844421E013B3A44434406A8ADF81E
:101790001870ADF81A80ADF81C20ADF81E3006F0B8
:1017A0006BFB00284ED0DFF8B8A0CB461AE040F023
:1017B000020002F06DFB216921B3D4F80CE0A668A9
:1017C000638822888DE840400120039002900E68D3
:1017D00038464146B047284602F05AFB06F00AFA5E
:1017E00000282FD00020E66802F052FB054616B113
:1017F0003379002BDBD125F0020002F049FB21698F
:101800000029DAD1D9F80020DAF80030527CE068FB
:1018100021469847E188D0B163882288A668059060
:10182000A088029101210390019100913846414620
:10183000049603F0D5FC284602F02AFB06F0DAF9FC
:101840000028CFD102F0BEFD09B0BDE8F08F01291C
:1018500004BFDBF80030986BDEE700BF2C020020ED
:101860001C0200202DE9F041124F134EDFF84C808E
:1018700000253C681CB1A047041C18BF012404F0DB
:10188000A7FF3368002818BF01244BB1984738B12F
:10189000D8F8003013B1012498473CB10125E8E79E
:1018A000D8F80030002BF7D1002CF7D12846BDE83E
:1018B000F08100BFAC090220B0090220A809022073
:1018C000002850D0C388013B10B5848880681F2B46
:1018D00047D8DFE803F0162346314646463C4646E5
:1018E000464646464640464646464646464646469E
:1018F000464646464610A31002FB031150F821004D
:1019000010BD02FB04F200EBD104C843A35C00F05D
:10191000070023FA00F000F0010010BD02FB04F202
:1019200000EB91046FEA4100A35C00F0060023FA8B
:1019300000F000F0030010BD02FB04F200EB5104C4
:10194000CB07A05C4CBF00F00F00000910BD02FBEC
:101950000404605C10BD631002FB031130F8110039
:1019600010BD002010BD7047013800B51F2853D8A6
:10197000DFE800F018275237525252445252525266
:101980005252524A5252525252525252525252523F
:10199000525252100198891000FB013352F8230073
:1019A0005DF804FB019802EBD30200FB01F0DB437E
:1019B000105C03F0070320FA03F303F001005DF865
:1019C00004FB019802EB930200FB01F06FEA430372
:1019D000105C03F0060320FA03F303F003005DF844
:1019E00004FB019802EB530200FB01F0DB07105CE3
:1019F0004CBF00F00F0000095DF804FB019800FBEC
:101A00000122D05C5DF804FB0198491000FB013312
:101A100032F813005DF804FB00205DF804FB00BF02
:101A2000034B53F82000C36808219B6A184700BF86
:101A30008809022010B500F057F903F0F7FD03F014
:101A4000D9FF044602F0BEFC204610BD10B5044686
:101A500000F04AF9054B1B68DB6900215B682046F2
:101A60009847044602F0AEFC204610BD2C02002030
:101A700038B504460D4600F037F9064B1B68DB69A4
:101A800029465B6820469847044602F09BFC2046A6
:101A900038BD00BF2C02002010B500F025F903F07E
:101AA000CDFD03F0A7FF044602F08CFC204610BDDC
:101AB00001289ABF024B53F820000020704700BF56
:101AC0004407022010B500F00FF9034B1B681C7C83
:101AD00002F078FC204610BD2C02002010B500F06A
:101AE00003F9044B1B68DB695C7E02F06BFC20464B
:101AF00010BD00BF2C02002070B504460E461546EE
:101B000000F0F2F820462A46314603F00FFE044664
:101B100010B1002333602B6002F054FC204670BDEE
:101B200038B505460C4600F0DFF8064A064BB2F918
:101B30000020B3F900302A602360BDE8384002F08D
:101B400041BC00BF6E090220700902200448342302
:101B500035216122017002718370C370704700BF2C
:101B60001402002010B500F0BFF80F4B1A68938DD7
:101B700003F00C03082B08D00C2B06D0042B0BD041
:101B8000002402F01FFC204610BDD3691C7E6408AF
:101B900002F018FC204610BDD3691C7E013C02F007
:101BA00011FC204610BD00BF2C020020024B53F850
:101BB00020301B691868704788090220024B53F8CF
:101BC00020301B69586870478809022038B50546DF
:101BD0000C4600F089F8044B1B685D849C8402F07D
:101BE000F1FB002038BD00BF2C02002090B583B06F
:101BF00000AF344A334B1B6823F001031360324BB0
:101C000001221A6000BF304B1B68002BFBD12F4B09
:101C10002F4A1A602D4B1B682E4A934200D0FEE7D4
:101C200002F0CCFD2C4B2E221A700EF0EDFB2B484F
:101C30000BF06EFC0DF03AFD786003F0F1FD034609
:101C4000002B0CBF01230023DCB203F02FFE034660
:101C5000002B0CBF01230023DBB22343DBB2002B9C
:101C600009D003F0F3FD044603F036FE034619469F
:101C7000204604F011F90021002002F071F905F06E
:101C8000CFF9FEF7B7FD164B1B68002B12D00DE005
:101C9000134B1B681B68002B03D0114B1B681B6880
:101CA00098470F4B1B685B680D4A13600C4B1B6811
:101CB000002BEDD10B4B01221A707B6818460C37B4
:101CC000BD4690BD002000E00830024000300240D8
:101CD000C2A507F4CDB5E8B56C090220D8050220ED
:101CE00050060220780902202DE9F041234D6B684F
:101CF00023B10EF081FBAB68984204D00EF0D4FB08
:101D00000EF07AFBA8606B680133012B6B6001D089
:101D1000BDE8F0811A4F3B68002B29DD00242646E0
:101D200006E042B33B6801369E4204F17C041FDAB0
:101D30000EF062FB2B681A5990422344F1D17B6864
:101D4000B342E5D0002B10DB2A68C3EB431302EB50
:101D50008308FFF715FC2B68C8F878001C44094B72
:101D6000A06F04341C60FFF793FB7E60BDE8F08138
:101D700000242646E3E71860E1E700BFE007022001
:101D8000940200202C02002010B582B028B9134B19
:101D90001B681C6E14B902B010BD0446FFF7A4FF07
:101DA0002046FEF7EFFF02AB446943F8080D1846E2
:101DB000FFF7BAF81CB902F005FB02B010BD2046CF
:101DC000FEF7E0FF02AC826844F8040D9368984780
:101DD0002046FFF7A9F802F0F5FAEEE72C02002002
:101DE00000B97047014A114600F002B801F0FFFF48
:101DF0002DE9F04784B00C4615460646FFF774FF00
:101E0000002002F045F8DFF8E480D8F80030814681
:101E100030461F6EFEF7B6FF03680090986901F028
:101E2000FFFF314B9C42009B04BFB3F90440B3F960
:101E300006501A895B89ADF80840013A013B2244FB
:101E40002B448246ADF80C20ADF80E30ADF80A50A8
:101E500004F018FA6846FFF767F802A806F00CF8D5
:101E600048BB504601F0DCFFFFF73EFF002F38D0A3
:101E7000D8F800301B6E8BBB04F04EFB3846FEF7E3
:101E800081FF04ACD8F8003044F80C0D1F660068E0
:101E9000FFF7B2FA2046FFF747F804F0A1F803F085
:101EA000C1FF02F08FFA484601F0F2FF02F08AFA11
:101EB00004B0BDE8F0872A462146304600F0A0FC79
:101EC00005F098FE0028CCD02A462146304600F086
:101ED00097FC05F08FFE0028EDD1C2E701F092FFDC
:101EE000CAE701F08FFFDCE701F0FFFF2C020020C2
:101EF0002DE9F04385B00646904699460F46FFF718
:101F0000F3FE1C4A1C4B1268507C53F8204001E041
:101F10002468FCB1E3681A68042AF9D1DB6A01215C
:101F2000204698470546D8B12469A36898470130F0
:101F300018D00C9B0294009301954B4642463946BB
:101F4000304600F0E3FA044602F03CFA204605B0C1
:101F5000BDE8F083FFF716FB044648B1C368DDE730
:101F60000446F1E70C9B054C43F001030C93E0E7BA
:101F70002046ECE72C0200208809022008590108BD
:101F800000B9704710B582B00446FFF7ADFE104BA4
:101F90001B681B6E9C4217D02046FEF7F3FE436978
:101FA000019063B90068FFF725FA01A8FEF7BCFFAE
:101FB0002046FEF703FD02F005FA02B010BD1846F8
:101FC00002F0E6F90198EDE701F01CFFE4E700BF3D
:101FD0002C0200202DE9F04F87B0064692461C46A1
:101FE0008946FFF781FE564B1A68564B577CDB57E4
:101FF000012B384640F3978003F018FC054638461D
:1020000003F05AFC0746002E00F08A8005A904A8B8
:10201000FFF786FD049A059BB6F900C0B6F90200E9
:10202000B6F904E0B6F9061015441F44013D2CEA48
:10203000EC73013F20EAE072029303927545D4BF2E
:10204000C3EB0503C3EB0E038F42D4BFC2EB070201
:10205000C2EB01021D4617460135013704B97C4227
:10206000002D4FDD002F4DDD109B00932A462346A7
:1020700003990298FFF73CFF8046002848D000F003
:1020800099F88742064604D02D4B1B68986C0028AF
:1020900051D1404600F09CF9DFF8ACB03D46002439
:1020A0000EE0AD1BACB95046C847DBF800303444F5
:1020B000FF2003B198474046FFF792FEA74212DD8A
:1020C000AE42EEDD2946404600F062F9AD1B002C21
:1020D000E9D0039B029940461A1900F0A9F940463D
:1020E000FFF752FEDFE74046FFF74AFF002000F00F
:1020F0006FF9B74206D0124B1B68986C10B13321B0
:1021000006F0CEFB02F05EF9002007B0BDE8F08FCC
:102110005046C84702F056F9012007B0BDE8F08FDD
:10212000039602969AE703F02BFB0546384603F028
:1021300051FB074667E7322106F0B2FBA9E700BF73
:102140002C020020840902208008022030B50446B9
:1021500083B098B1FFF7C8FD2046FEF713FE036871
:1021600002AD1B6945F8040D9B68984704F058F8C8
:1021700004462846FEF7D8FE02F024F9204603B0B4
:1021800030BD00BFA0B110B5044682B0FFF7ACFD72
:102190002046FEF7F7FD02AB00F1180443F8040DEA
:1021A0001846FEF7C1FE02F00DF9204602B010BD40
:1021B000704700BF10B5044682B0FFF795FD7CB1B3
:1021C0002046FEF7DFFD02ABB0F90A4043F8040DEC
:1021D0001846FEF7A9FE02F0F5F8204602B010BD41
:1021E000044B1B681C6E002CEAD102F0EBF8204671
:1021F00002B010BD2C0200202DE9F04FDFF888B1AD
:1022000089B0064605273046FEF7BCFD034607A801
:10221000B3F90080B3F90440B3F90290B3F9065062
:102220000793C8EB04040134D3F824A0C9EB0505D7
:10223000FEF77AFE002C05F1010555DD002D53DD7A
:10224000BAF1000F55D104F011FC86427FD04A4B01
:1022500001934FF0010A494640462B462246CDF8ED
:1022600008B0CDF800A000F051F980463046FEF7E6
:1022700089FD0790C0F82480B8F1000F60D0836A10
:10228000DFF8089143F48033836207A8FEF74CFE21
:10229000404600F09DF80590504602F0EBF84046AD
:1022A000FFF770FF354A364B1978136805FB04F2C7
:1022B0009200344C984730462568C9F8006004F015
:1022C00007FC2060304606F0DDF90022104625604C
:1022D000C9F8002002F0CEF8059800F079F83046F1
:1022E000FEF73CFE406AF0B9013F8CD109B0BDE871
:1022F000F08F5046FEF746FD034608A8B3F9045098
:1023000040F8083DB3F90640FEF70EFEA8450FD091
:102310004A464146504600F08BF83046FEF71EFE16
:10232000406A0028E0D000F0BFF809B0BDE8F08FA7
:10233000A145D4D04A464146504600F079F8ECE732
:1023400007A8FEF7F1FD304606F09CF9CCE703F054
:1023500051FA824603F094FA544503DC85427FF734
:1023600076AFA2468542A8BF05462A46514630466A
:1023700005F012FB54466AE7C0A00108A002002045
:1023800084080220A408022008590108302A0220EB
:1023900030B50D4683B028B90C4B1B681C6E14B9C0
:1023A00003B030BD0446FFF79FFC2046FEF7EAFC71
:1023B000B0F90A300190AB42C8BF458101A8FEF7D1
:1023C000B3FD01F0FFFF03B030BD00BF2C020020C1
:1023D000F0B5164F83B00446FFF786FC3B681E6ECF
:1023E000E4B1C6B904F098F82046FEF7CBFC02AD84
:1023F0003B6845F8040D1C660068FEF7FDFF2846A3
:10240000FEF792FD03F0ECFD03F00CFD01F0DAFFA6
:10241000304603B0F0BD01F0F5FCE3E701F0F2FC5B
:1024200001F0D0FF304603B0F0BD00BF2C02002009
:1024300070B50D4682B0164628B91A4B1B681C6E43
:1024400014B902B070BD0446FFF74EFC2046FEF7FB
:1024500099FC36B22DB2C6808580009003F0E2FC74
:10246000009B586930B96846FEF75EFD01F0AAFF8F
:1024700002B070BDFEF786FC009A0190B2F90830F8
:10248000B2F90A20C280838013B10AB10580468068
:1024900001A8FEF749FD6846FEF746FD01F092FFF0
:1024A000E6E700BF2C02002000B9704770B5044673
:1024B00084B0FFF719FC2046FEF764FC014601A832
:1024C000B1F90460B1F906500A894B89019132448F
:1024D0002B44013A013BADF80860ADF80C20ADF893
:1024E0000E30ADF80A50FEF71FFD02A805F0C4FC3F
:1024F00040B12A463146204600F064F905F07AFBE7
:102500000028F6D101F05EFF04B070BD2DE9F04F58
:10251000DFF82C8187B0D8F8004081468A461746FC
:102520001E461299637C11980022FEF7A3FE002834
:102530004DD003699B680546984703F071FE00FB88
:1025400007F48346FEF730FC109B073413F00103B9
:102550004FEAD4043FD0002E2CDD002B42D004FBE8
:1025600006F01830FEF7D2F9034668B30022029253
:1025700018460393FEF706FC024606A8029BA2F843
:10258000049040F8042DA2F806A017815681D4606B
:10259000C2F810B053611560FEF7C6FC129B2B61A8
:1025A000D8F80020039BAB60527CAA61184607B0A4
:1025B000BDE8F08F002C34D1204676428642A8BF79
:1025C000064693B3002ECADC2846FEF713FF002010
:1025D00007B0BDE8F08F0028B8BF0330801000EBD3
:1025E0004000B8E700933A4633465146484601F06A
:1025F0003BFE029004FB06F01830FEF795F9034607
:102600000028B5D128460393FEF7F4FE029B002B69
:10261000DDD01846FEF7D2F9039B184607B0BDE897
:10262000F08F1838B0FBF4F0C7E700933A46334612
:102630005146484601F018FE002E0290DADCC3E74E
:102640002C0200202DE9F04F594C5A4BD4F800C011
:10265000DFF868919CF81150D9F8006053F82540D4
:102660008BB02369002E00F088801746DCF86020CC
:1026700080460D46002A00F08580E2681268072A2D
:1026800078D04D4A9A1AB2FA82F25209002A71D0D1
:102690004046FEF777FB03460AA8B3F908B040F8B6
:1026A000083DB3F90AA0DB680593FEF73DFC404BFB
:1026B00018680BEB0504B0F90C30013CE41AB0F9D2
:1026C0000830002CCCBFC4EB0B045C469D42BDBF60
:1026D000591B641A1D460021002C50DD0AEB07032C
:1026E000B0F90EE0B0F90A000791013BCEEB03030D
:1026F000002BC8BFC3EB0A0AB842C5BFC31BC3EB5C
:102700000A0A00230746BAF1000F069337DD404658
:10271000FFF738FD264B07991A68069BD2F860C070
:1027200003FB0B1100EB8106BCF1000F30D06046BB
:10273000FEF728FBB0F90430D0F80C800AAAED1A95
:10274000B0F9063042F8040DAD001835FF1A08FB49
:10275000075707441046FEF7E7FB87B1059B019337
:10276000CDF80080D9F8005053462246314638460D
:10277000A84704E03A46294640460CF005FD0BB058
:10278000BDE8F08FE2681268B2FA82F252097DE782
:10279000507CDFF82CE0CDF804A04FEA8B020292C7
:1027A000009433463A462946DEF80040A047E6E763
:1027B0002C020020880902200859010894090220EF
:1027C000900902202DE9F04182B00F46904606465E
:1027D000FEF7D8FA036802ACDB6844F8040D162152
:1027E0005B6A0020984705462046FEF79DFB1DB119
:1027F000424639463046A84702B0BDE8F08100BFE6
:102800002DE9F04FA1B00D9110B921B0BDE8F08FC6
:1028100092460746FEF7B6FA20AB446943F81C0D12
:102820001846FEF781FB3846FFF790FC082805465E
:1028300002DD002C00F0D98001234FF0000B384658
:102840001F930A93CDF878B0FEF79CFA0168DFF881
:10285000688409690446D8F80000E3684D68B4F953
:1028600008100F9320AE23691491407CB4F90A102C
:10287000099346F8144DD4F814901691FFF7D0F848
:10288000D8F800100890487CFFF798F904463046C5
:10289000FEF74AFB099A0A9B082A40F2A080102AF8
:1028A00013468CBF04230223CDF828B00E93A54213
:1028B00000F0AC81D8F80030587CFFF777F9149B12
:1028C00006469800FEF722F8129000289DD0384660
:1028D000FFF758FC0746B9F1000F00F0F5804846B5
:1028E000FEF750FA169B1C90002B40F38B810023BF
:1028F0000C930F9BCDF840A0FB1815931DAB1193C3
:102900004FF001081946836800221D925B690C9AFA
:102910009847159B0F9A9B1A0B93149B834204466E
:1029200000F03181099B012B00F0F280002845D096
:102930001AAB13931298FEF725FA099B1A90082BED
:1029400007461D9A40F2D4800E9B0B99A34602FBCA
:10295000031A81463AF8020BA847B047BBF1010BB6
:1029600049F8040BF6D1089B1F2B04D838461A46A9
:10297000214601F095FD0A9A059200220392089AD9
:102980001D9802920D9A1A9B1099049310440123EA
:102990002246CDF80480CDF8008002F021FC139887
:1029A000FEF7C2FA1C981D9B8268119957690C9A10
:1029B0001C441D94B84704460028BBD1159A0F99B2
:1029C0000C9B0A441592109A01321092169A013308
:1029D0009A420C9300F016811C98119993E7012AF2
:1029E0006ED11EAB0E920A9361E73846FEF7CAF924
:1029F00020ABB0F9088043F8100D02460168B0F929
:102A00000A00089018460E69D2F80CB009920E938D
:102A1000FEF78AFAA848A94900687368407C0C93BD
:102A200051F820100C6923680A93FEF7F9FF082873
:102A3000099A40D910288CBF2023102309938CBFFA
:102A40004FF004094FF00209A64200F02D82202D1C
:102A500000F09E81102D7FF4D8AE08FB09F0FDF741
:102A600055FF109000283FF4D0AEFEF78BF91E9072
:102A70003846FEF787F91C90236900F118020B9283
:102A8000002B00F022827369002B00F01E82B0F947
:102A900008008000FDF73AFF0F90002840F069829F
:102AA0001D900E98FEF740FA1EA8FEF73DFA10980A
:102AB000FDF784FFA9E6082309934FF00109C3E756
:102AC0000E93CDF828B0F2E60A9B05930F9B039373
:102AD0000124099B04900293149A169B0D9801946B
:102AE0005146009402F07CFB1298FDF767FF8CE6DC
:102AF0000E9B0B99A14602FB031B82461BF8010BA0
:102B0000A847B047B9F101094AF8040BF6D12AE702
:102B100000283FF453AF17960C9F0A9EDDF84090B3
:102B2000DDF834A0DDF844B01395DDF874E00B9DBA
:102B300005960EF0070006900AEB0E00BEF1000F9E
:102B4000B8BF0EF1070E05EBEE0E0F9DCDF810E0AD
:102B50002246012349460395CDF80880CDF804802C
:102B6000CDF8008003F04EFA1C981D9B82681C442F
:102B7000594653691D943A46984704460028D4D1D3
:102B8000139D179E1AE71298FEF7FCF8099B1A90FE
:102B9000082B8146149FDDF82CA0044629D93AF869
:102BA000020BA847B047013F44F8040BF7D1089B3C
:102BB0001F2B04D848461A46149901F071FC0A9A52
:102BC000059220AB1A460D9852F8183D049314460E
:102BD00000220392089A0292CDF80480CDF800807A
:102BE0000123149A109902F0FBFA2046FEF79CF993
:102BF000E4E61AF8010BA847B047013F44F8040B7C
:102C0000F7D1D4E71CA8FEF78FF96DE73846FFF738
:102C1000B9FA0746B9F1000F00F0A9804846FEF75F
:102C2000B1F8169B1C90002B40F39D8000261DAB35
:102C3000CDF82CA0DDF834A0B14601259846836874
:102C4000CDF874905B69324641469847149B8342A5
:102C500004462DD0099B012B55D008B30B9B03EBE9
:102C6000060B0A9B1D9805930E9B0F9A039203FB7C
:102C70000073099A02920493224650440123594654
:102C80000195009502F0ACFA1C981D9B82681C44CB
:102C9000414653691D943246984704460028E0D1C6
:102CA0000F9B01361F44169BB3425CDD1C98C6E7A0
:102CB0000897B3461F4604E02C0200208809022032
:102CC000A3461C9883680BF101045B6922464146C8
:102CD00098478742F4D0099902910B990A9A089F64
:102CE0000592C6EB0B030F9A049731440F9E039293
:102CF000013301950095149A504606FB037726464A
:102D000002F06EFACFE70028CAD00B9B089603EBBF
:102D1000060BDDF874E00A9805900EF007000690A7
:102D20000AEB0E00BEF1000FB8BF0EF1070E07EB65
:102D3000EE0E0F9ECDF810E0224601235946039671
:102D400002950195009503F05DF91C981D9B826822
:102D50001C44414653691D94089A9847044600282C
:102D6000D7D1089E9CE71CA8FEF7DEF84DE50A9B2C
:102D700005930F9B03930124099B04900293149ADB
:102D8000169B0D9801945146009402F029FA3CE5F7
:102D900009FB08F0FDF7BAFD0B9000283FF435ADB4
:102DA000FDF7F0FF1E903846FDF7ECFF1C902569FB
:102DB00000F1180745B34FEA880B012619E0B9F175
:102DC000040F19D0B9F1010F16D000221E990998ED
:102DD00002900123059203920491019651460096B8
:102DE00042460D989A4402F0FBF9089B013B089378
:102DF00050D0B9F1020FE2D138461E9925694B46F1
:102E00004246A8475F44E0E70C950126089C14E081
:102E1000B9F1040F00F08D81994500F035810C9DCA
:102E200005950395099D02951E9D019600960495B2
:102E300002F0D6F9013C2DD0DA460123B9F1020F98
:102E4000514642460D980AEB030BE1D108944FEA34
:102E500088050124DDF87890BB4646465BF8040BF4
:102E60000A9B9847013E29F8020BF7D11E9B099A4D
:102E7000029204935146012305960396019400940F
:102E800042460D989A4402F0ABF9089B013B2F444F
:102E90000893DFD10E98FEF747F81EA8FEF744F816
:102EA0000B98FDF78BFDB0E4012418320026049244
:102EB000CDF80CB00295089B0D98059642465146F8
:102EC0000194009402F08CF99FE400250126089CEF
:102ED00016E0B9F1040F00F0FC80994500F0A480E1
:102EE0001E9F0897099F0297089F059503950196D5
:102EF0000096049702F074F9013C3FF4D2ADDA4633
:102F00000123B9F1020F514642460D980AEB030B1B
:102F1000DFD14FEA48060C9D08940A9F0A960124C7
:102F20001E9EDDF82CB0C1463BF8020BA847B847FF
:102F3000B9F1010926F8020BF6D10B9E1E9A099BE6
:102F40000293B6460A9E049201235146B644CDF838
:102F50001490CDF80C900194009442460D98CDF851
:102F60002CE09A4402F03CF9089B013B0893D7D12E
:102F700097E5FDF707FF1D9000283FF492AD4FEA5B
:102F8000480337460A9301250C940B9E19E0B9F1CA
:102F9000040F30D0B9F1010F28D000221E990998F2
:102FA00002900123059203920491019551460095E8
:102FB00042460D989A4402F013F9089B013B08938E
:102FC0002BD0B9F1020FE2D1DDF878B01D994B4654
:102FD000424630467C69A0470A9C1D9826440C9CBA
:102FE00059464B4642462469A047D6E7DDF878B0FB
:102FF0001D990223ECE730461D997C69DDF878B015
:1030000002234246A0470C9C1D9824694B46594612
:103010004246A0470A9B1E44BFE71DA8FDF784FF58
:103020000F98FDF7CBFC3CE508FA03F60C9D0894DD
:103030000A9F0A964C461E9EDDF82CB0C1463BF80E
:10304000020BA847B847B9F1010906F8010BF6D100
:103050000B9E1E9A099B0293B6460A9E0492012378
:103060005146B644CDF81490CDF80C9001940094DC
:1030700042460D98CDF82CE09A4402F0B1F8089B36
:10308000013B0893D7D10CE508944FEA88054C46DC
:10309000DDF87890BB4646465BF8040B0A9B9847E0
:1030A000013E09F8010BF7D11E9B099A0292049385
:1030B00051460123059603960194009442460D98CB
:1030C0009A4402F08DF8089B013B2F440893DFD10E
:1030D000E0E64FEA48060C9D08940A9F0A960124F0
:1030E0001E9EDDF82CB0C1463BF8020BA847B8473E
:1030F000B9F1010946F8040BF6D10B9E1E9A099B03
:103100000293B6460A9E049201235146B644CDF876
:103110001490CDF80C900194009442460D98CDF88F
:103120002CE09A4402F05CF8089B013B0893D7D14D
:10313000B7E408944FEA88050124DDF87890BB468F
:1031400046465BF8040B0A9B9847013E49F8040B7E
:10315000F7D11E9B099A02920493514601230596CA
:1031600003960194009442460D989A4402F038F870
:10317000089B013B2F440893DFD18BE6184B194A7B
:10318000196A70B500290CBF0646002682B0915717
:10319000012923DD03EB86021469651C1561ECB976
:1031A000956853F8263026462C4600E01C4601342C
:1031B0008C420ABF002494609660A342F6D0FEF7CA
:1031C000E1F9019050B1C36821215B6A01A89847D9
:1031D000034618B1224629460198984702B070BDAF
:1031E000C00602208409022030B50C4D6B6A83B002
:1031F000044653B12A6A0A4B002A18BF0024012949
:10320000B8BF0121195503B030BD2846054B40F821
:10321000243F019101F01EFF0199EBE7C006022057
:1032200084090220A9D90008094B1A6A002A18BF8C
:10323000002003EB800210B49469002C04DB43F8F7
:1032400020104FF0FF3393615DF8044B704700BFCF
:10325000C0060220164B174A196A30B500290CBF68
:103260000446002483B01257012A05DD03EB8404D1
:103270002369013B23610BB103B030BD054601203A
:10328000A840FDF7E5FF2846A568A561FEF77AF995
:1032900001900028F0D0C36822215B6A01A89847FA
:1032A00003460028E8D029460198984703B030BD6E
:1032B000C00602208409022020B321B322B3B2F950
:1032C00000C0B1F90630F0B5B1F90050B2F902E032
:1032D000B1F90240B2F90470B2F90660B1F9042004
:1032E0006545A8BF6546A6457146A8BF2146BA42B6
:1032F000B8BF3A46B342B8BF3346058041808280AA
:10330000C380F0BD704711460B684A684260036095
:10331000704700BF78B170B4068844888588C38838
:1033200089B292B20E44144429440680448070BC91
:103330001A448180C280704770B4104D2B686A684F
:10334000934204460FD093E807000D4E84E807002F
:10335000B34214BF0C333C3B2B60207A003018BFC3
:10336000012070BC7047074A934206BF3C3393E884
:10337000070013E9070084E80700EEE730020020A9
:1033800028070220EC060220034B09CBC01AB0FA32
:1033900080F04009704700BF30020020F0B5374E82
:1033A000336D85B00446002B55D094E80700344CAB
:1033B000344DF36C256001AD85E807000BB128465C
:1033C0009847314FD7F800E07B689E4538D0B3422C
:1033D0002A4C9DF80C2035D013F8041C914212D0D1
:1033E0003C3495E80700A34283E807001BD00C3368
:1033F0009E457B601BD0B36C0BB12846984700F00C
:10340000CFFD05B0F0BDA3F10C018E45E8D0A1427F
:103410002ED03C340C39097A9142E2D1B34214BF28
:103420000C3B2346DDE7154B7B609E45E3D1174BF4
:103430009E4514BF0EF10C03AEF13C033B60DAE78E
:10344000124CCEE796F8441091420BD095E8070055
:1034500086E80700CBE730460D4B40F8503F01F0BF
:10346000F9FDA2E706F13C04A645EFD02146D1E7DD
:1034700001F13C0403F13001CDE700BFEC0602206E
:103480003C2A0220ED6A00083002002028070220B2
:10349000F1D9000810B5FEF727FC0D4A13685168F2
:1034A0008B420FD00B4CA34293E803004FF0010472
:1034B00014BF0833503B136004F016F900F082FF8C
:1034C000204610BD002400F07DFF204610BD00BF47
:1034D0008C020020D4070220F0B5164C059E25680A
:1034E000069CB5F908E0B5F90C707045B8BF704698
:1034F000BA42A8BF3A4690421ADCB5F90A70B5F94B
:103500000E50B942B8BF3946AB42A8BF2B468B42DA
:1035100003DAF0BD25682DB12C46E5682D6835F03D
:103520000405F7D106940596BDE8F04002F032BBE1
:10353000F0BD00BF2C020020B0F90220B1F9063026
:103540009A4214DCB1F90220B0F906309A420EDC3E
:10355000B0F90020B1F904309A4208DCB0F9040057
:10356000B1F900308342CCBF002001207047002019
:10357000704700BF08B5034B014674221868FCF77A
:10358000BEFE08BD2C02002000B9704730B50446CD
:1035900083B0FEF7A9FB20460BF0EEFC2046FDF7BA
:1035A000F1FB02AD45F8040D0068FDF7C7FF2846A2
:1035B000FDF7BAFC2046FDF7E5FB01900068FDF73A
:1035C0001DFA019BD868FDF7F9F9019BD869FDF751
:1035D000F5F92846FDF7A8FC2046FDF7EFF900F0C5
:1035E000F1FE03B030BD00BF00B970472DE9F04FC8
:1035F000ABB004460D4616461D921C91FEF774FBB7
:103600002046FDF7BFFBB0F90430046827909D42C7
:10361000129400F083810020FEF7DAFE9F4B129A8D
:103620001B689269597C20900846279D219182420F
:1036300018BF5A74B5F9043007931846B5F9081045
:10364000B5F906301992B5F90A2013931C46091AE8
:10365000121B0E460B911A92214614463246013235
:103660002B8A1B92224601329B071E9240F1378122
:103670001C9B6A6903921B1A1D9A1493002BA2EBE0
:10368000010440F3BD810993DDF86C9000234FF0F5
:10369000010A1193002C40F3BE811E9B1693012357
:1036A000179415934FF0000B129E7D4BB0691B567B
:1036B000012B40F39F810023ADF8A230ADF8A0307C
:1036C00002F0B4F8431EB069ADF8A43002F0F4F88B
:1036D0000138ADF8A6002798524600F1140105F014
:1036E00023FF2290002800F0F9802798524600F12D
:1036F000140105F019FF2490002800F0EA80279BB0
:10370000D868002840F09781169A5A4500F0DD806D
:103710001B9B119923909A000BFB031305EB83036A
:103720000E93C4EB0B030C93139B1599234418932E
:103730004FEA8A0301FB02F204935B461F92D346D1
:10374000C8469A46179B534500F309811A9B534577
:10375000B4BF002301231093139B119C53440F9378
:10376000189BA0455344089300F0A0801498079B31
:103770000E9D0344C0EB04090A935FE00B9BA34238
:103780006CDB109B002B69D0BDF9A020BA4240F33E
:10379000778200230593B9F1000FC0F2CC800C9B17
:1037A000002BC0F2C8801A4649460398FEF788F8F5
:1037B000030E40F0C080BDF9A030069A9A420FDB9C
:1037C000BDF9A2200F998A420ADCBDF9A42006990E
:1037D0008A4205DBBDF9A6200F998A4280F2A480B7
:1037E0009F4223DBBDF9A230089883421EDCBDF95D
:1037F000A430BB421ADBBDF9A630834216DB30464B
:10380000284B239E1B6846F07F41FF229847199A58
:10381000254B53F822301B691B689847229B009365
:103820000246129B089938460AF0D6FD059B2B628A
:103830005C44049BA0451D44D94437D052462146E0
:103840000398FEF73DF8030E0646F1D0079BE318F8
:1038500006930A9B1F19099BA3428FDDBDF9A03077
:10386000BB421A466ADCBDF9A23008998B424FF080
:10387000000371DC0D93BDF9A430BB4204DBBDF93C
:10388000A630089A93426DDA002305930D9B002B16
:1038900081D1BDF9A02013468FE700BF2C02002084
:1038A000840902203C020020880902200E9B1F99F7
:1038B000159A0B440E930C9B1946169B9244114487
:1038C00053450C917FF43EAF279B186824990AF06A
:1038D000E5F9279B229918680AF0E0F9279D1C9BBF
:1038E0001B9A1D99AB801E98E9801344013B4A1E28
:1038F00002442B81199B6A81219A1946914202D078
:10390000A64B1B685A742098FEF762FD27A8FDF7A6
:103910000BFB00F057FD2BB0BDE8F08FB0F906307F
:103920009E427FF478AEF1E7249B2A6A06980093C2
:10393000129B0AF051FDBDF9A03051E7069A93425F
:1039400007DCBDF9A2200F99914202DB002205920B
:103950003BE70023059369E7059313462DE7002312
:103960001093F9E6279BB3F90420BA422DDCB3F992
:103970000810B94229DBB3F906E00898864524DC33
:10398000B3F90A10814220DB58692593E8B1BB1ACC
:1039900019460593089BCEEB03031A462393FDF7C4
:1039A0008FFF030E259B10D0B3F90410B3F9082044
:1039B000521A239902FB011205990A4403EB820370
:1039C0001B6A059343F07F400BE0129B18680028A8
:1039D0002DD0C368089A5B6939469847059040F036
:1039E0007F40199A6E4B53F822301B695B689847E9
:1039F00023904BE7F368304628A91B6B98476AE68B
:103A000000220992149A119633464FF0FF3913445D
:103A1000CA460B933EE64FF0FF331A9A169315935E
:103A2000002317931346234493461A933CE60590CC
:103A30004FF07F40D5E7FDF7A5F9169B26905B4533
:103A400000F0A6801B9B11999A000BFB031305EB5A
:103A500083030D93C4EB0B030C93139B1599234421
:103A600001FB02F218934FEA8A0310920493079A1B
:103A7000149B1344C8460A93D946179B4B4500F341
:103A8000AF801A9B4B45B4BF002301230F93139BB8
:103A90004B440E93189B4B440893119B984569D057
:103AA000149A0D9D1C46C2EB030B4A46214603980F
:103AB000FDF706FF0646002856D0079BE31806933D
:103AC0000A9B1F19099BA3426CDC0B9BA34269DB79
:103AD0000F9B002B66D0BDF9A030BB42D8BF01239D
:103AE00000F3CB80BDF9A22008998A4207DCBDF91A
:103AF000A420BA4203DBBDF9A6208A427DDA002267
:103B0000059263B1BBF1000F62DB0C9B002B5FDB06
:103B10001A4659460398FDF7D3FE002858D1BDF93F
:103B2000A030069A9A420EDBBDF9A2200E998A4275
:103B300009DCBDF9A42006998A4204DBBDF9A62060
:103B40000E998A423DDA9F420CDBBDF9A2300899FA
:103B50008B4207DCBDF9A430BB4203DBBDF9A630C4
:103B60008B4240DA059B2B625444049B44451D4420
:103B7000D3449AD10D9B1099159A0B440D930C9B2D
:103B80001946169B9144114499450C917FF475AFE9
:103B900026A8FDF7C9F9279B97E600BF2C02002055
:103BA00088090220BDF9A030BB4217DD069A934276
:103BB00011DCBDF9A2200E9991420CDB0022059286
:103BC000B7E7249B2A6A06980093129B0AF004FC2C
:103BD000BDF9A030B7E700230593C3E7002381E7D1
:103BE00000230F9353E7269B53F82620229B009334
:103BF0003846129B0AF0F0FBB4E7279A0592B2F917
:103C00000420BA420DDC0598B0F90810B94208DB6F
:103C1000B0F906E008998E4503DCB0F90A00884245
:103C20000DDA129A106800283FF469AFC2681F933A
:103C300039465369089A98471F9B059061E7259379
:103C4000BB1A1F93CEEB01021946059B23925869BC
:103C5000FDF736FE259B0028E3D00598B0F9041047
:103C6000B0F90820521A239902FB01121F990A4445
:103C700000EB8202126A059243E70023059341E7B5
:103C8000BDF9A230089A93423FF783AD01230D930B
:103C9000F1E500BF00B9704730B5044683B0FEF7C8
:103CA00023F82046FDF76EF8038A00909B0707D59E
:103CB0006D462846FDF738F900F084FB03B030BDAF
:103CC0002046FDF75FF802AD0346006845F8043D65
:103CD000FDF792FB2846FDF727F96846FDF724F922
:103CE00020460AF04FFF2046FDF74CF8038A00906B
:103CF00043F002036D460382DBE700BF2DE9F04786
:103D0000048882B0BDF82860002C4FD04488002C75
:103D10004CD0C468002C46D0A468002C46D017466E
:103D20008846054606F0010200213048FDF7A2FA58
:103D30008246002847D06B88B5F8009003FB09F94C
:103D40004FEA8909FDF7D0FF09F12000FCF7ECFDEF
:103D5000044678B3CAF80800FDF714F829886A8881
:103D60000346013902A8013A41443A4440F8083D6B
:103D70001E825D61A3F80480DF8019815A81C3F837
:103D800000A0FDF7D1F8EB682BB105F10C0120463E
:103D900005F072FCA8B9B30717D400F013FB204656
:103DA00002B0BDE8F087C588202DB8D0204602B00B
:103DB000BDE8F0875046FDF71DFB00F003FB2046F1
:103DC000F5E700F0FFFA0020F1E72046FCF7DAFF04
:103DD00002AD0346006845F8043DFDF70DFB28469B
:103DE000FDF7A2F820460AF0CDFED6E718820108BA
:103DF00008B5034B74221968FCF781FA08BD00BFAF
:103E00002C02002008B5FDF76FFF01F0BDFF02F0A6
:103E1000E7F802F037FABDE8084000F0D3BA00BF77
:103E200070B50D4D2B6804465E7CFDF75DFF012CDF
:103E300003D900F0C7FA304670BD2046FDF7A2FB5B
:103E40000028F6D02B685C74FFF7DCFF034B1C6086
:103E500000F0B8FA304670BD2C020020D4290220B0
:103E600010B50446FDF740FF204601F0AFFFBDE866
:103E7000104000F0A7BA00BF10B50446FDF734FFAC
:103E8000204601F0DDFFBDE8104000F09BBA00BF06
:103E900010B50446FDF728FF204602F003F804465B
:103EA00000F090FA204610BD38B50446FDF71CFF1F
:103EB000044B1B68DD6904B1DC6100F083FA28461D
:103EC00038BD00BF2C020020024BDA69D8611046D1
:103ED000704700BF4C070220014B1860704700BFBD
:103EE0001C020020024B1A6818601046704700BF81
:103EF0003C020020024B5A6858601046704700BFD1
:103F00003C02002070B504460D461646FDF7ECFE57
:103F100032462946204601F0E5FF044600F052FAF9
:103F2000204670BD70B504460D461646FDF7DCFE12
:103F300032462946204601F0EFFF044600F042FADF
:103F4000204670BD38B504460D46FDF7CDFE294626
:103F5000204602F02DF8044600F034FA204638BD21
:103F600038B505460C46FDF7BFFE094A094B1268F5
:103F70000949507C094A53F820000D80C368148019
:103F8000294622461C6AA047BDE8384000F01ABA0C
:103F90002C020020880902206E09022070090220EC
:103FA000024B1B6803B11847704700BFF40702209B
:103FB000024B1A6802B91860FFF7F2BF80070220AF
:103FC00000B970472DE9F041DFF8C08082B00546A6
:103FD000FDF78AFED8F80040A54242D06E461CB9D3
:103FE00017E0FCF7A1FFA4B12046FCF7CBFE8468E4
:103FF0000090A5423046F4D12846FCF7C3FE009B52
:104000008268019001A89A60FCF78EFF3046FCF7A9
:104010008BFF2846FCF7B6FED8F804400090A54276
:104020001A4B2CD001AF1CB910E0FCF77DFF6CB12E
:104030002046FCF7A7FE44680190A5420346384697
:10404000F3D1009A52685A60FCF76EFF3046FCF7D5
:104050006BFF2846FCF7B2FC00F0B4F902B0BDE8F3
:10406000F0812846FCF78EFE02AF836847F8040D06
:104070003846C8F800306E46FCF756FFC9E742687C
:104080005A603046FCF750FFE3E700BF54080220B7
:1040900030B583B018B90124204603B030BD0446C2
:1040A0000D46FDF721FE2046FCF76CFE02AB82892F
:1040B00043F8040D2A42184614BF01240024FCF7DB
:1040C00033FF00F07FF9204603B030BD30B50A4B16
:1040D0001C68002383B003605CB105462046FCF7F2
:1040E00051FE02AB026943F8040D2A601846FCF742
:1040F0001BFF204603B030BD5408022070B50023DA
:1041000082B00B6018B90446204602B070BD0D465F
:10411000FCF738FE8468019001AE2CB93046FCF7FC
:1041200003FF204602B070BD3046FCF7FDFE20467E
:10413000FCF728FE036901902B60EFE7F8B5084E05
:104140000468336805461B6820469847336807466D
:104150005B6820469847204428603846F8BD00BF79
:104160009C090220F8B569B1074F05460C460026A8
:104170003B6828465B689847013C05440644F7D1F4
:104180003046F8BD0E46FBE79C0902202DE9F843B6
:10419000089C054689469846AB6849465F682846AC
:1041A0004346561CB847013C3246F5D1BDE8F8837A
:1041B000F8B5B0F90040B0F904500C1BAC422BDA52
:1041C000B0F9021005692344013B521AE61005FBC1
:1041D0000265DF4307F00707FF21143504F00704E9
:1041E00001FA07F241FA04F4D6EBE306D7B2E4B2DF
:1041F00000EB0502435D10D0013E1C43002E02F18E
:104200000103445505DD18463246FCF7A2F8034683
:1042100033441C783C431C70F8BD3C401C4344555F
:10422000F8BD00BF70B4B0F902600369B0F9004096
:10423000921B03FB02F2091B143202EBE102802500
:10424000835C01F0070145FA01F11943815470BC08
:10425000704700BF03460021B3F906201B691430E4
:1042600003FB02F2FCF775B82DE9F04302F10F04ED
:10427000241164001E4603FB04F383B0804603F15F
:10428000140017468946FCF74FFB0546B8B1FDF709
:104290002BFD2846FCF776FD014602A80A4A40F8A5
:1042A000041D01238F80CE800C61A1F80080A1F84D
:1042B00002908A608B81FCF737FE00F083F8284675
:1042C00003B0BDE8F08300BF34A10108B0F90630A7
:1042D00093423CDDF0B50D68B0F90470BD4234DAAC
:1042E00006694FEAE50E06FB02E6143605F0070301
:1042F000845D04FA03F3013F013613F0FF03CEEBB4
:10430000E702304408D122B310F8013B083525F00C
:104310000705013A002BF6D01E0634D45B00DBB251
:104320001C0605F10105F9D55F062C4605D55B0095
:10433000DBB25E0604F10104F9D404F00703072B95
:1043400009D0621B501C0D60F0BD0020F0BD0020A4
:1043500070471046F0BD002AF3DD0678FF2E00F10D
:1043600001070DD1831803E017F8016BFF2E07D169
:10437000BB4204F10804F7D1E3E77600F6B201345A
:104380003306FAD4DDE7FF2B08BFEC1DD5D0CBE711
:1043900030B5054683B0FDF7A7FC2846FCF7F2FCD4
:1043A00002AB848943F8040D013C24B28481184691
:1043B000FCF7BAFD14B92846FCF700FB00F002F840
:1043C00003B030BD034A5368013B536003B17047EB
:1043D0000CF07AB8E0070220F0B583B0C0B9224CE7
:1043E00023690546CBB1E0681F4E18B91F4B18680A
:1043F000F060D8B123681C4F002623B363681A4FBE
:10440000C3B115B1A368184C2BB3304603B0F0BD4F
:10441000154C236901AD002BE5D12046144B40F823
:10442000143F0123236100F015FEDCE701F0B8F929
:10443000F060DFE7F8688000FCF7EAFA002808BFC0
:1044400001267860DDE78000FCF7E2FAB0FA80F63A
:1044500038607609D2E7E0688000FCF7D9FA0028D6
:1044600008BF0126A060D0E74C0702207409022093
:1044700009DA000810B5094B1C7838B902464FF02C
:104480007F401A7000F060FE204610BD012200201F
:104490001A7000F059FE204610BD00BF81090220AD
:1044A000082A10B40EDD102A1CDC00EB4101034683
:1044B00050F8042B23F8022B9942F9D101205DF822
:1044C000044B7047022A11D0042A00F09080012A80
:1044D0003CD00144034650F8042B03F8012B9942C9
:1044E000F9D1EBE700205DF8044B704700F11002B2
:1044F00052F8103C01294FEA8313DBB223D052F863
:104500000C4C240104F03004022943EA04031AD0BD
:1045100052F8084CA40004F00C04032943EA0403F5
:1045200011D052F8044C04F003042343043900F87A
:10453000013B02F11002C1D052F8103C01294FEAB0
:104540008313DBB2DBD103700120B8E700F1200256
:1045500052F8203C01294FEAC313DBB2F3D052F8E2
:104560001C4CA40104F04004022943EA0403EAD0ED
:1045700052F8184C640104F02004032943EA0403B0
:10458000E1D052F8144C240104F01004042943EA49
:104590000403D8D052F8104CE40004F008040529B4
:1045A00043EA0403CFD052F80C4CA40004F00404F6
:1045B000062943EA0403C6D052F8084C640004F00C
:1045C0000204073943EA040302F12002BBD052F887
:1045D000244C04F00104234300F8013B52F8203C32
:1045E00001294FEAC313DBB2B9D10370ACE700F184
:1045F000080454F8083C01294FEA0313DBB212D037
:1046000054F8042C02F00F021343023900F8013B66
:1046100004F108043FF452AF54F8083C01294FEA72
:104620000313DBB2ECD103705DF8044B084670470E
:10463000082A2DE9F0410C461F6805460CDD102ABA
:1046400021DC1E69002E00F09180224629460223BB
:10465000B0470120BDE8F081013A072A10D8DFE811
:1046600002F004510F770F0F0F9A00F1200858F84D
:10467000200CB847012C4FEAC010C6B206D12E70EC
:104680000120BDE8F0810020BDE8F08158F81C0C45
:10469000B847022C46EA8010C6B2F0D058F8180C81
:1046A000B847032C46EA4010C6B2E8D058F8140CBC
:1046B000B847042C46EA0010C6B2E0D058F8100CF7
:1046C000B847052C46EAC000C6B2D8D058F80C0C42
:1046D000B847062C46EA8000C6B2D0D058F8080C7D
:1046E000B847072C46EA4000C6B2C8D058F8040CB8
:1046F000B847083C40EA060005F8010B08F120081D
:10470000B5D1BDE700F1100858F8100CB847012CDE
:104710004FEA8010C6B2B2D058F80C0CB847022C41
:1047200046EA0010C6B2AAD058F8080CB847032CC5
:1047300046EA8000C6B2A2D058F8040CB847043C40
:1047400040EA060005F8010B08F11008DCD197E7F4
:1047500000F1080858F8080CB847012C4FEA00107F
:10476000C6B20CD12E702046BDE8F081861E55F8E9
:10477000040BB847013C26F8020FF8D180E758F83F
:10478000040CB847023C40EA060005F8010B08F1AA
:104790000808DFD174E71E693EB12846224601238E
:1047A0002946B0470120BDE8F0816E1E55F8040B84
:1047B000B847013C06F8010FF8D161E730B51B4D51
:1047C000EB6F85B00BB105B030BD194B0FCB6C460C
:1047D00007C404A924F8023B1B0C237011F8102D08
:1047E0000123EB6705F1800404F8012B11F8012F78
:1047F000002AF9D1FDF7AAF9234610F8012B194632
:1048000003F8012B0278002AF7D14A700BF0E4FD7F
:10481000FCF740F80CF068FD064B0748C5F89430EB
:1048200005B0BDE8304000F015BC00BFD80502203F
:10483000585901084DD900086C060220F0B52A4BE2
:104840001B6883B004460D467BB1002003F014FBC7
:1048500048B16E4632462946204604F0BFFE03F0BA
:10486000C9F90028F6D103B0F0BD106851681F4F98
:104870006B4603C33B68BDF80000B3F84CE0B3F8E7
:104880005060BDF80410BDF80220BDF80630704439
:10489000324433447144ADF8000068466E46ADF8CA
:1048A0000410ADF80220ADF8063003F0E5FA50B977
:1048B0003B68598C9A8CDC6C186D091B121A598450
:1048C0009A8403B0F0BD3B68BDF80010BDF802202B
:1048D00059849A8429463246204604F07FFE03F02C
:1048E00089F90028EFD1E3E7980902202C02002083
:1048F0002DE9F04F964C8FB01D462469199B059009
:104900000026079193461E60002C00F0F080904B2B
:10491000DF681C462FB98F4B1F68E760002F00F03F
:10492000F0808B4B8A4E1B680293002B00F0FF80B7
:10493000874B874C5B680393002B00F0EA80864A24
:10494000864B1268507C53F8203008931B690D93F6
:10495000FDF766F8804B04901B68587CFDF72EF934
:104960007F4B0B90AF42A8BF2F46984200F0CE80FD
:104970007C4BC31A18BF01230A93059B3B440C933D
:104980000026013B09933446BA465F46189B57F808
:10499000040B98474FEA1068B8F1FF0F814647D0E3
:1049A000002C2BD16C4B059A1B68B3F90830951974
:1049B000AB4259DD5A1B069214461D46029B0799CD
:1049C000099A344403EB8404089B019300940B463A
:1049D0002846FEF781FD049B172B7EDD0A9B002BEA
:1049E00044D00C9B06965D1B2E460B9D2068A84765
:1049F000013E44F8040BF9D1069E0124544BDD69B5
:104A0000002D38D15FFA88F2B8F1000F1AD1029B5D
:104A1000039A53F8263042F82630BAF1010A06F11B
:104A20000106BB46B1D1039C20460FB0BDE8F08F14
:104A3000199B039A1B6842F82600199A43F0010358
:104A40001360EAE70299484B51F826101B6849F0B9
:104A50007F409847199B039A1B6842F82600199AD1
:104A600043F001031360D8E70694A7E7384BDD69EC
:104A70000124002DC6D0029BB60033441C46039B84
:104A80001E443246214653465846A8475746ABF186
:104A9000040207E023683360013F04F1040406F1D7
:104AA00004060FD052F8043F13F07F4FF2D0216874
:104AB00011F07F4F08BF3360013F04F1040406F199
:104AC0000406EFD1199B039C1B68199A43F001035C
:104AD000204613600FB0BDE8F08F1A46069B2046B3
:104AE000C3EB0A010D9B00F043F8012486E7184848
:104AF0001E4B174A40F8143F0123136100F0AAFA35
:104B000005E700F04DFE0746E0600AE700230A9340
:104B100033E7E0688000FBF77BFF039060600028CC
:104B20007FF40DAF002420460FB0BDE8F08FB80031
:104B3000FBF76EFF306008B10290F9E67468002C54
:104B4000F0D1F0688000FBF763FF70606CE700BF96
:104B50004C070220740902202C0200208809022040
:104B6000D15A0008C95A00083C02002009DA00089E
:104B700000292ADD082A2DE9F04704465E6803DD96
:104B8000102A0CDDBDE8F087531E072B05D8DFE89F
:104B900003F02A53047C0404041DBDE8F0875D691A
:104BA00035B10A46AC4621460223BDE8F0476047CE
:104BB00049000C446518671A34F8020DB047BC422E
:104BC00045F8040DF8D1BDE8F087704765186F1AF5
:104BD00004EB810415F8010DB047BD4244F8040D03
:104BE000F8D1BDE8F0874F1EFB1001F1804107F0BE
:104BF000070A4FF0800801395A1E48FA0AF814F8DB
:104C0000039004EB81055FFA88F81444CAF10703A6
:104C100008EA09001841B04745F80409BAF1000F45
:104C20005FD194F800904FF00108013C4FF0070A63
:104C3000002FB2D0013FE9E74F1E07F00309BB1078
:104C400001F180414FEA4900C025013905415A1E52
:104C500014F8038004EB810AEDB2144405EA08035A
:104C6000C0F1060043FA00F0B0474AF80409B9F170
:104C7000000F44D1032594F80080A946013C002F81
:104C80008BD0013F4FEA4900E8E74F1E07F00108CB
:104C90007A1001F180414FEA8800F0230139034185
:104CA00002F1FF3EA55C04EB81095FFA83FA7444CC
:104CB0000AEA0503C0F1040043FA00F0B04749F8DE
:104CC0000409B8F1000F13D125784FF00F0A013C09
:104CD0004FF00108002F3FF460AF013F4FEA88001A
:104CE000E6E74FEA48085FFA88F80AF1FF3A9FE7DB
:104CF0004FEA0A135FFA83FA4FF00008EAE7AD00C3
:104D0000EDB209F1FF39BAE770B584B004AB1D4AC2
:104D100043F8101D0190194613689847019058B345
:104D2000194B1B68DB695B692BB11B681BB10099D0
:104D3000984704B070BD009B013B002B0093A8BFB7
:104D400000241BDB01A8FFF7F9F90546FCF77EFEFE
:104D5000009B013B002B04440093F3DA04A90026D6
:104D600041F8046D2846FCF783FE039B9842B8BFC8
:104D70001E1A301904B070BD04B070BD00252C4659
:104D8000ECE700BF4C0200202C02002030B583B0BD
:104D9000019000B3114B1B68DB695B690D4623B1C1
:104DA0005B6813B1984703B030BD002DD8BF002019
:104DB000F9DD002404E00A2807D00134A54207D019
:104DC00001A8FFF7BBF90028F5D1204603B030BD9C
:104DD000284603B030BD03B030BD00BF2C02002018
:104DE000B1F90030B0F900209A42B8BF0380B0F9A1
:104DF0000220B1F902309A42B8BF4380B0F90420D2
:104E0000B1F904309A42C8BF8380B0F90620B1F9E5
:104E100006309A42C8BFC380704700BFF0B5B2F9F0
:104E200000C0B1F90050B1F90240B2F90230B2F954
:104E300004E0B2F90670B1F90420B1F90660AC459E
:104E40006146B8BF2946A342B8BF23467245A8BFF2
:104E50007246B7423C46A8BF344691420180438027
:104E60008280C48004DCA342CCBF00200120F0BDBE
:104E70000020F0BD2DE9F041394B1B685D7C012D10
:104E800082B003DD012002B0BDE8F081354E7368C9
:104E9000044613B1014628469847012C27D0022C1E
:104EA0000FD0002CEED1AC003719DFF8B880BB680A
:104EB000012B3AD001202644002B18BF013BB360E0
:104EC000E1E72846FCF75EFB01900028DAD0C368D2
:104ED0000D215B6A01A8984704460028D2D03368A8
:104EE00003B1984702210198A0470020CBE706EBC9
:104EF0008506B7681FB1781CB0602046C3E7284616
:104F0000FCF740FB01900028BCD0C3680D215B6A10
:104F100001A8984703460028B4D021460198984735
:104F2000B36801333846B360ADE72846FCF72AFB87
:104F3000019088B1C3680D215B6A01A898470546B6
:104F400050B1D8F8003003B1984700210198A84724
:104F5000331900209B68AEE7BB680120ABE700BFB8
:104F60002C02002068080220F0B40B0E4FEA1064F7
:104F7000124B02FB04F208BF20F07F41A3FB023278
:104F8000D20900F0FF160D0AC2F1FF0705F0FF1568
:104F900001F0FF13C0F3072402FB06F107FB05F045
:104FA00044F0807407FB031102FB0400090A00F0BF
:104FB000FF2001F0FF110843F0BC70478180808022
:104FC0002DE9F04F87B09246139A109B9DF85090B0
:104FD00001900291002A35D0129ADFF870B0DFF804
:104FE0007080920002EB83030493002305920393E5
:104FF000129C029E019D574655F8040BDBF80030C9
:1050000056F8041B020E09FB02F2A8FB02E2C2F3EF
:10501000C71240F07F409847013C40F07F4047F87E
:10502000040BE9D1019A0599039B10460844029AA2
:1050300001908A4404990A440292139A01339A42D5
:105040000393D5D107B0BDE8F08F00BF3C0200202C
:105050008180808080B483B000AF7860064B1A688E
:105060007B685A60044A7B68136000BF0C37BD46FA
:105070005DF8047B704700BF4C060220F8B5064679
:105080004AB18407C9B208D001E0830705D0013ACC
:1050900000F8011BF9D13046F8BD97083B4657B3DD
:1050A00001EB0124032F02F0030204EB044416D9A0
:1050B00000F110033D46043D032D43F8104C43F826
:1050C0000C4C43F8084C43F8044C03F11003F2DC99
:1050D000043FBB085D1C00EB0510A7EB830343B145
:1050E000012B046003D0022B446018BF846000EBE6
:1050F0008300002ACFD0FBF72CF93046F8BD00BF63
:1051000008B50B0E03D1030EFF2B0FD04BB10C4B88
:1051100002EB0212D2B21B6898470A4B5A6810433E
:1051200008BD084B5A6841EA020008BD054B5B68A0
:1051300020F07F4002EB0212184340EA026008BDF3
:105140003C020020A8020020024B5A68586010461A
:10515000704700BFA8020020044A054B1268527C29
:1051600053F822301B691B68184700BF2C0200202F
:1051700088090220C0F30722C0F307439A4200B512
:10518000C0B21FD0144900EB80007F3003EB8303D3
:1051900002EB8202A1FB00E07F337F32A1FB03E33D
:1051A000C009A1FB021200EBC000D209DB0903EB2E
:1051B000800302EB420003EB40006B2888BF2830DD
:1051C0005DF804FB9042DDD1044B0830A3FB0030B6
:1051D000000978305DF804FB81808080F1F0F0F008
:1051E0002DE9F04FB64C91B0D4F800E01B9D1D9E08
:1051F0001E9F1F9CDDF868A00D95DDF870C00E960F
:10520000079708940F9005920C93BEF1000F06D0FB
:10521000DEF80040A44611B0BDE8F04F60474AEA0E
:105220000503012B894600F09280CCF1080302931C
:105230000C9B002B40F38880A24BCDF828E0186827
:105240000491F046E1460D9A049953181A460B93BF
:10525000B0F90A30013A9342099268DCB0F90E3095
:105260008B4264DB059B002B61DD0F9B079F06973C
:105270000026354603EB0A044CE0029BC9EB060608
:1052800048FA03F313F0FF0308FA09F85FFA88F805
:1052900002D1027C920738D4D0F83CE0DEF800203E
:1052A0000392089A0AB152F82330B0F908B0B0F965
:1052B0000CC0CEF80030621E5945B8BF5946624551
:1052C0001346A8BF63468B421CDBB0F90A20049F3B
:1052D000B0F90EC0BA42B8BF3A46099FBC45A8BF54
:1052E000BC4662450EDC407C774F57F82000D0F872
:1052F0000CE0CDF800C0DEF810B0D847714B18684C
:10530000D0F83CE0039BCEF80030059B0135AB4262
:1053100054440CD0CAEB0401002EAED1069A029E72
:1053200092F800801346013306933346A8E7079AA4
:105330000E990A9B0A4407920B9A04920C9A013325
:105340009A420A937FF47FAF11B0BDE8F08F5D4BB6
:105350001968B1F90A20C9EB0203002B40F3C2809F
:105360000C98C41A002CEFDD06FB037307930C9B0B
:10537000B1F90E004B44013B1B1A002B02DDE41A6D
:10538000002CE1DD0F98059D4319B1F90C00013B9C
:105390001B1A002B01DDEB1A0593B1F908000F9DD4
:1053A000854216DB0023059E002ECDDD487C464954
:1053B00051F820000899C5681E93079B1D930E9B0A
:1053C0001F911C93CDF86CC01A9433460F996C68EA
:1053D00020E7059E431BF61A0CF1FF3505961F2D9D
:1053E000E1D801A656F825F0CD540008A9540008CC
:1053F000A753000891540008A7530008A7530008BA
:10540000A753000885540008A7530008A7530008B5
:10541000A7530008A7530008A7530008A753000884
:10542000A753000877540008A7530008A7530008A3
:10543000A7530008A7530008A7530008A753000864
:10544000A753000869540008A7530008A753000891
:10545000A7530008A7530008A7530008A753000844
:10546000A753000869540008079D0F9005EB8303BC
:105470000793002397E7079D0F9005EB43030793DE
:10548000002390E7079D0F901D44079500238AE7AE
:10549000079D05EB630507950F9D23F0010005446B
:1054A0000F9503F001037EE7079D05EBA305079524
:1054B0000F9D23F0030005440F9503F0030372E7EB
:1054C000980902202C02002088090220079D05EB84
:1054D000E30507950F9D23F0070005440F9503F0A2
:1054E000070360E70C9C4A46234641E7124B30B461
:1054F0001C68B4F90A308B420FDCB4F90E309942C3
:105500000BDCB4F90850B4F90C30A842B8BF2846F7
:105510009A42A8BF1A46904201DD30BC7047074B43
:10552000647C53F82440E568AD681346AC460A46EF
:105530000146204630BC60472C020020880902202A
:10554000184B1B68B3F90A208A421DDCB3F90E2000
:10555000914219DCB3F90820824215DCB3F90C2022
:10556000904211DC30B41A7CD2070ED40E4A5C7C17
:10557000DB6B52F824401B68E568AD690A46AC460F
:105580000146204630BC604770475A7C064B53F8B2
:105590002230DC68E4690A4601461846234630BCDE
:1055A000184700BF2C0200208809022070B5154C56
:1055B0002468B4F90860B4F90C50B042B8BF304662
:1055C000AA42A8BF2A46824282B00BDBB4F90A6025
:1055D000B4F90E50B142B8BF3146AB42A8BF2B461A
:1055E000994201DD02B070BD657C074C54F825403E
:1055F000E568009313460A46014620462C69A047F9
:1056000002B070BD2C02002088090220012801DDB3
:105610000020704710B5FBF7B5FF28B1C36808211B
:105620009B6ABDE810401847002010BD024B1B6864
:105630009B6B1868704700BF2C020020024B1B6850
:10564000DB6B1868704700BF2C020020034B53F837
:105650002020D26803EB8000536A18478809022093
:10566000012801DD0020704710B5FBF78BFF28B142
:10567000C3680C219B6ABDE810401847002010BD8C
:10568000012801DD0020704710B5FBF77BFF28B132
:10569000C3680D219B6ABDE810401847002010BD6B
:1056A000094B1B68587C012801DD0020704710B5AC
:1056B000FBF768FF28B1C36809219B6ABDE8104069
:1056C0001847002010BD00BF2C020020012801DD7A
:1056D0000020704710B5FBF755FF28B1C3680921BA
:1056E0009B6ABDE810401847002010BD10B500208F
:1056F000FBF748FF041C4FF0010018BF0124FBF723
:1057000041FF00B10134204610BD00BF10B5064B6B
:105710001B68587CFBF736FF28B1C3680221DB6A9F
:10572000BDE81040184710BD2C02002030B583B0F2
:105730000C461546FBF726FF019070B1C3680421A3
:105740005B6A0DEB01009847034630B101982A4689
:1057500021469847002003B030BD012003B030BD82
:10576000012801DD0020704710B5FBF70BFF28B1C1
:10577000C3680E219B6ABDE810401847002010BD89
:10578000012801DD0020704710B5FBF7FBFE28B1B2
:10579000C36803219B6ABDE810401847002010BD74
:1057A00038B501252846FBF7EDFE0024032178B12A
:1057B000C3689B6A98478442B8BF04460DB9204627
:1057C00038BD00252846FBF7DDFE03210028EFD178
:1057D000F1E700BF012801DD0020704710B5FBF79D
:1057E000D1FE28B1C36804219B6ABDE81040184768
:1057F000002010BD094B1B68587C012801DD0020EA
:10580000704710B5FBF7BEFE28B1C36801219B6A43
:10581000BDE810401847002010BD00BF2C0200203A
:10582000014B1868704700BF78070220012801DD8E
:105830000020704710B5FBF7A5FE28B1C368012111
:105840009B6ABDE810401847002010BD38B50125FF
:105850002846FBF797FE0024012178B1C3689B6AB4
:1058600098478442B8BF04460DB9204638BD00258C
:105870002846FBF787FE01210028EFD1F1E700BFA2
:10588000094B1B68587C012801DD0020704710B5CA
:10589000FBF778FE28B1C36802219B6ABDE810407F
:1058A0001847002010BD00BF2C020020014B586893
:1058B000704700BF78070220012801DD00207047F3
:1058C00010B5FBF75FFE28B1C36802219B6ABDE8F3
:1058D00010401847002010BD38B501252846FBF7B9
:1058E00051FE0024022178B1C3689B6A9847844224
:1058F000B8BF04460DB9204638BD00252846FBF741
:1059000041FE02210028EFD1F1E700BF2DE9F84365
:1059100060B3856865B3DFF86480D8F8006006B3CB
:105920000768B7F5807F1FDC124B1B689F42A8BF3A
:105930001F46002F81460DDD043D002401E0D8F80C
:10594000006055F8040FFFF707FC46F82400013407
:10595000BC42F4D1084B1B680BB148469847D8F8B5
:1059600000603046BDE8F8830026FAE70646F8E70F
:105970002E46F6E7480200206C070220B4090220F8
:105980002DE9F84360B3856865B3DFF86480D8F823
:10599000006006B30768B7F5807F1FDC124B1B68F9
:1059A0009F42A8BF1F46002F81460DDD043D002405
:1059B00001E0D8F8006055F8040FFFF7CDFB46F87A
:1059C00024000134BC42F4D1084B1B680BB148469B
:1059D0009847D8F800603046BDE8F8830026FAE71B
:1059E0000646F8E72E46F6E7480200206C0702203C
:1059F000B4090220044A054B1268527C53F8223045
:105A00001B695B68184700BF2C0200208809022030
:105A1000A0F178030F2B10B52AD96B2802D993284F
:105A200032D9283819491A4BA1FB00429208A1FB30
:105A30000241A3FB00E302EB4204890801EB4101B0
:105A4000A0EB4400DB08A2EB410200EB400003EBBB
:105A5000430303EB031302EB420200EB001002EBE3
:105A6000021203EB004000EB022040F07F4010BD2B
:105A700000EB001300EB031000EB003000F1784066
:105A8000083040F07F4010BD002010BDABAAAAAA8C
:105A9000398EE338C0F3C423094910B4CA5C094CF9
:105AA000C0F3451300F01F00E35C085C5DF8044B95
:105AB000120402EB0323184440F07F40704700BFFC
:105AC0009C8501085C85010840F07F40704700BF5D
:105AD000704700BF38B50B4D2C680CB1002038BDA5
