:020000040800F2
:10000000D8B1022079020008B317000811150008C2
:10001000AF170008950500085D1D000800000000EE
:10002000000000000000000000000000C101000806
:10003000090600080000000015020008D51B000892
:10004000930200089302000893020008930200083C
:10005000930200089302000893020008930200082C
:10006000930200089302000893020008930200081C
:10007000930200089302000893020008930200080C
:1000800093020008930200089302000893020008FC
:1000900093020008930200089302000893020008EC
:1000A00093020008930200089302000893020008DC
:1000B00093020008930200089302000893020008CC
:1000C00093020008930200089302000893020008BC
:1000D00093020008930200089302000893020008AC
:1000E000930200089302000893020008930200089C
:1000F000930200089302000893020008930200088C
:1001000093020008AD19000893020008930200084A
:10011000930200089302000893020008930200086B
:10012000930200089302000893020008CD0500081E
:1001300093020008190B00089302000893020008BC
:10014000930200089302000893020008930200083B
:10015000930200089302000893020008930200082B
:10016000930200089302000893020008930200081B
:10017000930200089302000893020008930200080B
:1001800093020008930200089302000893020008FB
:1001900093020008930200089302000893020008EB
:1001A000811500089302000899050008DFF80CD0BB
:1001B00000F004F90048004769550008D8B1022052
:1001C0002A4B19680868B0E8F04F80F30988BFF33C
:1001D0006F8F4FF0000080F311887047000000001F
:1001E00006480068006880F3088862B661B6BFF30D
:1001F0004F8FBFF36F8F00DF00BF00BF08ED00E03F
:10020000DFF80C00016841F470010160704700BF25
:1002100088ED00E0EFF30980BFF36F8F134B1A688E
:100220001EF0100F08BF20ED108A20E9F04F10607B
:1002300008B44FF0B00080F31188BFF34F8FBFF3C5
:100240006F8F0CF0FDFE4FF0000080F3118808BCAA
:1002500019680868B0E8F04F1EF0100F08BFB0EC46
:10026000108A80F30988BFF36F8F70474800002021
:10027000EFF30580704700000648804706480047B6
:10028000FEE7FEE7FEE7FEE7FEE7FEE7FEE7FEE746
:10029000FEE7FEE7E51B0008AD0100082DE9F05F71
:1002A0000546002092469B468846064681464024E5
:1002B0001BE0284641464746224600F06FF8534669
:1002C0005A46C01A914110D311461846224600F0F2
:1002D00056F82D1A67EB01084F46224601200021EF
:1002E00000F04DF817EB00094E41201EA4F1010467
:1002F000DFDC484631462A464346BDE8F09F10B54C
:10030000441A0346944209D28418114403E011F8B8
:10031000013D04F8013D521EF9D210BD40EA01042E
:10032000A40703D009E010C9121F10C3042AFAD28F
:1003300003E011F8014B03F8014B521EF9D210BD36
:10034000D2B201E000F8012B491EFBD27047002217
:10035000F6E710B513460A4604461946FFF7F0FFC4
:10036000204610BD30B504460020034600E05B1C6B
:10037000934203D2E05CCD5C401BF8D030BD202A14
:1003800004DB203A00FA02F1002070479140C2F1EC
:10039000200320FA03F3194390407047202A04DB1E
:1003A000203A21FA02F00021704721FA02F3D040EE
:1003B000C2F120029140084319467047064C074D90
:1003C00006E0E06840F0010394E807009847103425
:1003D000AC42F6D3FFF7EEFEACE40008CCE4000834
:1003E00070B58C1810F8015B15F0070301D110F8F7
:1003F000013B2A1106D110F8012B03E010F8016B24
:1004000001F8016B5B1EF9D12B0705D40023521EA6
:100410000DD401F8013BFAE710F8013BCB1A921C0E
:1004200003E013F8015B01F8015B521EF9D5A1420C
:10043000D8D3002070BD0000094B1A6A002A18BFEB
:10044000002003EB800210B49469002C04DB43F815
:1004500020104FF0FF3393615DF8044B704700BFED
:10046000A8910220C0F3C423094910B4CA5C094C06
:10047000C0F3451300F01F00E35C085C5DF8044B1B
:10048000120402EB0323184440F07F40704700BF82
:100490007CE400083CE40008F0B5124CD4F800E01D
:1004A000BEF1000F03D0F446BDE8F04060470646B9
:1004B000DFF838E00C480C4615461F4656F8041B7A
:1004C000C1F30742C1F30723825C1EF80330C9B2AF
:1004D000D202415C02EB43130B44013D23803C44B8
:1004E000ECD1F0BDA09102203CE200083CE1000804
:1004F000C0F30743074A10B4C0F30721064CD35C8E
:10050000615C5DF8044BC0B2DB02105C03EB41138D
:10051000184470473CE200083CE100084FF6FF70C9
:10052000704700BF2DE9F041174C64681CB1A44628
:10053000BDE8F0416047884602F180410139013A47
:1005400003FB0200114FDFF848E008EB81015B423A
:1005500000E0013A048804F01F054FEAD42CC4F3EC
:1005600045167D5D17F80C401EF8066005EB044447
:1005700004EB062444F07F44184441F80449002A5F
:10058000E7D1BDE8F08100BFA09102207CE4000823
:100590003CE4000800BFFEE710B500BFB021EFF358
:1005A000118081F31188BFF34F8FBFF36F8F00BFAE
:1005B000044600F005F8204680F3118800BF10BD06
:1005C000022001498860704700B0024010B501F078
:1005D00001FA10BD0246094B9A4201D2084801E0D7
:1005E0000648103801F000531BB1064B0B40C360A6
:1005F00002E0044B0B40836070470000106402402F
:10060000006002407D0F7D0F7047000000B587B08D
:100610000121084601F014F90121102001F030F900
:1006200007220A211D4800F04BFF072209211B4821
:1006300000F046FF00208DF81A0001208DF81B0005
:1006400002208DF818000002059002208DF8190094
:1006500005A9124800F0ECFE02208DF818004002B7
:10066000059005A90D4800F0E3FE4FF4E13001903C
:100670000020ADF80800ADF80A00ADF80C00ADF8A8
:1006800010000C20ADF80E0001A9054801F0F8FAA1
:100690000121034801F0DAFA07B000BD0000024072
:1006A0000010014010B500F0E9F800F09FFC00F0E8
:1006B00007FC0121002000F015FD00F0040028B126
:1006C0000348006840F010000149086010BD0000B8
:1006D000300000200149486170470000009002404E
:1006E00029B1064AD2690243044BDA6104E0034AA5
:1006F000D2698243014BDA617047000000900240EA
:1007000030B10749896941F00201054A916105E06C
:100710000349896921F00201014A91617047000093
:100720000090024070B50C4613460021124D28601F
:1007300000BF18E000EB41124FF00045156044F295
:10074000F4555560C1EBC11505EB450504EB850576
:1007500095605D1E8D4204D900EB41152035D560B2
:1007600000E0D060491C9942E4D3044DE860044D98
:10077000044E356070BD00003C0000200090024037
:10078000943F00204000002021B1426822F0004246
:10079000426003E0426842F000424260704700005D
:1007A00030B10749896941F40051054A916105E07A
:1007B0000349896921F40051014A916170470000A1
:1007C0000090024030B50C46134600210F4D2860C2
:1007D00000BF15E000EB41124FF480151560C1EB2E
:1007E000C11505EB450504EB850595605D1E8D4241
:1007F00004D900EB41152035D56000E0D060491CDC
:100800009942E7D3024D286130BD00003800002036
:100810000090024002680A430260704710B501214F
:10082000480601F01DF800214FF0007001F018F8A3
:1008300010BD01B581B0002000900198009002E049
:100840000098401E009000980028F9D10CBD0000CF
:1008500008B5002000900848806940F480100649DF
:1008600088610846806900904FF6FF70FFF7E1FF4E
:1008700001490098886108BD009002401CB5012123
:1008800040F2471000F0DCFF0121880300F0F8FF80
:10089000012001F009F90220009003208DF80500E5
:1008A00001208DF8040000208DF806008DF8070067
:1008B0006946424800F0BCFD0221404800F023FE9A
:1008C0006FF07F40FFF7B5FF02213C4800F01DFEAE
:1008D0006FF07F40FFF7ADFF0420009003208DF8FC
:1008E000050002208DF8040000208DF806008DF828
:1008F00007006946324800F09BFD0B220221304878
:1009000000F0DEFD0220009069462E4800F090FDC8
:100910000B2201212B4800F0D3FD022000906946F4
:10092000274800F085FD0B220121254800F0C8FD75
:10093000802000906946224800F07AFD0B220721B2
:100940001F4800F0BDFD1020009069461D4800F0D2
:100950006FFD0B2204211B4800F0B2FD2020009007
:100960006946184800F064FD0B220521154800F087
:10097000A7FD4FF4006000906946134800F058FD51
:100980000B221146104800F09BFD4FF400500090E0
:1009900069460E4800F04CFD0B220D210B4800F07B
:1009A0008FFD4FF4804000906946084800F040FDFC
:1009B0000B220E21054800F083FD1CBD00200240E3
:1009C00000000240000802400004024000180240FB
:1009D00001460020034A52690A400AB1012000E0A2
:1009E000002070470090024000200449096801F08F
:1009F000010109B1012000E0002070470090024091
:100A00000FB50021019102910391009170E00099CE
:100A1000491C00913E490968096801F40071A1B1BF
:100A20003B490968096801F4807171B9384909685E
:100A3000384A126811600121364A126891603449BF
:100A40000968C968324A116052E031490968096889
:100A500001F4807191B92E490968096801F40071A7
:100A600061B92C4909688968491C2A4A1268916051
:100A700027490968C968264A116039E0244909688C
:100A8000244A12685160234909688968491C214A2F
:100A9000126891601F4909688968012904D11C49BD
:100AA00009681C4A12681160194909680968C1F38C
:100AB0000D41091F0191174909688968012905D964
:100AC0001449096809688968029103E010490968B6
:100AD000896802910F490968096803910C490968FE
:100AE000C9680B4A116001A90EC980E80E000FBD4C
:100AF00007490968096801F0004111B90099052901
:100B000085D301A90EC980E80E0000BFEFE7000001
:100B10003C0000204000002008B50020009040204C
:100B2000FFF756FF012804D169460C4800680CF015
:100B300011FE4020FFF7CEFD4FF48030FFF7CAFDD5
:100B4000009848B1009838B14FF0805004490860CF
:100B5000BFF34F8FBFF36F8F08BD00002800002048
:100B600004ED00E02DE9F04188B004460F464FF057
:100B70000008002500200790B94E02900120019046
:100B8000B848056925F01C0503A800F089FE049EFD
:100B9000B548864205D3B548864202D245F00805DD
:100BA0001AE0B248864205D3AD48864202D245F0EB
:100BB0000C0511E0AA48864203D3AD48864200D214
:100BC0000AE0AB48864205D3AA48864202D245F0E5
:100BD000040501E045F01005A24805614FF400420C
:100BE0000021384600F038FB10B9002001906AE07F
:100BF000A148FFF71EFE2068002850D000BF0298D1
:100C0000401C02900121384600F06CFA00F004000C
:100C100018B99A4902988842F1D3984902988842B3
:100C200002D1002001904EE0002002904FF480524B
:100C30000021384600F010FB08B90020019000BFE9
:100C40000298401C02900121384600F04BFA00F057
:100C5000200018B9894902988842F1D3874902983F
:100C6000884202D1002001902DE0002002901F2137
:100C7000384600F037FA804608F0100018B14FF4FB
:100C80000060206201E00020206208F0040010B142
:100C90000020606116E04FF48040606112E0206A3D
:100CA000C0F3CF006169C1F34F0140EA01020021A6
:100CB000384600F0D1FA08B9002001906FF07F406B
:100CC000FFF7B7FD00BF019820B94FF40060206224
:100CD000C00060616348056869480540D4E90101C6
:100CE0000843E16808432169084361690843A16931
:100CF0000843E1690843216A0843616A0843A16A1D
:100D00000843E16A0843216B0843616B08430543CC
:100D10005448056005684FF6FF70FFF78AFD51489B
:100D20000560D4E90E010843216C0843616C084357
:100D3000A16C0843E16C0843216D0843616D0843D1
:100D400048494860084645684FF6FF70FFF771FD57
:100D5000444845604349A06D8860E06DC86008461E
:100D600085694FF641700540B4F86010606E40EA46
:100D70000140A16E0843E16E0843216F0843616F93
:100D8000084305433748856185694FF6FF70FFF7D3
:100D900050FD34488561D4E91E0108433149C861DA
:100DA0000846C5694FF6FF70FFF743FD2D48C56142
:100DB0003448856934480540D4E920010843D4F813
:100DC00088100843D4F88C100843D4F890100843D6
:100DD000D4F894100843D4F898100843D4F89C1021
:100DE0000843D4F8A0100843054326488561856967
:100DF0004FF6FF70FFF71DFD22488561D4E92901F8
:100E00000843D4F8AC100843D4F8B0100843D4F821
:100E1000B41040EA8100D4F8B810084340F4000050
:100E200018490860084605684FF6FF70FFF701FD96
:100E300014480560006840F08000124908600846C8
:100E400005684FF6FF70FFF7F4FC0E480560019847
:100E5000012802D108B0BDE8F0810020FAE70000C7
:100E60000087930300800240002D3101C00E16025E
:100E700000E1F50580D1F008FFFF0F00FFFF04003F
:100E80000F8120FF00900240233FDEF810B50B7960
:100E90004C7943EA0422094B03441A64CB781B06BD
:100EA0008C7843EA04434C7843EA04230C7843EA01
:100EB0000402024B03445A6410BD0000008002404B
:100EC00010B501214FF0606000F0BAFCFFF7A6FCFE
:100ED00000F03EF900BFFFF787FD0128FBD0204856
:100EE00000F060F901201E4908600020C8614FF43D
:100EF000007088620020C86288634864C86408651E
:100F000048654FF4806048620020C1F880004FF0CF
:100F10000070C1F884000011C1F88C000020C1F8F5
:100F20009400C1F898000420C1F8A000C005C1F8E1
:100F3000A4004012C1F8A8008001C1F8AC00401222
:100F4000C1F8B0004000C1F8B80000210448FFF724
:100F500009FE0449086001210348FFF7C1FB10BDE9
:100F6000D8010020300000204000010008B50146F3
:100F70000020009031B10C48006840F004000A4A9B
:100F8000106005E00848006820F00400064A106080
:100F90000548006800904FF6FF70FFF74AFC024AD0
:100FA0000098106008BD00000080024008B50146AE
:100FB0000020009031B10C48006840F008000A4A57
:100FC000106005E00848006820F00800064A10603C
:100FD0000548006800904FF6FF70FFF72AFC024AB0
:100FE0000098106008BD00000080024008B54FF472
:100FF000407000F01BFC3D208DF800000C208DF8A7
:10100000010000208DF8020001208DF803006846E1
:1010100000F0D0FB08BD000070B50246002300259B
:1010200000242E480068006800F0004008B100204D
:1010300070BD2A48016840F2F450824208DD92FBFC
:10104000F0F392FBF0F600FB162010B15B1C00E001
:101050000123012B0CD1086840F040500860C2F316
:101060000C004860086840F000400860C96826E04D
:10107000002422E0086820F0405008601CB908688D
:1010800040F08050086040F2F4504860581EA04282
:101090000DD1086840F000500860581EC0EBC01029
:1010A00000EB4000A2EB8005C5F30C004860086827
:1010B00040F000400860C968641C9C42DAD30748CD
:1010C00001600748406900F0040020B10420044E8C
:1010D0007061002070600120AAE700003800002045
:1010E0000090024018B502460B46002100200090F7
:1010F0001548016901F01C014FF4784000EAC22054
:1011000001434FF4F86000EA8310014321F002012B
:1011100041F001010C48016100BF0098401C0090A3
:101120000948016901F0010018B1084C0098A0427B
:10113000F3D3064C0098A04201D1002018BD02480C
:10114000406980B2FAE7000000800240FFFF04001F
:101150000348006840F00100014908607047000042
:101160000090024000B50120FFF720FF0120FFF7AB
:10117000FDFEFFF76DFB0120FFF712FB0120FFF7DB
:10118000BFFA00BD00B50020FFF70AFB0020FFF703
:10119000B7FA0020FFF7EAFEFFF75AFB0020FFF73F
:1011A00005FF00BD01210160002141608160C16037
:1011B00001614FF48041416100218161C1614FF4BF
:1011C00000610162002141628162C1620163416389
:1011D0008163C16340210164202141640021816455
:1011E000C164016541658165C16501668021416613
:1011F00000218166C166016741678167C1674FF061
:101200008061C0F880104910C0F884100021C0F837
:1012100088104FF40011C0F88C100021C0F8901015
:10122000C0F89410C0F89810C0F89C10C0F8A01036
:101230004FF00071C0F8A4104912C0F8A81089013D
:10124000C0F8AC104912C0F8B0100021C0F8B410BA
:10125000C0F8B8107047000038B503460C460021AE
:10126000002000901448016901F01C014FF47840FF
:1012700000EAC32001434FF4F86000EA8410014300
:1012800041F0020141F001010B484261016100BFE0
:101290000098401C00900848016901F0010018B155
:1012A000064D0098A842F3D3044D0098A84201D1FE
:1012B000002038BD0120FCE700800240FFFF040051
:1012C0007FB506460020039096F83100C0F38000F9
:1012D000002863D037480068002843D000200390DE
:1012E0004FF4805200210846FFF7B6FF00BF039875
:1012F000401C039001210020FFF7F4FE00F02000C5
:1013000018B92D4903988842F1D3002003901F217A
:10131000FFF7E8FE044604F0100020B14FF400602F
:101320002449086202E000202249086204F0040017
:1013300018B100201F49486103E04FF480401D4967
:1013400048611E4805681B4840691A49096A0843F4
:1013500005431A4805604FF6FF70FFF76AFA174811
:1013600005680560FFF7FEFE154802906FF07F40AC
:101370000190144800906B4601AA02A9124804F09B
:1013800091FE114804F0FCFE10A000F0E9FC16A04C
:1013900000F0E6FC00201A4908700AE0FFF7F2FEB0
:1013A000094804F0B7FE17A000F0DAFC1BA000F01B
:1013B000D7FC7FBDD8010020FFFF04000080024061
:1013C000C0A80065C0A80001940200200D0A2020DA
:1013D0004E6574776F726B204361626C6520697330
:1013E00020200D0A00000000202020206E6F7720B2
:1013F000636F6E6E65637465642020200D0A0000C3
:10140000340000200D0A094E6574776F726B20431B
:1014100061626C6520697320200D0A002020202065
:1014200020756E706C75676765642020200D0A005A
:10143000F0B50A4600210023002400BF3DE001254D
:1014400005FA01F3156805EA03049C4234D10568E6
:101450004F000326BE40B543056015794E00B540E8
:101460000668354305601579012D02D01579022DE6
:1014700016D185684F000326BE40B5438560557977
:101480004E00B540866835438560456801268E402C
:10149000B5434560456896798E40B6B235434560A0
:1014A000C5684F000326BE40B543C560D5794E00E0
:1014B000B540C6683543C560491C1029BFD3F0BD8F
:1014C000F0B5002300244D07ED0E02FA05F3CE100F
:1014D00000F1200555F826504E07F70E0F26BE40A6
:1014E000B543CF1000F1200646F82750CE1000F18A
:1014F000200555F8265045EA0304CE1000F12005DA
:1015000045F82640F0BD41837047018370470000D5
:1015100002A000F025FC00BFFEE7000068617264D5
:101520006661756C742121210A0000001CB501213F
:10153000802000F085F94FF48060009001208DF844
:10154000040000208DF8060001208DF8070000201F
:101550008DF8050069460948FFF76AFF4FF40060FF
:10156000009069460548FFF763FF4FF480500090F4
:1015700069460248FFF75CFF1CBD0000001C0240EA
:1015800010B500BFB021EFF3118081F31188BFF3D4
:101590004F8FBFF36F8F00BF044600F005F8204661
:1015A00080F3118800BF10BD70B501201D4908608F
:1015B000002433E01C4850F8240000282DDB1B4891
:1015C00050F824001A4951F824104843164951F89C
:1015D00024104843174951F82410174A52F8242080
:1015E00000FB0125154850F82400806A00201349AB
:1015F00051F824108862114850F8240085620120B7
:1016000000F01EF8084850F824102046FEF714FF9A
:101610004FF0FF30044941F82400641C012CC9DB61
:1016200070BD00003C680140B0000020B800002000
:10163000BC000020C0000020A4DD0008A80000209D
:1016400001490860704700002468014000B587B078
:10165000002108460AF002FC274806906FF07F4000
:1016600005902648049026482649002204ABCDE97F
:101670000021029005AA06A9234804F063FB224832
:1016800004F040FD21480068112826D11E4890F83A
:10169000310040F004001C4981F83100084604F094
:1016A0006FFD1BA000F05CFB65200023A822C02179
:1016B00000901DA000F054FB0020FF231A4619469D
:1016C00000901EA000F04CFB01200023A822C021A6
:1016D000009020A000F044FB08E00B4804F01AFD45
:1016E00022A000F03DFB27A000F03AFB2A49064863
:1016F00004F042FD07B000BDC0A80065C0A800010D
:10170000114700088D480008940200203000002096
:101710000D0A09537461746963204950206164643F
:1017200072657373090D0A0049503A2025642E250D
:10173000642E25642E25640D0A0000004E45544D8C
:1017400041534B3A2025642E25642E25642E2564B2
:101750000D0A0000476174657761793A2025642E8F
:1017600025642E25642E25640D0A00000D0A094EFD
:101770006574776F726B204361626C6520697320BA
:10178000200D0A00096E6F7420636F6E6E656374BE
:101790006564090D0A000000C1120008FEF782FF0F
:1017A000FFF754FF00BF00200BF0ACFAFBE700BFCF
:1017B000FEE7704770B5002100230F22C4781CB3E8
:1017C000174C246804F4E064C4F5E064C4F3072112
:1017D000C1F10404E3B20A4144789C40E1B2847848
:1017E000144021430C07210E0E4C057861550478F6
:1017F00004F01F050124AC4005786D11AD0005F122
:10180000E025C5F8004109E0047804F01F05012433
:10181000AC40054D0678761145F8264070BD0000B5
:101820000CED00E000E400E080E100E0024901434B
:10183000024A1160704700000000FA050CED00E05C
:1018400029B1064A12680243044B1A6004E0034AB5
:1018500012688243014B1A60704700003038024022
:1018600029B1064A12680243044B1A6004E0034A95
:1018700012688243014B1A60704700001038024022
:1018800029B1064A12680243044B1A6004E0034A75
:1018900012688243014B1A607047000044380240CE
:1018A000F0B5002100220024022500260223324F39
:1018B0003F6807F00C0121B1042905D0082937D170
:1018C00005E02E4F076036E02D4F076033E02A4FCA
:1018D0003F1F3F68C7F38056274F3F1F3F6807F001
:1018E0003F036EB1264FB7FBF3F7DFF88CC0ACF1C6
:1018F000040CDCF800C0CCF3881C07FB0CF40CE0F3
:101900001E4FB7FBF3F7DFF870C0ACF1040CDCF846
:1019100000C0CCF3881C07FB0CF4174F3F1F3F6837
:10192000C7F301477F1C7D00B4FBF5F7076002E0B9
:10193000124F076000BF00BF0F4F3F6807F0F00174
:101940000909104F7A5C0768D74047600A4F3F6823
:1019500007F4E051890A0B4F7A5C4768D7408760EB
:10196000054F3F6807F46041490B064F7A5C4768B2
:10197000D740C760F0BD0000083802400024F400E2
:1019800040787D0114000020014908607047000084
:10199000382C014001460020034A12680A400AB16F
:1019A000012000E000207047342C014010B500F009
:1019B00025F810BD29B1064A12680243044B1A608B
:1019C00004E0034A12688243014B1A60704700002A
:1019D0003C2C014010B50748006800F0C05040B1F1
:1019E0000120054908604FF0C25102485830FEF707
:1019F000F1FD10BD00640240FC00002010B54FF462
:101A00008070FFF7C7FF50B10020254908704FF4E0
:101A10008070FFF7B9FF01202249086037E00220FB
:101A2000FFF7B8FF30B10220FFF7AEFF02201C49DC
:101A300008702CE00820FFF7ADFF30B10820FFF759
:101A4000A3FF04201649087021E02020FFF7A2FF21
:101A500030B12020FFF798FF06201149087016E0EA
:101A60001020FFF797FF30B11020FFF78DFF052002
:101A70000B4908700BE04FF40070FFF78BFF30B19B
:101A80004FF40070FFF780FF072005490870002120
:101A90004CF23A30FFF78EFF0148007810BD00008D
:101AA000F4000020F80000200149086070470000A1
:101AB000DC0027420CB500200190009041480068EE
:101AC00040F480303F49086000BF3E48006800F4A1
:101AD000003000900198401C0190009818B90198BE
:101AE000B0F5A04FF1D13748006800F4003010B1D4
:101AF0000120009001E0002000900098012860D1B2
:101B000030484030006840F080502E494031086035
:101B10002D48006840F440402B49086029480830AF
:101B200000682849083108600846006840F4004011
:101B300008600846006840F4A05008602348091F68
:101B40000860081F006840F08070091F086000BF2F
:101B50001C48006800F000700028F9D01A4800689E
:101B600040F480301849086000BF1748406800F40E
:101B700080300028F9D01448006840F40030124941
:101B8000086000BF1048406800F400300028F9D019
:101B900040F205700E4908600A480830006820F0DD
:101BA00003000849083108600846006840F0020058
:101BB000086000BF03480830006800F00C000828E7
:101BC000F8D10CBD0038024000700040195A40079F
:101BD000003C024010B50BF0B9FE012801D00BF01B
:101BE00035FB10BD10B51548006840F4700013496E
:101BF00008601348006840F00100114908600020A7
:101C00000F49083108600E4800680E4908400C4929
:101C100008600D48091D0860081F006820F4802036
:101C2000091F0860002006490C310860FFF742FFD9
:101C30004FF0006001498039086010BD88ED00E078
:101C400000380240FFFFF6FE1030002421B18289E7
:101C500042F40052828104E082894DF6FF731A40FB
:101C60008281704702460020B1F5007F00D100BF9D
:101C700013880B400BB1012000E0002070470000EA
:101C80002DE9FF4705460E460024A14600BFA046A9
:101C9000B08900B100BF2C8A24F44054F08804437A
:101CA0002C82AC8941F20C608443B08831890843AE
:101CB000718908430443AC81AC8A24F44074B08930
:101CC0000443AC826846FFF7EBFD2048854202D012
:101CD0001F48854202D1DDF80C9001E0DDF8089044
:101CE000A88900F4004040B109EBC90000EB0910DD
:101CF00031684900B0FBF1F707E009EBC90000EBE0
:101D0000091031688900B0FBF1F76420B7FBF0F0EF
:101D100004012009642101FB1078A88900F4004027
:101D200040B1322000EBC800B0FBF1F000F007003A
:101D3000044308E0322000EB08106421B0FBF1F00E
:101D400000F00F0004432C81BDE8FF870010014024
:101D500000140140C1F308028280704700BFFEE713
:101D60000FB4054B10B503A9044A029800F018F807
:101D700010BC5DF814FB000031490008D4010020BC
:101D800002E008C8121F08C1002AFAD17047704744
:101D9000002001E001C1121F002AFBD170470000A2
:101DA0002DE9FF4F8DB00F460546002606E0252899
:101DB0000BD0DDE90F1290476D1C761C28780028A7
:101DC000F5D111B03046BDE8F08F0024A246A146FF
:101DD0000122EC4900E0044315F8013F203B02FAE0
:101DE00003F00842F7D128782A2810D06FF02F028C
:101DF0002878A0F13001092914D80AEB8A0102EBF6
:101E0000410144F0020400EB010A6D1CF0E701CF30
:101E10005FEA000A03D544F40054CAF1000A44F012
:101E200002046D1C28782E2817D115F8010F44F0F4
:101E300004042A280ED06FF02F022878A0F1300178
:101E400009290AD809EB890102EB410100EB0109DC
:101E50006D1CF2E757F8049B6D1C28786C280FD096
:101E600006DC4C2817D068280DD06A2814D104E06D
:101E7000742810D07A280FD10DE044F400140AE041
:101E800044F4801401E044F440146978814202D1A2
:101E900004F580146D1C6D1C2A786E2A1FD00CDC92
:101EA000632A31D004DC002A8BD0582A11D1A3E058
:101EB000642A68D0692A0CD165E0732A2ED004DC2C
:101EC0006F2A73D0702A04D19BE0752A6FD0782ACC
:101ED0006ED01046DDE90F129047761C50E1C4F336
:101EE0000250022806D0032809D0042801CF09D0C7
:101EF000066045E101CFF117C0E9006140E101CF83
:101F000006803DE106703BE117F8040B8DF80000F8
:101F100000208DF80100EB46012003E057F804BBD8
:101F20004FF0FF3061074FF0000102D40DE008F1DF
:101F30000101884649450FDA8045F8DB1BF8081097
:101F40000029F4D108E008F1010188468142FADB5A
:101F50001BF808100029F6D1DDE90F23AAEB0800D1
:101F60008146214600F036F9304400EB080604E0D3
:101F7000DDE90F121BF8010B9047B8F10108F7D209
:101F800021464846F7E00A21C4F302534FF0000B04
:101F90000891022B04D001CFC117032B09D00AE00E
:101FA000FF1D27F00707F7E8020108E032E01FE015
:101FB00020E000B2C117042B01D140B2C117031EAB
:101FC00071F1000307DA4FF0000CD0EB0C006CEB62
:101FD00001012D2302E0230504D52B238DF82430A5
:101FE000012303E0E30701D02023F7E7984658E0F8
:101FF0000A2110E010210EE010204FF0000B089095
:102000000CE010214FF0000B44F004044FF00809DD
:10201000089103E008214FF0000B0891C4F302532C
:10202000022B04D001CF0021032B06D006E0FF1DB8
:1020300027F00707F7E8020103E080B2042B00D184
:10204000C0B24FF0000823072BD5702A07D0DDF867
:1020500020C08CF0100C5CEA0B0C05D00EE0402385
:102060008DF82430012308E050EA010306D0302324
:102070008DF824308DF8252002239846DDF820C005
:102080008CF0080C5CEA0B0C0BD150EA010301D177
:10209000630706D530238DF824304FF00108A9F1ED
:1020A0000109582A04D038A20B9208AA0A920BE020
:1020B0003AA2F9E75B46089AFEF7F0F80B9B9B5CA7
:1020C0000A9A521E0A92137050EA0102F2D10A983B
:1020D000ADEB000000F1200B600702D524F4803442
:1020E00001E04FF00109D94502DDA9EB0B0000E04A
:1020F000002000EB0B0141440890AAEB010AE00329
:1021000006D4DDE90F232146504600F063F806446B
:102110004FF0000908E009A911F80900DDE90F12E4
:10212000904709F10109761CC145F4DBE0030CD5A9
:10213000DDE90F232146504600F04CF8064404E048
:10214000DDE90F1230209047761C0899481E089050
:102150000029F5DC08E00A980A990078491C0A91E0
:10216000DDE90F129047761CBBF10001ABF1010BCA
:10217000F1DC21465046DDE90F2300F019F8064452
:102180006D1C1BE6092801003031323334353637F7
:1021900038396162636465660000000030313233B3
:1021A0003435363738394142434445460000000053
:1021B0002DE9F041044600251E461746880404D444
:1021C00005E039462020B0476D1C641EF9D528462D
:1021D000BDE8F0812DE9F041044600251E469046F9
:1021E000C80301D5302700E02027880404D505E086
:1021F00041463846B0476D1C641EF9D52846BDE8F7
:10220000F081000010B5044602F090F90022034965
:102210004FF47A7005F02AFB10BD0000052200087B
:1022200070B505460E4600BF2DB900BF0CA0FFF7E4
:1022300097FD00BF70BD00BF6C6A00BF00BF6CB1EE
:10224000607908280AD100BF00BF3068E169884280
:1022500004D100BF00BF284600F02AFA00BFE9E71A
:102260006E6574696620213D204E554C4C0000007F
:102270007CB5064600BF2EB900BF4AA0FFF770FD2F
:1022800000BF7CBD00BF746A00BF2CB900BF4CA06A
:10229000FFF766FD00BFF4E700BF00BF00BF0020EE
:1022A0006082A06A401C90B100BF00BFA06A1E30CF
:1022B0003C21B0FBF1F5B5F5803F01D34FF6FF753A
:1022C000A582A08A08B90120A08200BF00BFE06AF1
:1022D000401CA0B100BF00BFE06A1E303C21B0FB33
:1022E000F1F5B5F5803F01D34FF6FF756581608943
:1022F00008B90120608100BF00BF6089E081206BC8
:10230000401CA0B100BF00BF206B1E303C21B0FBC1
:10231000F1F5B5F5803F01D34FF6FF75A581A08992
:1023200008B90120A08100BF00BFA0892082608978
:10233000A189884204DBA089002801DD002060819A
:10234000E07910B1206A01900FE0207F7F2802DC45
:10235000FF21019108E0C02803DB6FF07F4101916C
:1023600002E04FF6FF71019100BF606A0090009893
:1023700048B900BFE06901990840009000BF00988B
:1023800040F08070009000BF00BF0A21204601F09D
:1023900017FA6B4601AA04F11C01304603F082FED5
:1023A00000BF6EE7646863705F62696E643A206EB6
:1023B0006574696620213D204E554C4C000000009C
:1023C000646863705F62696E643A20646863702059
:1023D000213D204E554C4C002DE9F0410646746AD3
:1023E00000BF00BF0821204601F0EAF9002204F1F5
:1023F0001C01304601F0CCFE05460DB100BF00BF08
:10240000A079FF2802DAA079401CA0714FF4FA7776
:1024100007F2F310394690FBF1F0208100BF00BFB6
:10242000BDE8F08170B500BF00BF1B4805682FE014
:102430006C6AFCB16079E8B1A08A78B1608A401C0E
:1024400080B26082A18A884208D100BF00BF2846BE
:1024500000F0E4FF284601F0BBF918E0208A50B1F3
:10246000218A481E2082012905D100BF00BF2846CD
:1024700001F065FA0BE0E08948B1E189481EE0818E
:10248000012904D100BF00BF284601F033FA2D68AE
:10249000002DCDD170BD0000500100202DE9F05F6E
:1024A00007460D4616469A4600BF3FB900BF45A0F5
:1024B000FFF756FC00BF0020BDE8F09F00BF00BF43
:1024C00035B900BF47A0FFF74BFC00BF0020F3E782
:1024D00000BF4FF420724FF49A71362003F0CEFE05
:1024E0008146B9F1000F03D100BF00BF0020E3E730
:1024F00000BFB9F80A00B0F59A7F04D200BF41A02E
:10250000FFF72EFC00BF00BF032E02D1687903281D
:1025100009D1A87920B94B480068401C4949086096
:1025200048480068286000BF00BFD9F804404FF455
:102530009A712046FDF70BFF01202070607097F81C
:102540003000A070286802F0ABFF6060082E0BD04E
:10255000042E09D0072E07D0032E07D1687905284D
:1025600002D06879042801D17868E0604FF0000853
:102570000BE007F12A0010F8081004F11C0000F825
:10258000081008F101001FFA80F8B8F1060FF0D327
:102590002D48C4F8EC000123352204F1F00100209D
:1025A00000F060FA8346324604F1F001584600F02C
:1025B00077FA8346BAF1000F01D0AAF800B0484676
:1025C0007AE70000646863705F6372656174655FD9
:1025D0006D73673A206E6574696620213D204E5503
:1025E0004C4C0000646863705F6372656174655F82
:1025F0006D73673A206468637020213D204E554C0E
:102600004C000000646863705F6372656174655FAD
:102610006D73673A20636865636B2074686174202A
:10262000666972737420706275662063616E2068DB
:102630006F6C642073747275637420646863705F78
:102640006D736700CC0100206382536310B500BF37
:102650000C480078002804DC00BF0BA0FFF780FBCB
:1026600000BF00BF07480078401E064908700846B2
:10267000007830B90D48006809F0D8FF00200B49F8
:10268000086010BDC8010020646863705F706362F9
:102690005F726566636F756E7428293A207265668D
:1026A000636F756E74206572726F7200C4010020D2
:1026B0002DE9FE4F0646746A00BF00BF0C2120467C
:1026C00001F07EF802AB042221463046FFF7E6FE19
:1026D000054675B3D5F804800423322208F1F001D1
:1026E000BDF8080000F0BEF90290E06902F0D8FEE3
:1026F0008246524608F1F001BDF8080000F000FAE9
:1027000002902A4608F1F001BDF8080000F074FAC2
:1027100014484323144A2946CDE900601348006851
:102720000AF04AF80746284604F0D4F800BF00BF74
:1027300004E0FFE700BF00BF4FF0FF37A079FF289C
:1027400002DAA079401CA07142F2107909F2F3106C
:102750004FF4FA7190FBF1F0208100BF00BF3846C2
:10276000BDE8FE8FFCDE000800DF0008C401002089
:102770002DE9FE4F07467C6A4FF0000A00BF00BFFC
:102780000020E0610621204601F01AF802AB012288
:1027900021463846FFF782FE0546002D4AD06E6876
:1027A00000BF00BF0223392206F1F001BDF8080086
:1027B00000F058F902903A8D06F1F001BDF80800DA
:1027C00000F0E2F902900323372206F1F001BDF890
:1027D000080000F047F90290D0460DE0274810F8B5
:1027E000082006F1F001BDF8080000F059F9029048
:1027F00008F1010000F0FF08B8F1030FEED32A46FC
:1028000006F1F001BDF8080000F0F6F900BF00BFC6
:102810001B4843231B4A2946CDE900701A4800682B
:1028200009F0CAFF00BF00BF284604F053F800BFFC
:1028300000BF01E000BF00BFA079FF2802DAA07945
:10284000401CA071A079062803DAA17901208840F4
:1028500000E03C2000EB4001C1EBC0104FF6FF71DF
:1028600001EAC00909F2F3104FF4FA7190FBF1F09C
:10287000208100BF00BF5046BDE8FE8FC001002090
:10288000FCDE000800DF0008C401002070B50D4820
:10289000056814E06C6A8CB12089012803DD208969
:1028A000401E20810AE02089012807D12089401E8E
:1028B000208100BF00BF284601F069F82D68002D77
:1028C000E8D170BD5001002070B505460E466C6A17
:1028D0000020206260621A48C07810B11948C068B0
:1028E000A0621748007918B116480069E06202E05A
:1028F000A06A4008E0621248407918B11148406966
:10290000206304E0A06AC0EBC000C0082063306907
:10291000E0610B48807938B10A49886902F0C0FD4E
:1029200020620120E07101E00020E0710448C079DC
:1029300020B10449C86902F0B3FD606270BD0000B7
:10294000B80100209090022070B50446656A00BF6F
:1029500000BF0C21284600F033FF054B1A461146F4
:10296000204603F09FFB2046FFF702FF70BD0000EA
:10297000FCDE000870B505460E466C6A00BF00BF5D
:102980000B48807880B1002020810A49886802F0D5
:1029900087FDA06100BF00BF3069E06100BF00BFDC
:1029A000284600F027FE01E000BF00BF70BD000018
:1029B000B80100209090022010B51C480078002833
:1029C0002DD100BF1A48006820B100BF19A0FFF741
:1029D000C7F900BF00BF09F0D1FD154908600846DE
:1029E000006810B94FF0FF3010BD11480068407A00
:1029F00040F020000E4909684872442217490C48EB
:102A0000006809F053FB432214490948006809F0A3
:102A1000BFFB002212490648006809F0E9FD03489F
:102A20000078401C014908700020DDE7C801002043
:102A3000C4010020646863705F696E635F706362E5
:102A40005F726566636F756E7428293A206D656DD7
:102A50006F7279206C65616B00000000FCDE00087D
:102A6000C13200082DE9F04104460D4617461E46C6
:102A700000BFA01C3044442804D900BF0748FFF71A
:102A80006FF900BF00BF2046611C8CB22F54204656
:102A9000611C8CB22E542046BDE8F0819CE00008F9
:102AA00070B504460D46164600BF442C04D300BF43
:102AB00005A0FFF755F900BF00BF2046611C8CB28E
:102AC0002E54204670BD0000646863705F6F7074A0
:102AD000696F6E5F627974653A206F7074696F6EAA
:102AE000735F6F75745F6C656E203C204448435083
:102AF0005F4F5054494F4E535F4C454E000000000D
:102B000070B504460D46164600BF201D442804D962
:102B100000BF0EA0FFF724F900BF00BF320E204611
:102B2000611C8CB22A54C6F307422046611C8CB249
:102B30002A54C6F307222046611C8CB22A54204630
:102B4000611C8CB22E54204670BD00006468637016
:102B50005F6F7074696F6E5F6C6F6E673A206F7035
:102B600074696F6E735F6F75745F6C656E202B2078
:102B700034203C3D20444843505F4F5054494F4E11
:102B8000535F4C454E00000070B504460D46164696
:102B900000BFA01C442804D900BF08A0FFF7E0F83C
:102BA00000BF00BF320A2046611C8CB22A54204666
:102BB000611C8CB22E54204670BD000064686370A6
:102BC0005F6F7074696F6E5F73686F72743A206FB5
:102BD0007074696F6E735F6F75745F6C656E202BB8
:102BE0002032203C3D20444843505F4F5054494FD1
:102BF0004E535F4C454E000070B504460D461646D8
:102C0000FF222046611C8CB22A5404E00022204698
:102C1000611C8CB22A54442C02D304F0030008B186
:102C2000442CF3D304F1F00081B2304603F0ECFE03
:102C300070BD00002DE9F04F8BB081460020079059
:102C40000690EC48002101604160B9F80A002C2888
:102C500003D2881E0BB0BDE8F08FD9F804000590B0
:102C60004FF0F00AB9F80800089000BF4C460AE09F
:102C70006089AAEB00001FFA80FA61890898401A5F
:102C800080B20890246814B160895045F0DD14B911
:102C90006FF00100DEE755460898099060680A90D9
:102CA0006DE10A98405D049000274FF0FF38A81CA2
:102CB0001FFA80FBAB4501DAB81ECBE76189681CBF
:102CC000814203DD691C0A98465C07E0206818B160
:102CD00020684068007800E00020064637460498E7
:102CE000342843D007DC78B1012811D003281ED046
:102CF000332871D12BE0352854D0362861D03A28BA
:102D000070D03B28F5D17CE00020064607468DE0D8
:102D100000BF042E07D000BFB7A0FFF721F800BF07
:102D20006FF0050096E700BF4FF006087EE004272D
:102D300000BFBE4207DA00BFB2A0FFF711F800BF24
:102D40006FF0050086E700BF4FF007086EE000BF98
:102D5000042E07D000BFA8A0FFF702F800BF6FF055
:102D6000050077E700BF4FF003085FE000BF012ECA
:102D700007D000BFA8A0FEF7F3FF00BF6FF005006B
:102D800068E700BF00BFBAF1F00F07D000BFA5A0F1
:102D9000FEF7E6FF00BF6FF005005BE700BF4FF0F6
:102DA000000843E000BF012E07D000BF9AA0FEF745
:102DB000D7FF00BF6FF005004CE700BF4FF00108E0
:102DC00034E000BF042E09D000BF8BA0FEF7C8FF7F
:102DD00000BF6FF005003DE722E003E000BF4FF0C9
:102DE000020823E000BF042E07D000BF82A0FEF738
:102DF000B7FF00BF6FF005002CE700BF4FF00408DD
:102E000014E000BF042E07D000BF7BA0FEF7A8FF90
:102E100000BF6FF005001DE700BF4FF0050805E09B
:102E2000002700BF00BF00BF00BF00BF00BF049865
:102E300010B9681C85B281E0A819801CB0F5803FEC
:102E400002DB6FF0010005E7A819801C85B2002F96
:102E500074DD0020039000BF00BFB8F1000F02DB5B
:102E6000B8F1080F04DB00BF74A0FEF779FF00BFC4
:102E700000BF604810F8080000285ED1042F01DA76
:102E8000384600E0042002905B4603A92046029ADF
:102E900003F0B4FC01460298814202D06FF00100B9
:102EA000D8E6042F2BDD00BFF91707EB91718910CD
:102EB000A7EB810139B100BF65A0FEF751FF00BF4C
:102EC0006FF00500C6E600BF01204A4901F808007E
:102ED000039802F0E5FA644941F82800381FC7B2A8
:102EE0000BF1040080B201900198584502DA6FF0AE
:102EF0000100AFE6DDF804B008F10108ACE7042FEB
:102F000004D1039802F0CCFA03900EE000BF012F29
:102F100007D000BF55A0FEF723FF00BF6FF00500EC
:102F200098E600BF9DF80C0003900120314901F89C
:102F300008004D49039841F8280000BF6089A84265
:102F40001CDC6089281A85B261890998401A80B210
:102F50000990099885420EDA246800BF3CB900BF89
:102F600047A0FEF7FDFE00BF6FF0050072E600BF50
:102F700060680A9002E06FF001006BE600BF3CB1B0
:102F80000998854204DA0A98405DFF287FF489AEEB
:102F900018480078D0B1344908680021154A1170EA
:102FA000012803D10121079100BF0EE0022803D1BF
:102FB0000121069100BF08E0032804D101210691F8
:102FC000079100BF01E000BF00BF00BF079830B10C
:102FD000002007904FF06C0AEC20089046E6069817
:102FE00030B1002006904FF02C0A6C2008903DE68E
:102FF00000202FE6B80100206C656E203D3D203496
:10300000000000006C656E203E3D206465636F64C7
:10301000655F6C656E0000006C656E203D3D203183
:10302000000000006F7665726C6F616420696E202D
:1030300066696C652F736E616D650000636865631A
:103040006B206465636F64655F69647800000000ED
:103050006465636F64655F6C656E20252520342090
:103060003D3D20300000000090900220696E7661A6
:103070006C6964206465636F64655F6C656E0000F5
:103080006E657874207062756620776173206E7546
:103090006C6C00002DE9FC4707467C6A00BF00BF4E
:1030A0000421204600F08CFB01AB03222146384668
:1030B000FFF7F4F90546002D44D06E68022339224B
:1030C00006F1F001BDF80400FFF7CCFC01903A8D49
:1030D00006F1F001BDF80400FFF756FD019003234F
:1030E000372206F1F001BDF80400FFF7BBFC0190A8
:1030F0004FF000080DE0254810F8082006F1F00117
:10310000BDF80400FFF7CCFC019008F1010000F0CD
:10311000FF08B8F1030FEED32A4606F1F001BDF81F
:103120000400FFF769FD4323194A2946194800970F
:10313000006809F0B3FA8146284603F0CBFB00BFD4
:1031400000BF03E000BF00BF4FF0FF39A079FF28A8
:1031500002DAA079401CA071A0790A2805DAA079CA
:103160004FF47A7110FB01F001E042F210701FFA87
:1031700080FA0AF2F3104FF4FA7190FBF1F020811B
:1031800000BF00BF4846BDE8FC870000C00100202A
:1031900000DF0008C40100202DE9FC5F8046D8F85C
:1031A000244000BF00BF0321204600F009FB01AB13
:1031B000032221464046FFF771F90646002E56D0FD
:1031C00075680223392205F1F001BDF80400FFF70C
:1031D00049FC01904FF4107205F1F001BDF80400B4
:1031E000FFF7D2FC01900423322205F1F001BDF873
:1031F0000400FFF737FC0190E06902F051F98346C3
:103200005A4605F1F001BDF80400FFF779FC019082
:103210000323372205F1F001BDF80400FFF722FC7B
:10322000019000270AE02348C25D05F1F001BDF8D6
:103230000400FFF735FC0190781CC7B2032FF2D3CE
:10324000324605F1F001BDF80400FFF7D5FC432339
:10325000194A31461948CDF80080006809F01EFA75
:103260008146304603F036FB00BF00BF03E000BFDD
:1032700000BF4FF0FF39A079FF2802DAA079401C87
:10328000A071A0790A2805DAA0794FF47A7110FBB1
:1032900001F001E042F210701FFA80FA0AF2F31016
:1032A0004FF4FA7190FBF1F0208100BF00BF484657
:1032B000BDE8FC9FC001002000DF0008C401002021
:1032C0002DE9F05F1646DDF828B0514847687C6A62
:1032D000D6F804900CB1207900B994E000BF00BF8B
:1032E00000BF00BF00BF00BF00BF00BF70892C2817
:1032F00002DA00BF00BF86E099F80000022802D081
:1033000000BF00BF7FE000250CE007F12A00415D0F
:1033100009F11C00405D814202D000BF00BF72E095
:10332000681CC5B297F83000A84201DD062DECD329
:10333000D9F8040002F0B4F82168884202D000BF36
:1033400000BF60E021463046FFF774FC10B100BFBB
:1033500000BF58E000BF00BF2E48407810B900BF42
:1033600000BF50E0D6F804A02B4890F80480B8F1D4
:10337000050F26D100BF00BF6079012810D151464A
:103380003846FFF7A1FA97F8310000F0080018B1AD
:103390003846FFF721F835E03846FEF769FF31E09F
:1033A0006079032805D06079042802D06079052867
:1033B00028D151463846FFF787FA3846FEF758FFBE
:1033C00020E0B8F1060F11D16079032808D06079A8
:1033D000012805D06079042802D06079052805D13C
:1033E00000BF00BF3846FFF7AFFA0BE0B8F1020F9D
:1033F00008D16079062805D100BF00BF5146384684
:10340000FFF7B8FA00BF304603F064FABDE8F09F5A
:1034100084420220B8010020909002202DE9FE4352
:103420000646746A00BF00BF0CB9BDE8FE83607930
:1034300000B9FAE7A06902900020A061E061206273
:1034400060622063E062A062A08260822082E081EC
:10345000304600F03BFA90B301AB072221463046DC
:10346000FFF71CF805465DB36F680423362207F1A9
:10347000F001BDF80400FFF7F5FA0190029802F0A0
:103480000FF88046424607F1F001BDF80400FFF74F
:1034900037FB01902A4607F1F001BDF80400FFF761
:1034A000ABFB432302AA294610480096006809F0A6
:1034B000F5F8284603F00EFA00BF00BF03E003E072
:1034C000FFE700BF00BF00BF094B1A461146304658
:1034D00002F0E8FD0021204600F072F9207918B1D1
:1034E000FFF7B4F80020207100BF9EE7C401002060
:1034F000FCDE00082DE9FC4707467C6A00BF00BFE0
:103500000521204600F05CF901AB03222146384634
:10351000FEF7C4FF0546002D45D06E680223392210
:1035200006F1F001BDF80400FFF79CFA01903A8D16
:1035300006F1F001BDF80400FFF726FB019003231C
:10354000372206F1F001BDF80400FFF78BFA019075
:103550004FF000080DE0254810F8082006F1F001B2
:10356000BDF80400FFF79CFA019008F1010000F09B
:10357000FF08B8F1030FEED32A4606F1F001BDF8BB
:103580000400FFF739FB432304F1180229461848C9
:103590000097006809F082F88146284603F09AF9FE
:1035A00000BF00BF03E000BF00BF4FF0FF39A079AC
:1035B000FF2802DAA079401CA071A0790A2805DA58
:1035C000A0794FF4FA6110FB01F001E044F62060AD
:1035D0001FFA80FA0AF2F3104FF4FA7190FBF1F03F
:1035E000208100BF00BF4846BDE8FC87C001002025
:1035F000C40100202DE9FE4F074600BF47B900BFB8
:103600005DA0FEF7ADFB00BF6FF00F00BDE8FE8FC1
:1036100000BF7C6A00BF3CB900BF5EA0FEF7A0FB04
:1036200000BF6FF00500F1E700BF00BF00BF012140
:10363000204600F0C5F802AB032221463846FEF7CB
:103640002DFF0646002E71D075680223392205F140
:10365000F001BDF80800FFF705FA02903A8D05F178
:10366000F001BDF80800FFF78FFA02900423322220
:1036700005F1F001BDF80800FFF7F4F90290E069E8
:1036800001F00EFF83465A4605F1F001BDF808002F
:10369000FFF736FA02900423362205F1F001BDF857
:1036A0000800FFF7DFF90290A06901F0F9FE8346F8
:1036B0005A4605F1F001BDF80800FFF721FA029023
:1036C0000323372205F1F001BDF80800FFF7CAF91E
:1036D00002904FF000080DE0354810F8082005F181
:1036E000F001BDF80800FFF7DBF9029008F10100D6
:1036F00000F0FF08B8F1030FEED3324605F1F001F8
:10370000BDF80800FFF778FA2A4843232A4A3146D1
:10371000CDE900702948006809F04EF8814630462E
:1037200003F0D8F800BF00BF04E0FFE700BF00BF10
:103730004FF0FF39A079FF2802DAA079401CA07170
:10374000A079062803DAA1790120884000E03C2016
:1037500000EB4001C1EBC0104FF6FF7101EAC00A57
:103760000AF2F3104FF4FA7190FBF1F0208100BFE0
:1037700000BF48464AE70000646863705F73656C89
:103780006563743A206E6574696620213D204E554C
:103790004C4C0000646863705F73656C6563743AD9
:1037A000206468637020213D204E554C4C00000081
:1037B000C0010020FCDE000800DF0008C40100207A
:1037C00042798A4203D0417100228271028170479E
:1037D00070B5044600BF3CB900BF2FA0FEF7C0FA89
:1037E00000BF6FF00F0070BD00BF00BF94F8310044
:1037F00000F0010038B900BF2BA0FEF7B1FA00BFFE
:103800006FF00F00EFE700BF656A00BF00BF208DBB
:10381000B0F5107F04DA00BF00BF4FF0FF30E2E7E1
:1038200075B900BF00BF342002F006F8054625B97F
:1038300000BF00BF4FF0FF30D5E7656200BF05E075
:1038400000BF00BF287908B1FEF700FF34212846E9
:10385000FCF77DFD00BF00BFFFF7AEF810B14FF0E1
:10386000FF30C0E70120287194F83100C0F38000D8
:1038700028B902212846FFF7A3FF0020B3E720461E
:10388000FEF776FF06462EB12046FFF7C7FD4FF044
:10389000FF30A8E73046A6E76E6574696620213DD3
:1038A000204E554C4C0000006E65746966206973AB
:1038B000206E6F742075702C206F6C642073747987
:1038C0006C6520706F72743F00000000014679B192
:1038D000486A68B14A6A50790A2805D050790528A3
:1038E00002D05079042801D1012070470020FCE764
:1038F0000020FAE770B505466C6A00BF00BF60792A
:10390000012805D060790A2802D06079052815D1F0
:1039100000BF00BF2846FFF7EDFDA189628A881A23
:1039200000EBD0710122B2EB610F07DCA189628A42
:10393000881A00EBD071C1F34F01E18170BD70B501
:1039400005466C6A00BF00BF6079012808D0607925
:103950000A2805D06079052802D06079042815D19D
:1039600000BF00BF2846FFF795FBA18A628A881A2C
:1039700000EBD0710122B2EB610F07DCA18A628AF1
:10398000881A00EBD071C1F34F01218270BD70B570
:1039900005466C6A00BF00BF60790C2802D06079D0
:1039A000062805D100BF00BF2846FEF7E1FE31E042
:1039B0006079012811D100BF00BFA079052803DC80
:1039C0002846FFF717FE25E000BF00BF2846FFF797
:1039D00025FD2846FFF7FCFE1CE0607908280CD185
:1039E00000BF00BFA079012803DC2846FEF7F4FCE5
:1039F00010E02846FEF73CFC0CE06079032809D172
:103A0000A079022803DA2846FFF7C6FB02E0284621
:103A1000FEF7AEFE70BD000070B504460D4600BF57
:103A200005F0030020B100BF05A0FEF799F900BF23
:103A300000BF2E46E06800683060E068066070BD38
:103A40006D656D705F667265653A206D656D20709D
:103A5000726F7065726C7920616C69676E65640065
:103A600070B50546E868046874B12068E9680860C4
:103A700000BF04F0030020B100BF05A0FEF770F9FD
:103A800000BF00BF204670BD00BF00BF0020FAE7A6
:103A90006D656D705F6D616C6C6F633A206D656D07
:103AA000702070726F7065726C7920616C69676EDE
:103AB0006564000070B50546002411E004EB440085
:103AC000094901EBC000067D4EB104EB440001EB57
:103AD000C0008068A84202D1204600F04FF9641C63
:103AE0000A2CEBDB70BD0000B09002202DE9FF5FD7
:103AF0000646894617464FF00A0AD346D0460024A8
:103B00000A200390002002900190009000BF73E013
:103B100004EB4400724901EBC000057DB8F10A0FC7
:103B200004D11DB900BF00BFA04663E0002D61D0E5
:103B300000BF012D06D0022D04DA00BF69A0FEF7F8
:103B40000FF900BF00BFBEB104EB4401644A02EBB1
:103B5000C1013068496888420ED13FB104EB44008E
:103B6000114601EBC0008068B84205D100BF00BF1C
:103B7000204604B0BDE8F09F012D28D104EB44009D
:103B8000574951F8300080B104EB440001EBC0000C
:103B9000418A029881422DDB039404EB4400504992
:103BA00001EBC000408A029024E004EB44004C4941
:103BB00001EBC000418A019881421BDBA24604EB65
:103BC0004400474901EBC000408A019012E0022DF9
:103BD00010DB04EB4400424901EBC000418A00982D
:103BE000814207DBA34604EB44003D4901EBC000E2
:103BF000408A0090601C04B20A2C89DB09F00200A4
:103C000028B9B8F10A0F07D109F0010020B900BFA7
:103C100000BF4FF0FF30ACE7B8F10A0F02DA4446BC
:103C200000BF2FE0BBF10A0F0FDA5C4600BF00BFF8
:103C300000BF04EB44002A4951F8300020B100BF16
:103C400038A0FEF78DF800BF10E0BAF10A0F02DAD3
:103C5000544600BF0AE003980A2802DA039C00BF1A
:103C600004E000BF00BF4FF0FF3082E700BF0A2C26
:103C700004DB00BF31A0FEF773F800BF00BF204691
:103C800000F07CF800BF0A2C04DB00BF2BA0FEF77D
:103C900067F800BF00BF00BF04EB4400104901EB10
:103CA000C000007D20B100BF29A0FEF759F800BF79
:103CB00000BF36B104EB4401094A02EBC101306890
:103CC0004860002004EB4401054A02EBC101488230
:103CD00004EB4400114601EBC0008760204648E732
:103CE000B09002207374617465203D3D20455448B6
:103CF0004152505F53544154455F50454E44494EE4
:103D000047207C7C207374617465203E3D204554BF
:103D1000484152505F53544154455F535441424CC3
:103D2000450000006172705F7461626C655B695D83
:103D30002E71203D3D204E554C4C000069203C200A
:103D40004152505F5441424C455F53495A4500002F
:103D50006172705F7461626C655B695D2E73746122
:103D60007465203D3D204554484152505F535441B5
:103D700054455F454D5054590000000010B50446AD
:103D800004EB4400194951F8300070B100BF00BF86
:103D900004EB4401154A52F8310002F09BFD00206B
:103DA00004EB4401114A42F83100002004EB4401C5
:103DB0000E4A02EBC101087504EB440102EBC1019C
:103DC000488204EB440102EBC101886004EB44012A
:103DD00002EBC101486004EB4400114601EBC00056
:103DE00003490A68C2608988018210BDB090022030
:103DF0000ADF0008F0B587B007460D4600BF35B9A9
:103E000000BF35A0FDF7ACFF00BF07B0F0BD00BF9D
:103E10007C682088B0F5807F08D12079062805D1FC
:103E20006079042802D16088082805D000BF00BF4F
:103E3000384602F04FFDE8E7D4F80E000690A0697E
:103E40000590686808B9002607E005986968884207
:103E500001D1012000E0002006460EB1012000E063
:103E60000220034604F1080206A9284600F0D0FB10
:103E7000E088B0F5807F03D0B0F5007F22D11AE052
:103E800000BF00BF86B1022206AB04F10800291D65
:103E9000CDE90232CDE9001005F12A0302462631B0
:103EA000284600F093FA05E0686808B900BF01E011
:103EB00000BF00BF09E000BF00BF06A92846FEF70B
:103EC000AFF902E000BF00BF00BF00BF384602F0FC
:103ED00001FD00BF99E700006E6574696620213D11
:103EE000204E554C4C0000002DE9FE4304460F4681
:103EF0001546A94600BF24B900BF57A0FDF730FF03
:103F000000BF00BF00BF27B900BF57A0FDF728FFC3
:103F100000BF00BF00BF25B900BF56A0FDF720FFBE
:103F200000BF00BF2146286800F0DBFE10B1DFF8BB
:103F3000548186E0287800F0F000E02816D10120B6
:103F40008DF8040000208DF805005E208DF8060035
:103F5000687800F07F008DF80700A8788DF80800D9
:103F6000E8788DF809000DF1040869E02868A16877
:103F70000840D4E90112114088420ED0288880B24E
:103F80004FF6A961884208D0E06810B104F10C092D
:103F900003E06FF00300BDE8FE833B48007800EBD0
:103FA00040003A4901EBC000007D02281BDB364887
:103FB000007800EB400001EBC0008068A04212D105
:103FC0003149097801EB4101304A02EBC101D9F8CE
:103FD00000004968884206D12B48027839462046BD
:103FE00000F056F8D7E7002622E006EB4600274906
:103FF00001EBC000007D022818DB06EB460001EB58
:10400000C0008068A04211D106EB46011F4A02EBB6
:10401000C101D9F800004968884207D11A480670E2
:1040200032463946204600F033F8B4E7701CC6B279
:104030000A2EDADB3A464946204600F0A9F8AAE7FC
:1040400000BF4FF40060434604F12A023946009055
:10405000204600F0C9FB9EE76E6574696620213D2D
:10406000204E554C4C0000007120213D204E554CF7
:104070004C00000069706164647220213D204E553F
:104080004C4C000004DF0008D0010020B09002205A
:10409000F8B505460E46144600BF04EB44002F4910
:1040A00001EBC000007D022804DA00BF2CA0FDF760
:1040B00057FE00BF00BF04EB4400284901EBC000DD
:1040C000007D022839D104EB440001EBC000408A96
:1040D000B0F58E7F11DD04EB44000A4602EBC00010
:1040E000011D284600F0FEF938BB032004EB440113
:1040F0001A4A02EBC10108751FE004EB440017499E
:1041000001EBC000408AB0F5877F16DB04EB44006A
:104110000B4603EBC00000F10C0204EB440003EB80
:10412000C000011D284600F0EBF930B9032004EB74
:1041300044010A4A02EBC10108754FF40060009087
:1041400004EB4400054901EBC00000F10C0305F14C
:104150002A023146284600F047FBF8BDB090022005
:104160006172705F7461626C655B6172705F6964DB
:10417000785D2E7374617465203E3D20455448413E
:1041800052505F53544154455F535441424C450093
:104190002DE9FE4F81460F46164609F12A0A4FF0D7
:1041A000FF300290002001904946386800F099FDE8
:1041B00038B9387800F0F000E02802D00FB1386844
:1041C00028B900BF00BF6FF00F00BDE8FE8F4A4660
:1041D00001213846FFF78AFC8046B8F1000F07DA64
:1041E00000BF00BF0EB100BF00BF4FFA88F0ECE780
:1041F00000BFB8F17F0F04D300BF5AA0FDF7B0FD98
:1042000000BF00BF08F0FF0404EB4400594901EB74
:10421000C000007D70B90120019004EB4401554AB3
:1042200002EBC101087504EB4400114601EBC0002C
:10423000C0F8089000BF04EB44004E4901EBC000F9
:10424000007D01280BD004EB440001EBC000007D91
:10425000022804DA00BF48A0FDF782FD00BF00BFBE
:10426000019800B93EB93946484600F03BF9029042
:104270000EB90298A9E700BF26B900BF48A0FDF714
:104280006FFD00BF00BF04EB44003A4901EBC000E2
:10429000007D022811DB454804704FF40060009057
:1042A00004EB440001EBC00000F10C035246314620
:1042B000484600F099FA029051E004EB44002D4981
:1042C00001EBC000007D012849D14FF0000B3546BD
:1042D00014E000BF68892989884206D1286820B186
:1042E00000BF33A0FDF73CFD00BF00BF287B00F0FE
:1042F000400010B14FF0010B02E02D68002DE8D115
:1043000000BFBBF1000F07D032464FF420710E20E2
:1043100002F07AF9054603E03546284602F0E8FB4C
:10432000BDB104EB4400134951F8300040B100BF67
:1043300000BF04EB44010F4A52F8310002F0CAFA00
:1043400004EB44000B4941F830500020029000BFBC
:1043500004E000BF00BF4FF0FF30029000BF0298A2
:1043600033E7000074797065206F766572666C6F54
:1043700077000000B09002206172705F7461626C1F
:10438000655B695D2E7374617465203D3D20504509
:104390004E44494E47206F7220535441424C4500D1
:1043A0007120213D204E554C4C000000D0010020D2
:1043B0006E6F207061636B657420717565756573D0
:1043C00020616C6C6F776564210000002DE9FC5F53
:1043D00006460F4690469946DDE90CAB0020019059
:1043E00000BF26B900BF2DA0FDF7BAFC00BF00BF7B
:1043F0004FF420721C210E2001F040FF05462DB91C
:1044000000BF00BF4FF0FF30BDE8FC9F00BF6889D0
:104410001C2804DA00BF25A0FDF7A2FC00BF00BFE6
:104420006C6800BF00BF0F9801F047F8E08000BF44
:1044300096F83000062804D000BF2948FDF790FC0C
:1044400000BF00BFD9F80000A060B9F80400A08147
:10445000DBF80000C4F81200BBF80400E082DAF8D0
:104460000000C4F80E000E980068A0614FF4807040
:10447000208008206080062020710420607140F6B2
:10448000060043463A4629460090304600F0ACF913
:10449000284602F01FFA00250198B5E76E65746999
:1044A0006620213D204E554C4C000000636865633A
:1044B0006B20746861742066697273742070627511
:1044C000662063616E20686F6C642073747275631C
:1044D00074206574686172705F6864720000000027
:1044E000E0E0000870B504460D4600BF00BF034A77
:1044F0002946204600F004F870BD000004DF0008E3
:104500007FB504460D4616460121074A201D04F1D9
:104510002A038DE825000391324619462046FFF70D
:1045200055FF04B070BD00000ADF000870B500BF81
:1045300000BF002466E004EB4400344901EBC000F6
:10454000057D002D5DD004EB440001EBC000408AE6
:10455000401C04EB44012D4A02EBC101488204EBEC
:104560004400114601EBC000408AB0F5967F0DDA99
:1045700004EB440001EBC000007D01280CD104EBEA
:10458000440001EBC000408A052805DB00BF00BFE6
:104590002046FFF7F3FB34E004EB44001B4901EB3A
:1045A000C000007D032807D1042004EB4401174A12
:1045B00002EBC101087524E004EB4400134901EB50
:1045C000C000007D042807D1022004EB44010F4AFB
:1045D00002EBC101087514E004EB44000B4901EB48
:1045E000C000007D01280CD104EB44020B4603EB14
:1045F000C202111D04EB440203EBC2029068FFF7F4
:1046000071FF641C0A2C96DB70BD0000B090022084
:104610002DE9F84305460E461746984600BF95F823
:104620003000062804D000BF2FA0FDF799FB00BF83
:1046300000BF00BF00BF5EB1306848B12946306896
:1046400000F04FFB20B9307800F0F000E02805D1F1
:1046500000BF00BF6FF00F00BDE8F8832A46414657
:104660003046FFF743FA0446002C01DA60B2F3E764
:10467000022004EB4401254A02EBC101087504EB5A
:104680004400114601EBC000856000BF00BF04EB91
:10469000440001EBC0003968C160B9880182002084
:1046A00004EB440102EBC101488204EB44001146D3
:1046B00051F83000B0B104EB440051F830900020C4
:1046C00004EB440142F831004FF400603B4605F131
:1046D0002A0249460090284600F086F8484602F033
:1046E000F9F800BF0020B7E76E657469662D3E6873
:1046F00077616464725F6C656E203D3D204554486F
:104700005F4857414444525F4C454E00B0900220F0
:104710002DE9F04104460E464FF00E0860890E2840
:1047200000DC59E0E07B18B996F83400401CE073D7
:10473000656800BF00BFAF89287800F00100B0B104
:104740002878012809D1687888B9A8785E280ED120
:10475000607B40F01000607309E006222149284682
:10476000FBF700FE18B9607B40F008006073082F6B
:1047700003D0B7F5C16F2AD114E096F8310000F0EC
:10478000080000B928E04146204602F0CFF920B1E8
:1047900000BF00BF00BF00BF1EE03146204600F052
:1047A000C7FA15E096F8310000F0080000B913E0F0
:1047B0004146204602F0BAF920B100BF00BF00BF59
:1047C00000BF09E031462046FFF714FB00E003E09C
:1047D00000BF0020BDE8F081204602F07BF80020F9
:1047E000F8E7000004DF00082DE9F04705460E4613
:1047F00017469846DDF82090484600F05EFE824657
:104800000E21304601F0E8FC00B120E07468A4F805
:104810000CA0D8F800002060B8F80400A080386828
:10482000C4F80600B888608100BF95F830000628FB
:1048300004D000BF08A0FDF793FA00BF00BF00BF7F
:1048400000BF31462846AA699047BDE8F08700BFFF
:1048500000BF6FF00100F8E76E657469662D3E6871
:1048600077616464725F6C656E206D75737420622D
:1048700065203620666F722065746865726E657497
:104880005F6F7574707574210000000010B50446E8
:1048900000BF24B900BF0DA0FDF762FA00BF00BF42
:1048A000652084F832006E21332001550B48606189
:1048B0000B48A061204600F057FC002209494FF444
:1048C0007A7002F0D3FF002010BD00006E6574699D
:1048D0006620213D204E554C4C000000E93E00086A
:1048E000555300080522000800BF00236422194622
:1048F0000D48006808F014FD0128F6D100BF0B48F0
:10490000006800F0ADFC0446002CEED007480068BB
:104910000269064801682046904718B1204601F018
:10492000D9FFE2E7EBE70000280000202400002088
:1049300070B504460D46E1B20548FDF70BFA00BF1D
:1049400080210348FDF78EF90028F9D0204670BD7C
:104950000010014070B505460C462246032128464A
:1049600000F02EF970BD00002DE9F04F85B004462F
:104970008A46774880680390039800780007860E7F
:10498000142E02DA00BF00BFD9E06089042802D2E9
:1049900000BF00BFD3E0606805786068407804908D
:1049A00015B1082D72D100E0C4E0DFF8A49109F13F
:1049B00014096748007D00F0F000E02802D100BF34
:1049C00000BFC0E0624A1168506900F08AF910B176
:1049D00000BF00BFB7E000BF00BF2089082802D297
:1049E00000BF00BFABE0204600F050F938B100BF77
:1049F00000BF204601F06EFF05B0BDE8F08F06F164
:104A00000E01204601F0E8FB002845D02089304403
:104A10001FFA80FB2089584502DD00BF00BF92E0ED
:104A20004FF4207259460E2001F028FC074617B9B2
:104A300000BF00BF87E0798906F10800814205D2F6
:104A400000BF00BF384601F045FF7CE03246786881
:104A50000399FBF754FC3146384602F067F850B131
:104A600000BF00BF3BA0FDF77BF900BF00BF384689
:104A700001F030FF67E02146384601F0EDFD30B12E
:104A800000BF00BF384601F025FF5CE03EE0204655
:104A900001F020FF3C460DE006F10E01204602F039
:104AA00045F838B100BF00BF38A0FDF759F900BF85
:104AB00000BF48E0D4F804803146204601F08CFB6A
:104AC00008B100BF21E06768D9F80000F86020480D
:104AD00000693861002088F80000A8F80200FF2073
:104AE00038720020788101200021FF230A46CDE999
:104AF000010A00914946204600F03AFA8346BBF18C
:104B0000000F01D000BF00BF00BF13E0032D0ED087
:104B10000B2D0CD00C2D0AD0042D08D0052D06D05D
:104B20000D2D04D00E2D02D0112D00D000BF00BFDE
:104B300000BF00BF00BF204601F0CCFE5CE720466E
:104B400001F0C8FE58E7204601F0C4FE00BF53E75D
:104B50008442022069636D705F696E7075743A20DB
:104B60006D6F76696E6720722D3E7061796C6F6132
:104B70006420746F2069636D70206865616465727C
:104B8000206661696C65640A0000000069636D70ED
:104B90005F696E7075743A20726573746F72696EB6
:104BA00067206F726967696E616C20702D3E70615D
:104BB000796C6F6164206661696C65640A0000004D
:104BC0002DE9FF470746884691464FF4207224217D
:104BD000222001F053FB05461DB900BF00BFBDE810
:104BE000FF8700BF6889242804D200BF1CA0FDF7FE
:104BF000B7F800BF00BFD7F804A000BF00BF00BFD8
:104C000000BF00BF00BF00BF00BF00BF00BF6C6897
:104C100084F8008084F801900020A080E08079680A
:104C20006A6802F108001C22FBF769FBDAF80C0045
:104C3000039003A800F04CFA06465EB100206080A5
:104C400001200021FF2303AACDE901060091284697
:104C500000F08EF9284601F03DFE00BFBFE70000DE
:104C6000636865636B20746861742066697273742D
:104C700020706275662063616E20686F6C642069C5
:104C8000636D70206D65737361676500F0B50646EE
:104C900000270024354619E06989686800F034FC73
:104CA0000444A0B200EB1444688900EBD0714910B1
:104CB000A0EB410149B10FB9012000E000200746F7
:104CC000E0B2C4F3072141EA00242D68002DE3D1AE
:104CD00027B1E0B2C4F3072141EA0024E04380B2E7
:104CE000F0BD18B502460092D04300B10AB90120C8
:104CF00018BD91F8310000F0020008B90020F7E774
:104D00004868904201D10020F2E700988B68184073
:104D1000D1E901342340984208D1886822EA000092
:104D20008C68E343984201D10120E1E70020DFE7EE
:104D30002DE9F04780460E464FF0010AD8F804509E
:104D400028780421B1EB201F07D000BF00BF4046E8
:104D500001F0C0FD0020BDE8F08728780007870E2D
:104D6000688800F0AAFB8146B8F80810494503DDC1
:104D70004946404601F048FEB8F80A00B84205DB53
:104D8000B8F80800484501DB142F14DA142F01DAB3
:104D900000BF00BFB8F80A00B84201DA00BF00BF88
:104DA000B8F80800484501DA00BF00BF404601F0EE
:104DB00091FD0020CFE728695C494861E8680861F7
:104DC0000846007D00F0F000E0280AD196F8310096
:104DD00000F0010018B1706808B134461CE00024EE
:104DE0001AE0304600F0A6F808B1344614E000247A
:104DF0004E48007D7F280FD04D48046809E0B4423A
:104E000000D105E0204600F095F800B103E000BFB6
:104E10002468002CF3D100BF7CB9687A11280CD12A
:104E2000E81900BF00BF4188B1F5884F04D100BF29
:104E300000BF34464FF0000A00BFBAF1000F15D092
:104E40003A48006990B1394908693146FFF749FF8E
:104E500028B93648007C00F0F000E02806D100BFF9
:104E600000BF404601F036FD002074E734B900BFB2
:104E700000BF404601F02EFD00206CE7E8884FF6A9
:104E80003F71084030B1404601F024FD00BF00BF33
:104E9000002060E700BF00BF00BF00BF23480460E0
:104EA0004660856028780007800E20498881394651
:104EB000404601F03BFE687A01280DD0062806D056
:104EC00011280ED13146404607F0CEF923E0314695
:104ED000404603F077FB1EE031464046FFF744FDB5
:104EE00019E0124948692146FFF7FBFE68B90F48EF
:104EF000007D00F0F000E02807D039B2404601F014
:104F000059FD02214046FFF725FD00BF00BF404686
:104F100001F0E0FC00BF00BF0020044908604860C9
:104F2000886088810861486100BF14E784420220DC
:104F30005001002010B5044600BF00BF94F83100B6
:104F400000F0010080B1606870B108484069616894
:104F5000884205D0054948692146FFF7C2FE18B1CD
:104F600000BF00BF012010BD0020FCE784420220EA
:104F70002DE9FE4F07460C4615469846DDE90C9A8A
:104F80000E9EA34625B10CB1206808B906F1040BAA
:104F900043462A4659463846CDE9009A029600F023
:104FA00003F8BDE8FE8F00002DE9F84F05460E46D8
:104FB00017469946DDF828B0DDF830A000BFA87B81
:104FC000012804D000BF31A0FCF7CAFE00BF00BF1B
:104FD000002F43D04FF014081421284601F0FCF8AC
:104FE00028B100BF00BF6FF00100BDE8F88F6C680A
:104FF00000BF6889142804D200BF27A0FCF7B0FEC8
:1050000000BF00BF84F808900B9860723868206178
:1050100040464FEAE87108EB9171C1F3870141F016
:105020004001217084F801B0288900F046FA6080C0
:105030000020E0802448008800F03FFAA080224849
:105040000088401C204908801EB920480068E060A4
:1050500001E03068E060002060810BE0688914287E
:1050600004DA00BF00BF6FF00100BEE76C68206982
:1050700000906F4600BF00BF00BF00BF3A46294600
:105080005046DAF814309847AFE70000702D3E72B2
:105090006566203D3D203100636865636B20746860
:1050A0006174206669727374207062756620636132
:1050B0006E20686F6C6420737472756374206970FD
:1050C0005F68647200000000D2010020FCDE00086E
:1050D00010B502462248016821E091F8310000F045
:1050E0000100D8B191F83100C0F38000B0B1486838
:1050F000A0B110688B681840D1E901342340984270
:1051000001D1084610BD91F8310000F0020028B925
:105110001068CB68984201D10846F3E70968002976
:10512000DBD110480068A0B10E48006890F831004B
:1051300000F0010068B10B48006890F83100C0F33E
:10514000800030B107480068406810B110787F28AF
:1051500003D100BF00BF0020D4E702480068D1E7B8
:1051600050010020540100207CB50446062084F83C
:105170003000022084F82A0000212B2001552C2029
:1051800001552D2001552E2001552F20015540F2AB
:10519000DC5020850A2084F8310028480460284823
:1051A0000068B0B90322012008F07CF824490860A7
:1051B0000846006830B100231A46194620480068A6
:1051C00008F0F2F900231A4619461D48006808F055
:1051D000A7F804F12A010020FBF758FE052219491F
:1051E0001948FBF7EFFA052218491948FBF79AFA14
:1051F000002506E0164901EB45100121FBF7C4FA32
:105200006D1C052DF6D3002507E00F4901EB451075
:105210004FF44001FBF7FEFA6D1C052DF5D300207D
:105220001F2103464FF4AF72CDE9001009A10B48CE
:1052300008F05CFBFBF796FF7CBD0000240000201B
:1052400028000020D02100206C0300200C04002046
:10525000CC0200204574685F69660000E9480008D8
:105260002DE9F04F87B04FF000080024A146002739
:10527000002003906846FBF7C3FB9DE8070004ABE2
:1052800007C3DDF810A0DDF814B0BAF1000F07D0A5
:105290001FFA8AF14FF4C172002000F0EFFF804640
:1052A000B8F1000F2ED0069E0024454628E06F89F5
:1052B0004FF0000915E040F2F4531A1B0BEB040108
:1052C0006B6803EB0900FBF71AF8F668D6F808B02C
:1052D00040F2F450001B3F1A40F2F450001B81448E
:1052E0000024381940F2F4518842E4D80BEB040151
:1052F0006A6802EB09003A46FBF701F83C442D6866
:10530000002DD4D1069E0020039006E04FF000400F
:105310003060F6680398401C03900C480068816870
:1053200003988142F2D8002008490968886008483B
:10533000406900F0800020B18020054948610020CC
:105340008860404607B0BDE8F08F000040000020B4
:10535000009002402DE9F05F8B464FF000090024D9
:105360000027A2463848006880B9032200210120A6
:1053700007F098FF344908600846006830B1002300
:105380001A4619463048006808F00EF90023FA2240
:1053900019462D48006807F0C3FF002850D02B485D
:1053A0000668D6F8088000245D463CE0306800F0CE
:1053B000004000B13DE06F894FF0000A20E040F26C
:1053C000F4531A1B6B6803EB0A0108EB0400FAF7AD
:1053D00096FFF668306800F0004000B129E0D6F88A
:1053E000088040F2F450001B3F1A40F2F450001BBA
:1053F000824440F2F450001B48441FFA80F9002414
:10540000381940F2F4518842D9D86A6802EB0A018F
:1054100008EB04003A46FAF772FF3C4409EB070038
:105420001FFA80F92D68002DC0D14846FBF7F4FD26
:1054300000BF00231A4619460348006808F0B4F874
:105440000020BDE8F09F00002C0000203800002064
:105450002DE9F041044625466868804702F0BEF910
:1054600006460D49286809684718B81BB0F1004F77
:1054700001D3012000E0002030B1296888192246BC
:10548000064902F029FA04E022460449384602F0AF
:1054900023FABDE8F0810000A80100205154000863
:1054A0000146080601F47F4240EA022001F47F022F
:1054B00040EA122040EA1160704701460806000CDD
:1054C00040EA11207047000008B50020009000BF9E
:1054D0006846804204D000BF0A48FCF741FC00BF88
:1054E00000BF00BF00BF02F0A1F800F02FF900F0EC
:1054F000DBFB00F099FD06F0B5FE03F061F802F069
:1055000059FA08BD10DF0008F8B505460A462B46D3
:1055100000200090002103F0010636B1002A04DDCE
:1055200013F8010B8DF80100521E1C4603E034F8FD
:10553000027B3944921E012AF9DC002A02DD207820
:105540008DF80000BDF80000014488B200EB114165
:1055500088B200EB114126B1C8B2C1F3072747EA70
:10556000002188B2F8BD00001CB5FBF7DFFF4FF447
:1055700080611048FBF7C9FF4FF400610D48FBF74D
:10558000C4FF4FF480510B48FBF7BFFFFBF73EF819
:1055900009A0FCF7E5FB0020012103460A02CDE942
:1055A00000100AA10B4808F0A1F907F0EBFC00BFBE
:1055B000FEE70000001C02407374617274696E673C
:1055C0002075702121210D0A000000004D61696ED7
:1055D000000000009D17000870B5054615B900BF12
:1055E00000BF70BD05F0030058B100BF00BF2CA084
:1055F000FCF7B6FB00BF00BF00BF00BF00BF00BF8D
:10560000EFE7A5F108042F480068844205D305F1AF
:105610000C002D49096888420BD900BF00BF2BA0A0
:10562000FCF79EFB00BF00BF00BF00BF00BF00BF74
:10563000D7E72D4802F02CF8207970B900BF00BFE1
:105640002AA0FCF78DFB00BF00BF274802F082F8BC
:1056500000BF00BF00BF00BFC3E7204600F0C0F896
:1056600070B900BF00BF2BA0FCF77AFB00BF00BFE2
:105670001D4802F06FF800BF00BF00BF00BFB0E7D9
:105680000020207130480068844201D22E48046016
:10569000204601F093FA144802F05CF800BFA0E73E
:1056A0006D656D5F667265653A2073616E697479C8
:1056B00020636865636B20616C69676E6D656E74ED
:1056C0000000000014010020180100206D656D5FCE
:1056D000667265653A20696C6C6567616C206D6502
:1056E0006D6F7279000000001C0100206D656D5F18
:1056F000667265653A20696C6C6567616C206D65E2
:105700006D6F72793A20646F75626C6520667265A0
:10571000650000006D656D5F667265653A20696CB5
:105720006C6567616C206D656D6F72793A206E6F84
:105730006E2D6C696E6B65643A20646F75626C6582
:1057400020667265650000002001002010B500BFD2
:1057500000BF174820F00300164908600846046897
:105760004FF4A05020800020608020714FF4A050A2
:1057700001F0FAFD104908600120096808714FF432
:10578000A0500D49096808800B49096848800948FC
:1057900000680A4908600A4801F0BEFF30B100BF46
:1057A00000BF08A0FCF7DCFA00BF00BF10BD00007E
:1057B0009F42022014010020180100202001002037
:1057C0001C0100206661696C656420746F2063723F
:1057D00065617465206D656D5F6D75746578000039
:1057E0002DE9F0410446204600F046F905462088A0
:1057F00001F0BAFD0646608801F0B6FD0746208834
:10580000B0F5A05F10D86088B0F5A05F0CD86088B4
:10581000A84202D03888A84206D1064800688642CD
:1058200005D07088A84202D00020BDE8F081012098
:10583000FBE70000180100202DE9F0478146B9F18F
:10584000000F02D10020BDE8F08709F1030020F02D
:10585000030085B20C2D00D20C25B5F5A05F01D850
:105860004D4501DA0020EEE7534801F011FF53489F
:10587000006800F001F9064692E0304601F074FD40
:105880000446207900286AD1218806F10800081A08
:10589000A84264D3218806F10800091A05F1140012
:1058A000814225D306F1080028441FFA80F800BF82
:1058B000B8F5A05F04D100BF41A0FCF751FA00BFCA
:1058C00000BF404601F050FD074600213971218894
:1058D00039807E80A4F80080012020713888B0F5DE
:1058E000A05F07D0388801F03FFDA0F8028001E0FA
:1058F0000120207131480068844223D12F48D0F81C
:1059000000A004E0BAF8000001F02EFD82469AF8EB
:10591000040018B12F4800688245F3D12748C0F829
:1059200000A000BF00682B490968884208D02348BE
:105930000068007920B100BF27A0FCF711FA00BF72
:1059400000BF00BF1C4801F005FF00BF04F10800C4
:10595000284420490968884206D900BF00E01BE0BE
:1059600024A0FCF7FDF900BF00BF00BF04F0030056
:1059700020B100BF2BA0FCF7F3F900BF00BF00BFB0
:1059800004F0030020B100BF32A0FCF7E9F900BF2A
:1059900000BF04F1080056E7304601F0E5FC068838
:1059A000C5F5A050B0423FF668AF034801F0D2FE03
:1059B00000BF00BF002046E71C010020200100209E
:1059C000696E76616C6964206E657874207074729B
:1059D00000000000180100206D656D5F6D616C6C4A
:1059E0006F633A20216C667265652D3E7573656440
:1059F000000000006D656D5F6D616C6C6F633A2037
:105A0000616C6C6F6361746564206D656D6F727934
:105A1000206E6F742061626F76652072616D5F65C4
:105A20006E642E006D656D5F6D616C6C6F633A2006
:105A3000616C6C6F6361746564206D656D6F727904
:105A40002070726F7065726C7920616C69676E6529
:105A5000642E00006D656D5F6D616C6C6F633A2044
:105A600073616E69747920636865636B20616C692A
:105A7000676E6D656E740000014602480088081A62
:105A800080B27047140100202DE9F84F81468B4603
:105A90000BF1030020F0030085B20C2D00D20C2581
:105AA000B5F5A05F01D85D4502DA0020BDE8F88FAA
:105AB00000BF52480068814503D3514800688145C2
:105AC00004D300BF4FA0FCF74BF900BF00BF4B4809
:105AD0000068814503D34A480068814505D300BF6B
