:020000040800F2
:10000000382B0220790200080D3D0108652B0108FC
:10001000093D01085B1C01089D4D0108000000001E
:10002000000000000000000000000000C101000806
:10003000B51D01080000000015020008F54B01087D
:10004000930200089302000893020008930200083C
:1000500093020008930200086D1E01089302000835
:10006000930200089302000893020008930200081C
:10007000930200089302000893020008930200080C
:1000800093020008930200089302000893020008FC
:1000900093020008930200089302000893020008EC
:1000A00093020008930200089302000893020008DC
:1000B00093020008930200089302000893020008CC
:1000C00093020008930200089302000893020008BC
:1000D00093020008930200089302000893020008AC
:1000E000930200089302000893020008930200089C
:1000F000930200089302000893020008930200088C
:10010000930200088D44010893020008930200083E
:10011000930200089302000893020008930200086B
:10012000930200089302000893020008791D010859
:10013000930200089302000893020008930200084B
:10014000930200089302000893020008930200083B
:10015000930200089302000893020008930200082B
:10016000930200089302000893020008930200081B
:10017000930200089302000893020008930200080B
:1001800093020008930200089302000893020008FB
:1001900093020008930200089302000893020008EB
:1001A000C138010893020008251D0108DFF80CD0B2
:1001B00000F022F900480047C96D0108382B0220E1
:1001C0002A4B19680868B0E8F04F80F30988BFF33C
:1001D0006F8F4FF0000080F311887047000000001F
:1001E00006480068006880F3088862B661B6BFF30D
:1001F0004F8FBFF36F8F00DF00BF00BF08ED00E03F
:10020000DFF80C00016841F470010160704700BF25
:1002100088ED00E0EFF30980BFF36F8F134B1A688E
:100220001EF0100F08BF20ED108A20E9F04F10607B
:1002300008B44FF0500080F31188BFF34F8FBFF325
:100240006F8F17F063FD4FF0000080F3118808BC3A
:1002500019680868B0E8F04F1EF0100F08BFB0EC46
:10026000108A80F30988BFF36F8F70476801002000
:10027000EFF30580704700000648804706480047B6
:10028000FEE7FEE7FEE7FEE7FEE7FEE7FEE7FEE746
:10029000FEE7FEE7054C0108AD0100082DE9F05F1F
:1002A0000546002092469B468846064681464024E5
:1002B0001BE0284641464746224600F08CF853464C
:1002C0005A46C01A914110D311461846224600F0F2
:1002D00073F82D1A67EB01084F46224601200021D2
:1002E00000F06AF817EB00094E41201EA4F101044A
:1002F000DFDC484631462A464346BDE8F09F10B54C
:10030000441A0346944209D28418114403E011F8B8
:10031000013D04F8013D521EF9D210BD40EA01042E
:10032000A40703D009E010C9121F10C3042AFAD28F
:1003300003E011F8014B03F8014B521EF9D210BD36
:10034000D2B201E000F8012B491EFBD27047002217
:10035000F6E710B513460A4604461946FFF7F0FFC4
:10036000204610BD421E12F8013F002BFBD111F8B0
:10037000013B02F8013B002BF9D17047421C10F8F9
:10038000011B0029FBD1801A704710B5002200E044
:10039000521C835C8C5CA34201D1002BF8D1D8B2F3
:1003A000E1B2401A10BD034611F8012B00F8012BF1
:1003B000002AF9D118467047202A04DB203A00FAB7
:1003C00002F1002070479140C2F1200320FA03F3AC
:1003D000194390407047202A04DB203A21FA02F0AA
:1003E0000021704721FA02F3D040C2F1200291406F
:1003F0000843194670470000064C074D06E0E068C8
:1004000040F0010394E8070098471034AC42F6D35B
:10041000FFF7D0FE7CDD01089CDD010870B58C186B
:1004200010F8015B15F0070301D110F8013B2A1108
:1004300006D110F8012B03E010F8016B01F8016BF5
:100440005B1EF9D12B0705D40023521E0DD401F8F1
:10045000013BFAE710F8013BCB1A921C03E013F8BA
:10046000015B01F8015B521EF9D5A142D8D30020EF
:1004700070BD000070B5456882B00446014628464C
:1004800008F036F968B123680F2B59D00BDD282B03
:1004900045D0B3F5107F3CD0112B49D0204608F051
:1004A000D9FB02B070BD0B2B20D00E2BF6D1E36828
:1004B0001A6859680D2A53D0202A31D100292846BC
:1004C0004FF480717DDD08F0FFF9284601F0C6FE8B
:1004D00002AB846A43F8040D184601F091FFA207AD
:1004E000DFD52846012109F07BFFDAE7284601F035
:1004F000B5FE02AD03466830019301F091FC55F85A
:10050000040D03216C3001F0B1FC284601F078FFA6
:10051000C4E7324B214628461B689847C1E7E36889
:10052000002BBBD128464FF4807108F0C5F8B5E721
:100530002B4B1B68002BB4D0214628469847B0E7C8
:10054000284601F08BFE02AB43F8040D426E14689E
:10055000184601F055FF002CA3D02846A047A0E77D
:100560000029DDDD4FF48071284608F0ADF92846FA
:1005700001F074FE02AC866A44F8040D204601F0D6
:100580003FFFB10703D50121284609F029FF4FF4A9
:100590008071284608F090F8284601F05FFE034677
:1005A00020461E8E9C6A019301F02AFF304605F01A
:1005B000CFF8A3077FF575AF2846022109F010FF99
:1005C0006FE708F079F8284601F048FE02AB846A2C
:1005D00043F8040D068E1846E6E700BF64020020CB
:1005E0001C0902202DE9F04FB0F90A60B0F90C7037
:1005F0008569B0F90E80B0F91090B0F908A087B005
:100600008B4616441F4404464C3503F029F8DFF8A6
:10061000CCC0CDF800B04FF0000E4246394630460F
:1006200003954B46CDF808C0CDF804E008F014FA65
:10063000804628B905F096FA404607B0BDE8F08F2D
:1006400001F00CFE244F0590514610223E1D08F08B
:1006500057F90DF118090FCE59F804ED0EF13405D4
:100660000FC50FCE0FC596E80F0085E80F007B6B16
:10067000CEF86430484601F0C3FE7B6B40465B68B1
:10068000984705F06FFA656802F0EAFF404601F00E
:10069000E5FD846E049004A8059401F0B1FE29469E
:1006A000484606F001FC0028C4D0059B9C4209D0B6
:1006B000404601F0D3FD059A8266034604A80493E0
:1006C00001F09EFE404609F0B7FA05F04BFA4046AD
:1006D00007B0BDE8F08F00BF640200207504000879
:1006E000F0B5954A8168436852F8216089B00446A4
:1006F000122B3FD8DFE803F0AE3E3E3E3E0A963E68
:100700003E3E3E3E3E3E3E3E3E3E4100F569002DB1
:1007100040F0B280371F57F8040F04F08BFF04F14C
:1007200010000FC85B1B521B29442844013502F0FE
:10073000CDFB022DEFD132696169E3690192A269B3
:100740002069F76800970B445B100231521B284464
:1007500002F092FAE3696169B2690192A2692069C3
:1007600074690094194449100131023B521B28441A
:1007700002F082FA002009B0F0BD006801F06EFDC1
:10078000856E0490002D00F0CF80A368B0F95C70F6
:10079000002B00F0C780032B14BF0023022300EBC3
:1007A0008303406D1C6C04F05DFF204604F042FFA3
:1007B00008AC06A802F046FEB6F81CE0BDF818101A
:1007C000BDF81C20BDF81A0054F8106DBDF81E309D
:1007D0007144CEEB02020230023BADF81810ADF8C6
:1007E0001C20B6F95E10B6F96020ADF81A0006A814
:1007F000ADF81E3004F04AFA204601F001FE022056
:1008000004F08EFF284601F029FD08AC06A944F843
:100810000C0D3A4602F034F9204601F0F1FD0020BB
:1008200009B0F0BD006801F019FD049020680BF0DC
:10083000DBF8A8B9049B5D6F05B9DD6E04A801F073
:10084000DFFD0023284621681A4602F0BDF800208B
:1008500009B0F0BD00680AF0D9F8002009B0F0BD79
:10086000A368002B64D1049A136F002B14BF6C2370
:10087000682313445D68E1E7B368039373680293E8
:10088000374600F1140157F804090EC90190206998
:10089000009505F00FFF002557F8040F04F0CAFE7D
:1008A000F369A26921696069D21A1944284402F0E7
:1008B000B7FAF369A2692169E069D21A1944401BA9
:1008C00002F0AEFAF369E26961692069D21A19444B
:1008D000284402F007FCF369E2696169A069D21A51
:1008E000401B1944013502F0FDFB022DD4D1B06844
:1008F00004F0A0FEF16920696569E36942185B1A9A
:10090000013A2944023002F045FCF169A2696569A7
:10091000E369501A5B1A01302944023A02F03AFCAA
:10092000F56908E701233AE704A801F069FD21E72A
:10093000049BDD6E82E700BF84D3010810B5044636
:1009400082B078B102F08CFE204601F087FC02AB49
:10095000448E43F8040D1846C4F3002401F050FD02
:1009600005F000F9204602B010BD00BF00B9704785
:1009700030B5044683B00D4602F072FE204601F009
:100980006DFC02AB456543F8040D184601F038FDD7
:10099000204609F051F905F0E5F803B030BD00BF7D
:1009A0002DE9F047466886B00546304601F056FC12
:1009B000C36D0090D0F88840D0F88070D0F868807F
:1009C000B0F87C90002B63D0D3F800A0684601F00B
:1009D00017FD14B909E024683CB1636828469847BC
:1009E0000028F8D006B0BDE8F0872B68172B00F080
:1009F000A4801DDC0F2B00F08C807CDC0B2B00F026
:100A0000BE800D2B0AD119F0080F07D1EB68DB6807
:100A100023B11B7A13B1304609F00CFF304629464A
:100A200007F066FE0028DDD0284608F013F9D9E764
:100A3000262B74D02EDC1E2B00F0AD80202BEDD1A8
:100A4000EC68002CEAD0314660680AF0B7FF002855
:100A500000F0BE80304601F001FCB0F87C3001901F
:100A6000190740F12A8101A801F0CAFC31466068EB
:100A70000AF092FF0028D1D0304601F0EFFB034688
:100A80006268019001A8C3F8802001F0B9FCC5E7B5
:100A90009A469BE72A2B65D0B3F5107FBED130462E
:100AA000D5F80C8001F0DAFB06ACB0F87C7044F8A5
:100AB000140D204601F0A4FCEB68002B92D098F8AE
:100AC0000830002B00F0A980390740F1B58030468E
:100AD00007F07AFF07F48873B3F5887F82D107F0B7
:100AE00080039BB2002B7FF47DAF41463046052248
:100AF00009F044FE76E7112B22D0142B8ED130461C
:100B000001A900F04BFC02AB03CBEB681860596005
:100B100068E7BAF1000F81D03046D0477EE7EB6836
:100B2000022B7FF45FAF06A9272241F8142DA86895
:100B3000039604930BF0BCF854E7C5F80C8051E71A
:100B40003046EC6801F08AFB01902389012B05D126
:100B5000B0F87C3043F48073A0F87C3001A801F039
:100B60004FFC5BE7304601F079FBEB680090002B0F
:100B700066D0C0F88430684601F042FC32E7304667
:100B800001F06CFB03467030009301F049F96846B0
:100B900001F036FC42E7EC68012C55D0002E3FF402
:100BA00021AF02F05DFD304601F058FBB0F87C301B
:100BB00001901C0706D523F00803A0F87C303046CE
:100BC00009F03AF801A801F01BFC04F0CBFF09E79B
:100BD000304601F043FBB0F87C3001901A0706D58F
:100BE00023F00803A0F87C30304609F025F801A86E
:100BF00001F006FC314620680AF0CEFE00283FF4E2
:100C00000DAF304601F02AFB03462268019001A88F
:100C1000C3F8802001F0F4FB00E7304601F01EFB32
:100C2000B0F87C200190034622F480722046A3F89D
:100C30007C2001F0E5FBD5E6304609F0FBFD46E7F8
:100C4000D0F88430EB6096E7384609F015FB18B30E
:100C5000384609F0EFFD384608F0C4FEA8B926B9B9
:100C6000002F7FF4BFAEEF60BCE602F0F9FC304627
:100C700001F0F4FAB0F87C3001901A0725D501A8EC
:100C800001F0BEFB04F06EFFEAE72146384607F0AC
:100C90001BFE002EE4D0E8E7404609F037FE074689
:100CA000304601F0DBFA03466846C3F880700093D3
:100CB00001F0A6FB002ED3D0D7E743F00803A0F83D
:100CC0007C30304608F0B8FFCDE643F00803A0F8CA
:100CD0007C30304608F0B0FFD1E700BF2DE9F04F7F
:100CE0000F46B0F90C10B0F90AB08569B0F90E6082
:100CF000B0F910A0B0F812804D4C8FB001EB030991
:100D0000B0F908300493436805939344603502F0CA
:100D1000A7FC4FF4805E324600974946584603953B
:100D200053460294CDF804E007F096FE064628B933
:100D300004F018FF30460FB0BDE8F08F01F08EFAD6
:100D4000DFF8F4A0049906903022554607F0D8FD4C
:100D50000DF1380B0FCD5BF8207D07F134040FC483
:100D60000FCD0FC495E80300189B84E8030000250D
:100D70007B66DAF82830FB65C7F88050FD66C7F857
:100D80008850A7F87C80584601F03AFB09A9304604
:100D900000F004FBBDF92A10BDF92800BDF92C2094
:100DA000BDF92E30234C03955B1A121A41F282755D
:100DB0000132013302940096019507F04DFEDAF8F6
:100DC000283004465B6830469847304601F046FAC2
:100DD000034658469C66069301F012FB304608F025
:100DE00089F802F03DFC304601F038FA036F0790B5
:100DF00007A8089301F004FB059908A806F054F829
:100E000038B904F0AFFE04F0ADFE30460FB0BDE8D7
:100E1000F08F304601F022FA089A0267034607A8CD
:100E2000079301F0EDFA304608F006FFE9E700BF4E
:100E3000A1090008351700089C0200202DE9F041A7
:100E4000044690B0006800F0CDF9B04B6668A3F19D
:100E50002C05002808BF1D461C2E00F2F880DFE894
:100E600016F02200F600F600F600F6003500F60057
:100E7000F600F600F600F6005100F600F600FB0062
:100E8000F600F600F6000F01F600F60049014B01EE
:100E90004D014F01F600F600F6001D006E69304668
:100EA00010B0BDE8F081206801F0D8F910ABB0F8BF
:100EB0005A2043F82C0D42F00C02A0F85A20184694
:100EC00001F09EFA206809F0A1FDE8E72B69019383
:100ED000B4F910E0B4F91470B4F91860B4F91C4016
:100EE000EB6800933246704639462346ADF82060E1
:100EF000ADF81CE0ADF81E70ADF82240002601F000
:100F0000BBFECCE71C2320680893079001F0A6F9EC
:100F1000036D059007A89847064605A801F070FAEA
:100F2000012E40F32681AB6802936B6801932B6816
:100F30006269A16920690093334605F0B1FA276917
:100F4000A3693744C6EB0308286804F073FB4246E4
:100F50003946606901F064FF686804F06BFB606902
:100F600042460130394601F05BFF6B6A022B00F309
:100F7000F3802A6A964218DA63692069012E03F128
:100F8000020740F32481024406EB0308013A30448F
:100F90004346394602F0FEF8A069821BEB69C01A8D
:100FA00039464346013002F0F5F8012ED4BF666998
:100FB0006369E7692868CCBFF6180236013F04F080
:100FC00039FB3A463146206902F08CF83A46314600
:100FD000A06902F087F8E769686804F02BFB2069D4
:100FE000023F3A460130314602F07CF8A0693A46A9
:100FF0000138314602F076F8EB69022B40F382802B
:10100000AB6AE769A868022BCCBFFF1A023F04F065
:1010100011FBEA69022A00F396802B6A022B00F387
:101020008880286804F006FBA2692169E06901F064
:10103000F7FE686804F0FEFAA2692169E069013AE6
:101040000131013801F0ECFEAE6A022E60DC0026B0
:10105000304610B0BDE8F08104F114010EC9A86853
:101060002569ADF81E10ADF82020ADF82230ADF89E
:101070001C5004F0DFFA07A802F0B8F800260EE7CB
:10108000298B2269A3696669E5692068ADF81E604D
:101090005B1A0A44ADF82030ADF81C20ADF82250A0
:1010A00001F0DCF8036F0590FBB1022004F038FB7F
:1010B000059AB2F87C30C3F3C0030E3302EB83030E
:1010C000986804F0B7FA059B586B04F0CBFA059BBF
:1010D000186F01F0C3F8059B0690B3F95A2007A9D1
:1010E00001F0CEFC06A801F08BF905A801F088F903
:1010F0000026D4E6AE6AD2E6EE69D0E62E6ACEE6E7
:101100006E6ACCE62B6A022B8BDD79E7CC030020DC
:10111000A269E7692169A8688C1C951E04F08AFA07
:10112000B91B2A4620460131BB1E02F033F80026C7
:10113000B5E6A269E869101A3B4631460130023A29
:1011400002F028F86DE720690244013A02303B467C
:10115000314602F01FF860E7A86804F06BFA616995
:101160006B6A0B4442463846013B023102F012F8EA
:101170001BE7286804F05EFA2169EA6960690A449D
:10118000013A01F04DFEA269E9696069511A013125
:1011900001F046FE676920690137394601F06CFEAF
:1011A0003946A06901F068FE686804F043FA2069D6
:1011B0003946013001F060FEA0693946013801F07E
:1011C0005BFE2769A3690237A3F10208BCE602446B
:1011D000013A02303B46394601F0DCFFA069B846CF
:1011E000821EDBE610B5044682B080B102F038FA08
:1011F000204601F033F802ABB0F87C4043F8040D10
:101200001846C4F3C00401F0FBF804F0ABFC204620
:1012100002B010BD2DE9F041044684B00E4602F044
:101220001FFA24B904F09EFC04B0BDE8F08120460A
:1012300001F014F8458EC36D039005F02005ADB2A2
:101240009F6845B1B0F954502DB9406B02F064F974
:10125000039B851C00E003465E6303A801F0D0F801
:101260003B680121204698473B68064603212046FB
:1012700098473B688046002120469847074620460D
:1012800000F01AFA4346324629462046009700F0FD
:1012900099F9204608F0D0FC04F064FC04B0BDE8E5
:1012A000F08100BF00B9704730B5044683B00D46E9
:1012B00002F0D6F9204600F0D1FF036F0090684697
:1012C000019301F09DF8294601A805F0EDFD18B93C
:1012D00004F048FC03B030BD204600F0BFFF019A87
:1012E000026703466846009301F08AF8204608F03A
:1012F000A3FC04F037FC03B030BD00BF2DE9F04380
:1013000085B020B90546284605B0BDE8F0830446FF
:101310000E4602F0A5F9204600F0A0FFB0F95450A7
:101320000390B5422AD0418E01F0200189B219B153
:101330006DB303462F4601E003460F46DA6DA3F86E
:101340005460966801213368204698473368804688
:10135000032120469847336800218146204698475C
:101360000646204600F0A8F9204600964B46424625
:10137000394600F027F9204608F05EFC03A801F08A
:101380003FF804F0EFFB284605B0BDE8F083406B62
:1013900002F0C2F8039B871CD0E700BF2DE9F04F95
:1013A00089B007460D4600F059FFC36D05909C6853
:1013B0000121236838469847236803218046384630
:1013C00098472368022183463846984723680021BE
:1013D0008246384698478146059809F0FBFE064646
:1013E000059809F0FFFE03460598448E04F020049A
:1013F000A4B2B4B1B0F95420B0F95840002A4ED08C
:1014000091B2C06E0C44A4B280B1039102920193D8
:1014100008F022F8019B029A03990FFA80FE80B22D
:1014200005E021462246C06E0028EED186461FFA0E
:1014300089FC013ECBEB060B6444013B0CF1FF3C05
:101440008C44CAEB03030FFA8BFB0FFA88F80444B1
:101450006B812A80A5F802E0A5F812C0A5F808B0B3
:10146000A5F810B0A5F80480A5F80C80A5F80E909A
:10147000EC8005A800F0C4FF08AAB5F9103042F8C6
:10148000043D3846B5F90C30069306A900F04CF837
:10149000069A079BAA812B8209B0BDE8F08F406BAA
:1014A000019302F039F8023081B20C4402B2A4B2C6
:1014B0000598019BB7E700BF08B5438E03F02003F2
:1014C0009BB24BB10246B0F9540000B108BD506B5D
:1014D00002F022F8023008BD184608BD70B58AB087
:1014E0000C46064600F0BAFE0AABC26D43F8280D62
:1014F0001846956800F084FF0196032C05D8DFE8B4
:1015000004F00F0C0902172302936B6801A8984797
:101510000AB070BD15230293F7E716230293F4E790
:1015200018230293F1E700BF2DE9F04383B088460A
:101530000446914600F092FE034602A8DA6D40F898
:10154000083D9568B3F90070B3F9026000F058FFE8
:101550002B682046002198470546204607F0E2FE0A
:1015600060B3044607E001A800F04AFF204607F0F8
:1015700017FF044610B3204600F070FEB0F90230A9
:1015800001909B1B9D42EED1836A1B060BD5B0F9DF
:101590000030D9F80020DB1B934203F1FF33E2DC7B
:1015A000C9F80030DFE7B0F90430D8F80020DB1BC1
:1015B0009342A4BF0133C8F80030D4E703B0BDE8BC
:1015C000F08300BF2DE9F04F83B00E469B460546E1
:1015D000144600F043FE0DF10808C26D48F8080DEE
:1015E000D2F80890FFF768FF0746404600F008FF72
:1015F000D9F80030012128469847D9F80030032156
:10160000824628469847D9F800308046002128466F
:101610009847B742814644D0284607F083FEBE1B58
:101620000546002844D00C9B0027C8EB0B0BC3EBEE
:101630000909C4EB0A0AB8460AE0B4F5007F10D0E5
:1016400001A800F0DDFE284607F0AAFE054678B3A3
:10165000284600F003FE846A019004F42074802C74
:10166000EBD1BEB9836A1A0609D49B05E8D507FBFE
:1016700006A14A46284608F059FE0137E0E708FB74
:1016800016B14A46284608F051FE019B08F10108B0
:101690009B6AEAE728463246314608F011FF019876
:1016A000E0E7A245B8D1D845B6D10C9B9842B3D15A
:1016B00003B0BDE8F08F00BF70B586B0064600F0FD
:1016C000CDFD034606A89C6E40F8183DDD6E00F087
:1016D00097FE84B96DB1304601A9FFF75FFEBDF9F1
:1016E0000A20BDF90630BDF908102846D21A08F0C4
:1016F000DFFD06B070BD304601A9FFF74FFEBDF912
:101700000A20BDF90810204608F0D2FDBDF90A00F4
:10171000BDF90E20BDF90C30BDF90810121A591A86
:1017200020460132013109F09BF9002DD7D106B0D6
:1017300070BD00BF2DE9F043456887B004462846D8
:1017400007F03CFE074600F089FD034606A85E6EE2
:1017500040F8143DD3F84880D3F8809000F050FE54
:1017600023680E3B232B3FD8DFE803F035463E3E8F
:101770003E3E12123E123E3E3E3E3E3E18243E3E4D
:101780002B3E3E3E3E3E3E3E3E3E3E3E3E3E3E309A
:10179000204607F05FFA07B0BDE8F083E368002B4E
:1017A000F9D0B9F1000F3BD04D4539D0484609F08A
:1017B00041F8F0E72146384606F09AFF07B0BDE849
:1017C000F083C4F80C8007B0BDE8F0830023E36029
:1017D00007B0BDE8F083E3685A68002A04DD1B689F
:1017E000092B1DD00A2B1FD0002ED1D067602046B8
:1017F000B04707B0BDE8F0836FF07043984504D060
:10180000404606F0E7FB00F08DFE002EC3D094E8C2
:101810000F0002AC84E80F0020460395B047BAE7FA
:10182000284609F073F8B6E7284609F0B7F8B2E79A
:1018300038B5204B204C1D6801F012FF284606F0F9
:10184000C9FB04F08FF91D4B1D6801F009FF284604
:1018500006F0FAFB04F086F901F002FF236801228A
:101860001A7604F07FF901F0FBFE236800259D85C0
:1018700004F078F901F0F4FE23685D8504F072F954
:1018800001F0EEFE284606F011FC04F06BF90C4B5B
:101890001D6801F0E5FE236805B1DD6104F062F921
:1018A00001F0DEFE236800229A76BDE8384004F09D
:1018B00059B900BF40020020440200203C02002031
:1018C00038020020014B83E803007047180702200C
:1018D000014B83E80300704720070220014B83E897
:1018E0000300704728070220704700BF704700BF01
:1018F0002DE9F04F4F4E3368DA69B3F92250D469BD
:10190000B4F80CB083458BB07DD8E18981427AD39D
:10191000216808914FF0FF31CBEB000B0791BBF131
:10192000FF3F6AD0177EB3F92A80A27CB3F92490D6
:1019300094F810A017FB02F34046069306F0B6FB9E
:101940003368069A0899099002FB0B109A6BDB69C1
:1019500004900592A27C03924FF0010BCDF808B0E1
:10196000DA7E01929B7E009328463B4652464946CA
:1019700005F010FD079801301CD048F0020006F079
:1019800095FB2C4A079812680899069B03FB0013E5
:10199000916BD26905910493A37C0393CDF808B0B1
:1019A000D37E0193937E009352463B464946284698
:1019B00005F0F0FC33681F4FDB695A7E1B7E9A42AC
:1019C00014D9B8F1020F11D088F0040006F06EFBB4
:1019D0003B68DB69187ED97E9A7E5B7E00FB0191B5
:1019E0000AFB02524B44284605F0E4FE9DF8240011
:1019F00006F05CFB3368B3F92250627C15445D84C9
:101A00000BB0BDE8F08FA1680029F6D00F88B8426E
:101A1000F3D3B1F802E08645EFD34968C01B80B22A
:101A20006768089701EB800731F920B0B7F9021019
:101A3000079174E744020020044B1B68DB69DB69F3
:101A400009B11A7C0A60587C704700BF440200202C
:101A500002230B80704700BFC3699A898A4202D86B
:101A6000DA898A4211D2986818B10388994201D262
:101A70000020704742888A42FAD3C91A436833F873
:101A80002100C043C0F3C03070470120704700BF41
:101A90002DE9F04F3E4D2B68DA69B3F92A60D3691E
:101AA00089B043B11A88904202D35988814205D245
:101AB0009B68002BF6D109B0BDE8F08FD3F8048005
:101AC000DFF8CC90841A08EBC407304697F802B0D0
:101AD00006F0ECFA8246286818F83420D0F81CE0AA
:101AE000D0F838C09EF81830B0F92410B0F92200B0
:101AF000CDF814C006934FF0010C7B680493CDF829
:101B00000CB0CDF808C09EF81BC0CDF804C09EF8FC
:101B10001AE0069BCDF800E005F03CFC2B68DA6982
:101B2000537E92F818B05B4523D9022E069320D03D
:101B3000D17E079101F08AFC064601F051FC03F0CA
:101B400079FDD9F8002018F834C0D469B2F9220020
:101B500094F81BE00799B2F92440069B0CFB0E0297
:101B600001FB034301FB0B4105F024FE304603F06B
:101B700061FD504606F09AFA2B687978D8695A8C3C
:101B8000807E00FB01225A8409B0BDE8F08F00BFBF
:101B900044020020114B70B41B68DD69EB6943B14E
:101BA0001A88904202D35C88844205D29B68002B3D
:101BB000F6D1184670BC70475E68AC7E821A06EBA0
:101BC000C2035B7813FB04F00029F3D016F832301F
:101BD00014FB03F30B6070BC704700BF440200208D
:101BE00001230B80704700BFC06950B103888B424E
:101BF00002D843888B4203D280680028F6D1704710
:101C0000012070472DE9F047234E3368002B3FDD5C
:101C1000224D234F2C68D7F80090C3EB431804EBF8
:101C2000880808F10C080C344FF0000AA4F10803EE
:101C3000742218464946FEF762FB221F2063A06308
:101C400044F80CAC6263E4607C34A045EED100241F
:101C5000A04603E092B13268904514DA10F01CFE01
:101C60002B681A59904203EB040108F1010804F1B2
:101C70007C04EFD104313960BDE8F087086004319D
:101C80003960BDE8F087194604313960BDE8F08756
:101C9000024B034F1968EDE7E4020020800902209F
:101CA00044020020F8B5194F194B1A4E384640F837
:101CB0000C3F05F0E5F83468C4EB4414A40020465A
:101CC00000F006F9144B386022461B680021984743
:101CD0004FF0FF33736010F0E9FD3368002B11DD26
:101CE0000024254603E072B133689D420ADA10F001
:101CF000D3FD3B681A599042234405F1010504F1D4
:101D00007C04F0D1F8BD1860F8BD00BF8009022046
:101D10004D030108E4020020F002002000B97047E2
:101D200010B5044601F09CFC20460AF08FFA0446E8
:101D300003F018FF204610BD70B5054601F090FC79
:101D400025B9002403F00EFF204670BD01F088FC89
:101D500028460AF07BFA044603F004FF002CF0D07A
:101D6000144E1549F269736B0132F26113F8342095
:101D7000013203F8342003EBC4032A465D680B6884
:101D800005F10800002198472968726B12F831307C
:101D9000012B01D9F06930B9013B02F8313003F071
:101DA000E1FE204670BD0138013BF06102F83130A0
:101DB000F5E700BF280A0220F0020020024B21F0C4
:101DC000030183E8030070473007022000B9704721
:101DD00070B50D4C054601F043FC636BEE003344D7
:101DE000596848680AF084F8626B6368616A16444F
:101DF000013300206360716002F835006562BDE860
:101E0000704003F0AFBE00BF280A022028B1034A89
:101E1000D36B036003B15860D0637047280A022077
:101E2000F8B5054601F01CFC2C68B4B10E4E01F06B
:101E300017FC736BE7003B44596848680AF058F890
:101E4000716B7368726A0F440133002073607A60AB
:101E500001F83400746203F085FE00232B60BDE8B6
:101E6000F84003F07FBE00BF280A022000292BDDC6
:101E70002DE9F0470025154F8A46041FA94601F0B9
:101E8000EFFB54F8046F0135B6B101F0E9FB7B6B51
:101E90004FEAC6084344596848680AF029F8796B44
:101EA0007B687A6A884401337B60C8F8042001F8B3
:101EB00036907E6203F056FEC4F8009003F052FEA6
:101EC000AA45DCD1BDE8F087704700BF280A022090
:101ED000F8B5894E96F828300446002B2FD00334ED
:101EE000356CF26B24F003040434A54238BF254658
:101EF00062B152F8043C9D42144604D114E054F8F7
:101F0000043C9D4210D02468002CF8D1F368B46BD7
:101F10001C4454F8041C611A0B68002B65D14B68F3
:101F20009D426CDD002408E023680BB161685960B4
:101F3000616801B10B60A24253D02046F8BD6F4BDF
:101F40009A685868012186F828100AB982089A60B0
:101F50005A25356210272022402519683764B2645B
:101F6000356580274FF480724FF40075B76532668F
:101F7000B5664FF480674FF400624FF48055A1F1CD
:101F800014033767B267C6F880504FF400574FF418
:101F900080424FF400450344C6F88870C6F890208C
:101FA000C6F898504FF480374FF400324FF4802534
:101FB000C6F8A070C6F8A820C6F8B05002220125C5
:101FC0004FF40027B16373633261F060C6F8B870F4
:101FD0005D607562756009F08BFF0CF0E1FC3563A4
:101FE0007DE72368F3632046F8BD00200EF098FCDF
:101FF00054F8041C611A0B68002B93D18FE7D6F8B4
:10200000B8703D4A581B041DBB420C4472D2D2F832
:10201000B070BB426CD2D2F8A870BB4266D2D2F884
:10202000A070BB4260D2D2F898709F425AD9D2F8C1
:102030009070BB4254D2D2F88870BB424ED2D2F8D4
:102040008070BB4248D2926F934243D2376F2A4A84
:10205000BB423DD2976EBB4238D2176EBB4233D2E1
:10206000976DBB422ED2176DBB4229D2976CBB42F3
:1020700024D2126C93420CD2F2687369521B2B4427
:10208000F260736110B944F8045C56E709F030FF60
:10209000F9E700223768D1F808E0FB1A3360CB6813
:1020A000BEF1000F01D0CEF8043013B1C3F800E048
:1020B000E2E706EBC202C2F844E0DDE70122E9E70D
:1020C0000222E7E70322E5E70422E3E70522E1E74E
:1020D0000622DFE70722DDE70822DBE70922D9E74E
:1020E0000A22D7E70B22D5E70C22D3E70D22D1E74E
:1020F0000E22CFE70F22CDE7280A02203007022068
:10210000F8B54A4C94F82830002B3DD0D4F8BC30B8
:10211000464A3BBBD2F8B43023BBD2F8AC300BBB41
:10212000D2F8A430F3B9D2F89C30DBB9D2F89430AD
:10213000C3B9D2F88C30ABB9D2F8843093B9D36F2D
:1021400083B9536F73B9E36E63B9536E53B9D36DEB
:1021500043B9536D33B9D36C23B9536C13B96FF0D2
:102160000B00F8BD9B68002BF9D0002201E09B68B2
:1021700043B159689B689142104684BF0A46104695
:10218000002BF4D10C38F8BD294B9A68586801210E
:1021900084F828100AB982089A601968A1635A263F
:1021A0001022202526622264A564402780264FF451
:1021B00080724FF40075A1F114032765A6652266AD
:1021C000A5664FF480674FF400664FF480524FF4D9
:1021D000005503442767A667C4F88020C4F88850D8
:1021E0004FF480474FF400464FF480324FF40035EF
:1021F000C4F89070C4F89860C4F8A020C4F8A8503F
:10220000022201254FF480274FF4002663632261E8
:10221000E060C4F8B070C4F8B8605D606562656085
:1022200009F066FE0CF0BCFB25636FE7280A02206C
:102230003007022030B1044B5B6B03EBC0004368F6
:1022400058680C38704700BF280A0220024A936978
:1022500001339361704700BF280A0220074AD16901
:10226000536B0131D16113F83020013203F8302073
:1022700003EBC00358680830704700BF280A0220EB
:10228000F8B5584C01F0ECF994F82830002B57D0F1
:10229000D4F8BC30534A9BBBD2F8B43083BBD2F8DD
:1022A000AC306BBBD2F8A43053BBD2F89C303BBBF4
:1022B000D2F8943023BBD2F88C300BBBD2F88430E8
:1022C000F3B9D36FE3B9536FD3B9E36EC3B9536EA8
:1022D000B3B9D36DA3B9536D93B9D36C83B9536CB0
:1022E00073B96FF00B034049DA1781FB0313C2EB9C
:1022F0006313246A04FB03F403F034FC2046F8BDA6
:102300009B68002BF5D0002201E09B6843B159681F
:102310009B689142104684BF0A461046002BF4D1B8
:102320000C38B0F5800F0346DDD8226A2E4B02FB35
:1023300000F0A3FB00235C0903F014FC2046F8BD69
:102340002A4B9A685868012184F828100AB9820833
:102350009A601968A1635A261022202526622264F9
:10236000A564402780264FF480724FF40075A1F1D8
:1023700014032765A6652266A5664FF480674FF4AF
:1023800000664FF480524FF4005503442767A66758
:10239000C4F88020C4F888504FF480474FF40046BA
:1023A0004FF480324FF40035C4F89070C4F8986050
:1023B000C4F8A020C4F8A850022201254FF48027B9
:1023C0004FF4002663632261E060C4F8B070C4F883
:1023D000B8605D606562656009F08AFD0CF0E0FA46
:1023E000256355E7280A02201F85EB51300702209C
:1023F000024A9369013B9361704700BF280A02209B
:1024000030B403680A4A53F8085C0446506B10F86D
:102410003530012B03D9D16909B10139D161013BB3
:1024200000F8353000221046226030BC704700BFF3
:10243000280A0220034B5B6B03EBC00040680830A6
:10244000704700BF280A02202DE9F04114460646D5
:10245000884601F005F9204601F004F8E8B9A70024
:102460001B4D3B1905EB8303DA68B24206D11B69A9
:10247000434503D1BDE8F04103F074BB3B1905EBC4
:1024800083035869D0B93C4405EB8404E660C4F882
:102490001080BDE8F04103F065BB0D4B04EB8404F4
:1024A00003EB840463689A685968C2EB0802711AE6
:1024B00003F006F9BDE8F04103F054BB5B689A688D
:1024C0005968C2EB0802711A02F01AFDDBE700BF7F
:1024D000E0070220C3B2CAB29A1A92B230B415B25F
:1024E000002DBCBF524215B2C0F30723C1F307222F
:1024F0009B1A9BB2090C1AB2C1EB1041002A89B297
:102500000CB2BCBF5B421AB2002CBCBF49420CB239
:1025100002FB02F205FB0520A1B201FB010030BC69
:10252000704700BF2DE9F041002182B0084601F05C
:1025300009F801F095F8042005F0B8FD174B1B6968
:10254000DD6C1C6DA5F57F57A4F57F5605F57F550D
:1025500004F57F5480463F3F3F353F3E3F34684659
:10256000ADF80070ADF80450ADF80260ADF806406B
:1025700008F040FE48B123462A463146384605F069
:1025800019F908F0CBFC0028F5D1404605F08EFD86
:1025900003F0E8FA02B0BDE8F08100BF3402002089
:1025A0002DE9F047044682B00D461646002B38D080
:1025B0009A46009626680B9B0A9A51462046B047D9
:1025C000074618B9384602B0BDE8F08706F024FE89
:1025D000618A8046384606F077F9384608F082FA74
:1025E000013D404608F07EFA002DC8BF4FF00009BB
:1025F00004DC1AE008F076FA013D16D054F81C6F9E
:10260000CDF80090002320461A464146B0470646C2
:102610000028EFD1384606F04DFB304602B0BDE849
:10262000F08706F007FE8246C3E740461D2108F00A
:1026300031F8BAF1FF3FC5D001F012F806F080FE84
:1026400060B9BA4502D0384608F060F903F08AFA5A
:10265000384602B0BDE8F0870028F4D0FFF7EAFE64
:1026600080698742F8D1F1E780B582B000AF786029
:10267000054B1B68002B03D0034B1B6878689847F9
:1026800000BF0837BD4680BDE80A0220012B12DCDE
:10269000F8B506461C2017460C461D46FFF718FCE9
:1026A000B8B154B104610023836085618782C6603C
:1026B00003604360F8BD00207047074B53F82520A6
:1026C0000AB9F0E71A461368002BFBD113690361BE
:1026D000E9E70020F8BD00BF080B0220012B3BDC1E
:1026E0002DE9F84381461C2090460F461E46FFF711
:1026F000EFFB054600287FD0414A002F31D0002350
:10270000DFF804E152F8264003609EF800100761EC
:102710008E428661A0F81480C0F80C9043608360FC
:1027200002DB731C8EF80030002C5DD021464C6813
:10273000002CFBD1D9F80000CB681B6883422CDD4C
:1027400009680029F8D148B92E4B16361A68284670
:1027500042F82650BDE8F883002070472846BDE8BF
:10276000F88352F82610002930D0084600E01846B9
:102770000368002BFBD1DFF890E000692B60286133
:102780009EF80000AE618642A5F81480C5F80C9052
:102790006B60AB60CBDB0C46C3E70AD04B6843B33E
:1027A0001D606B608D4214BF0B4600234D602B6093
:1027B000C9E7B8F1010FF1D104E0D9680C6884428F
:1027C0001946EBDB0B68002BF7D1E7E7DFF838E0C1
:1027D00001609EF8003086619E42A0F81480C0F827
:1027E0000C9041608160D6DA42F82650D9F800009A
:1027F000A9E742F82650D5E70020BDE8F88300BFDE
:10280000080B022044020020000B0220FFF7FEBA52
:1028100000283CD070B48469012C03DD01231846E4
:1028200070BC70471E4B1F4D1A789442A4BF621CA7
:102830001A7055F824300BB92FE013465A68002A55
:10284000FBD1C268116802E01B68002BE6D0DA6891
:1028500012689142F8DB0DD05A68DAB1106042601C
:10286000984214BF1A46002258600023026070BCD0
:1028700018467047828A012AEED104E0D3681E68A8
:10288000B1421346E8DC1A68002AF7D1E4E70123D5
:102890001846704745F82400E2E745F82400BEE7F3
:1028A000000B0220080B022000284DD02DE9F0413A
:1028B000DFF89CE0254F9EF80060BC4602E0284609
:1028C000002D27D084690568012CF8DCB44257F844
:1028D0002430A4BF661CF6B20BB932E013465A6826
:1028E000002AFBD1C268116802E01B68002BE6D009
:1028F000DA6812688A42F8DC10D05A68A2B1106017
:102900004260984214BF1A4600225860026028466E
:10291000002DD7D18EF80060BDE8F081828A012AAF
:102920000BD05A68002AEAD147F82400E9E7D368B7
:10293000D3F8008088451346DFDB1A68002AF6D1F9
:10294000DBE74CF82400BAE7704700BF080B022011
:10295000000B02200F4A816952F8213098420AD0B8
:1029600042680AB103681360036803B15A60002328
:10297000036043607047036842F821302BB10022A6
:102980005A604268002AEED1F0E74268002AEAD194
:10299000EDE700BF080B02200020704701280EDC85
:1029A000084B53F8200058B1C3681B681BB908E0F6
:1029B000C3681B6823B100680028F9D17047002064
:1029C00070477047080B022000B970472DE9F041AD
:1029D00082B01E4615460C460746FFF73FFC02AB89
:1029E000026843F8040D1846D2F80080FFF708FD8E
:1029F00033462A4621463846C04702B0BDE8F0813A
:102A00002DE9F84307460FF04BFF07440FF048FF4E
:102A10003E1A002EDFF86090DFF8608022DD00F0C3
:102A20008BFBD9F800309E42A8BF1E4600F018FE6E
:102A3000D8F80040FFF70AFCB4B1254603F092F83D
:102A4000013DFBD130460FF021FF00F009FE013CB3
:102A5000FBD1FFF7CDFC03F085F80FF021FF3E1A04
:102A6000002EDCDCBDE8F88330460FF00FFFFFF7E7
:102A7000BFFC03F077F8F0E7500200208409022041
:102A800020B3F0B50C4683B00546164600F0E8FDCD
:102A9000D4B1204608F016F8074638B168463A46E1
:102AA000214604F0C1F8684608F00CF83246214689
:102AB00047F6FF73284603F0EBFA384608F002F8B1
:102AC00003F050F803B0F0BD2746EFE7704700BFB2
:102AD00008B100F001B870472DE9F04F89468BB07E
:102AE0001546044603921F4600F0BAFDB9F90030BE
:102AF000B9F90410B9F906000193CE1A0291B9F997
:102B000002B0059000F0C4FC15F00C0806F10106B7
:102B1000049076D11FFA80FA484607F0D3FF0246A8
:102B20000490A8B1019800210B4660F30F010298B0
:102B300060F30F0305986BF31F4160F31F43069189
:102B400006A84946079304F06FF806A807F0BAFFF5
:102B5000039B03F003080AF1FF33039343461FFA74
:102B60008BF5B0461E4615E0022E34D01EB9B9F8DA
:102B70000030ADF820302046594608AA03F02EFA5E
:102B800020463A46414604F0FBF904445544237874
:102B9000ADB273B33A464146204604F05BFA039B5C
:102BA000BDF80420ADF820200146EB18BDF8082040
:102BB000ADF8225083462046ADF82420ADF82630EB
:102BC00003F090FF012ECFD1B9F804300133181A69
:102BD000ADF82000CFE7B9F90010B9F904305B1A5D
:102BE000181A013000EBD07001EB6000ADF8200046
:102BF000C1E7049807F066FF02F0B4FF0BB0BDE830
:102C0000F08FA24600F02CFD3A4631465046002592
:102C100004F0B6F940B182443A4631465046013597
:102C200004F0AEF90028F6D102F09CFFB8F1080FCD
:102C300008D0B8F10C0F0FD0B8F1040F02D0BDF8D6
:102C400010A069E7BDF810A0059B15FB0AF501333C
:102C50005D1B0FFA85FB5FE7059B0499CBEB030334
:102C6000013305FB113505EBD5750BEB65050FFA47
:102C700085FB1FFA81FA4FE72DE9F04F91B08146AD
:102C80001E460F46904600F0EBFC644B1C68E56C5A
:102C9000246DA019E11905EB090305EB08020446B0
:102CA00001900EA8079308920291ADF83830ADF864
:102CB0003C20ADF83A10ADF83E4008F09BFA0028F1
:102CC00000F09180019B029A9DF868409DF86C701D
:102CD000C2EB030B1A9AC2F307201B9AC2F3072612
:102CE0001A9AC2F307411B9A0BEBDB735B10C2F31A
:102CF000074E1A9A0BFB04353C1B120E06940BFB75
:102D00000034301A03900BFB01300BFB02330D93A0
:102D10001B9B0A95C1EB0E01C2EB13630B940C9045
:102D2000049105935E4600F091FB1A9B1B9A099053
:102D3000934269D0002E52D0029D019A95425BDCED
:102D40000AAF024697E880074FF0010B06E00BF14F
:102D5000010B019B0135AB4222462FDB9AFBF6F3B8
:102D600099FBF6F41B0697FBF6F143EA044398FB44
:102D7000F6F441EA042405991C43039B8A44049910
:102D80009844029B89440699AB4210460F44E0DA0E
:102D90009442DCD005F058F9BBF1010FCBEB0501F3
:102DA00005F1FF33089A079822D004F003FD019B38
:102DB0000135AB424FF0010B2246CFDA204605F039
:102DC00043F9BBF1010F19D0019B089A0798CBEB8F
:102DD0000301013104F0EEFC099805F035F908F023
:102DE0009DF800289FD102F0BDFE11B0BDE8F08F24
:102DF000691E04F055FCACE705F026F9089A019924
:102E0000079804F04DFCE7E7184605F01DF9019B13
:102E1000089A0299079804F0CDFCDDE744020020EF
:102E2000F0B5144F83B006460D46144600F018FC6A
:102E30003B68196DDA6C0E4433B21544144468468D
:102E4000ADF80050ADF80440ADF80230ADF80630F2
:102E500008F0D0F950B13B685B6E22461B683146E2
:102E60002846984708F05AF80028F4D102F07AFE74
:102E700003B0F0BD4402002070B5134E82B0054689
:102E80000C4600F0EDFB3368DA6C1B6D15441C44F6
:102E90002AB223B26846ADF80420ADF80020ADF8A0
:102EA0000630ADF8023008F0A5F948B133685B6E22
:102EB00021465B682846984708F030F80028F5D18D
:102EC00002F050FE02B070BD440200202DE9F04730
:102ED00082B0044689469246984600F0C1FB1E4BDC
:102EE0001F683E7EFD6C3F6D013EB6B22C44B94476
:102EF0005544B844A11B7219C6EB09036846464401
:102F0000ADF80010ADF80420ADF80230ADF8066061
:102F100008F070F9D8B109F1010708F1FF362A4627
:102F20004946204604F0BCFB2A464146204604F0B0
:102F3000B7FB32463946204604F012FC3246394689
:102F4000284604F00DFC07F0E9FF0028E7D102F065
:102F500009FE02B0BDE8F087440200202DE9F04FE1
:102F600091B081461E460F46904600F079FB5C4BBF
:102F70001C68E56C246DA019E11905EB090305EB4C
:102F80000802044609900EA80B930C920691ADF826
:102F90003830ADF83C20ADF83A10ADF83E4008F0BE
:102FA00029F9002800F097800C980B9C1A9D06992F
:102FB000099A031B521A013329440A934B1C0D939F
:102FC0006B0008932B4603FB05F30593631901324D
:102FD0000393431B029107920493079B089A194697
:102FE000914274DB0A9B1946914270DB069B029A60
:102FF00093424CDC1D461A9E099B9B1B4FF0FF34ED
:1030000001931AE0C4EB0904013404F049FB2046A3
:103010004A46294604F044FB42465146584604F0CD
:103020003FFB4A465146204604F03AFB029B0135DD
:103030009D4206F1FF363C462DDC059B06FB163013
:1030400004F090F8039BC0EB030B049B041B0746A2
:103050000BEB040807EB0309019B08F1FF38012C77
:1030600029464246584603EB060ACBDC2946584619
:1030700004F040FB2946484604F03CFB51465846C4
:1030800004F038FB5146484604F034FBCEE7099B78
:103090001A9A9B1A0193039B06995C1C049B5D1E64
:1030A000019B20462A4603F1FF3B04F0F9FA204633
:1030B0002A46099904F0F4FA0D9C0B985A462146C9
:1030C00004F04EFB5A4621460C9804F049FB07F0E9
:1030D00025FF002881D102F045FD11B0BDE8F08F39
:1030E0004402002070B582B0064614460D4600F03A
:1030F000B7FA104B1A68D36C126D1E4433B21544E4
:1031000014446846ADF80250ADF80640ADF8003002
:10311000ADF8043008F06EF840B12246294630463A
:1031200004F01EFB07F0FAFE0028F6D102F01AFDAB
:1031300002B070BD440200202DE9F041124F134E41
:10314000DFF84C8000253C681CB1A047041C18BF68
:10315000012405F0E3FE3368002818BF01244BB1B9
:10316000984738B1D8F8003013B1012498473CB1E2
:103170000125E8E7D8F80030002BF7D1002CF7D173
:103180002846BDE8F08100BF2C0B0220300B022046
:10319000280B0220F0B583B0074616461C460D46A4
:1031A00000F05EFA104B1B68DA6C1B6D1744164476
:1031B0001D441C446846ADF80070ADF80460ADF8DD
:1031C0000250ADF8064008F015F848B123463246E3
:1031D0002946384604F0EEFA07F0A0FE0028F5D1A3
:1031E00002F0C0FC03B0F0BD44020020F0B583B093
:1031F000B0F90070B0F90260B0F90450B0F90640BF
:1032000000F02EFA104B1B68DA6C1B6D1744154446
:103210001E441C446846ADF80070ADF80450ADF88B
:103220000260ADF8064007F0E5FF48B123462A46A4
:103230003146384604F0BEFA07F070FE0028F5D19A
:1032400002F090FC03B0F0BD440200202DE9F04FE5
:103250008BB0814690461C460E4600F001FA304B7A
:103260001D68EB6C2F6D03EB0902B9194344274429
:1032700008A8069207930591ADF82020ADF82430F8
:10328000ADF82210ADF8267007F0B4FF002841D049
:1032900005990798069C7A1A0132031B0392149A27
:1032A0000133049353000293831ABF1A02FB02FBFB
:1032B00001EB020804EB020A0193029A03998A4285
:1032C000134623DC049A934220DC059E464517DC16
:1032D000149D05FB15B003F045FF019BC0EB0A09E7
:1032E000C41831462246484604F0DAF90136791905
:1032F0002246484604F0D4F9464505F1FF35E8DD9D
:1033000031467B1E079A069804F054FA07F006FE31
:103310000028D2D102F026FC0BB0BDE8F08F00BF30
:1033200044020020002850D0C388013B10B5848897
:1033300080681F2B47D8DFE803F016234631464646
:10334000463C46464646464646404646464646462D
:1033500046464646464646464610A31002FB031123
:1033600050F8210010BD02FB04F200EBD104C84369
:10337000A35C00F0070023FA00F000F0010010BD8C
:1033800002FB04F200EB91046FEA4100A35C00F041
:10339000060023FA00F000F0030010BD02FB04F267
:1033A00000EB5104CB07A05C4CBF00F00F000009FC
:1033B00010BD02FB0404605C10BD631002FB03112E
:1033C00030F8110010BD002010BD7047034B53F8BA
:1033D0002000C36808219B6A184700BF080B022021
:1033E00010B500F03DF904F025FA04F007FC04469E
:1033F00002F0B8FB204610BD10B5044600F030F9CD
:10340000054B1B68DB6900215B6820469847044632
:1034100002F0A8FB204610BD4402002038B5044647
:103420000D4600F01DF9064B1B68DB6929465B68F9
:1034300020469847044602F095FB204638BD00BF61
:103440004402002008B105F0CDBE704710B500F071
:1034500007F904F0F7F904F0D1FB044602F082FB0F
:10346000204610BD01289ABF024B53F820000020CF
:10347000704700BFB008022010B500F0F1F8034B10
:103480001B681C7C02F06EFB204610BD440200202D
:1034900010B500F0E5F8044B1B68DB695C7E02F0B8
:1034A00061FB204610BD00BF4402002070B50446F9
:1034B0000E46154600F0D4F820462A46314604F060
:1034C00039FA044610B1002333602B6002F04AFB46
:1034D000204670BD38B505460C4600F0C1F8064AD6
:1034E000064BB2F90020B3F900302A602360BDE832
:1034F000384002F037BB00BFEE0A0220F00A02207B
:103500000448342335216122017002718370C37035
:10351000704700BF2C020020027EC07E02FB00F03C
:10352000704700BF024B53F820301B691868704782
:10353000080B0220024B53F820301B695868704773
:10354000080B022038B505460C4600F089F8044BFC
:103550001B685D849C8402F005FB002038BD00BF21
:103560004402002090B583B000AF344A334B1B684F
:1035700023F001031360324B01221A6000BF304B6D
:103580001B68002BFBD12F4B2F4A1A602D4B1B6859
:103590002E4A934200D0FEE702F0E0FC2C4B2E2294
:1035A0001A700FF081F92B480CF0EAFB0EF056FA76
:1035B000786004F039FA0346002B0CBF0123002386
:1035C000DCB204F077FA0346002B0CBF0123002382
:1035D000DBB22343DBB2002B09D004F03BFA0446F4
:1035E00004F07EFA03461946204604F059FD0021F6
:1035F000002002F075F806F003FAFEF703FB164B05
:103600001B68002B12D00DE0134B1B681B68002BAE
:1036100003D0114B1B681B6898470F4B1B685B68F6
:103620000D4A13600C4B1B68002BEDD10B4B012294
:103630001A707B6818460C37BD4690BD002000E02C
:103640000830024000300240C2A507F4CDB5E8B50D
:10365000EC0A022044070220BC070220F80A0220DC
:103660002DE9F041234D6B6823B10FF015F9AB68DC
:10367000984204D00FF068F90FF00EF9A8606B685B
:103680000133012B6B6001D0BDE8F0811A4F3B681C
:10369000002B29DD0024264606E042B33B680136B4
:1036A0009E4204F17C041FDA0FF0F6F82B681A59D9
:1036B00090422344F1D17B68B342E5D0002B10DB6C
:1036C0002A68C3EB431302EB8308FFF765F92B6805
:1036D000C8F878001C44094BA06F04341C60FFF745
:1036E000E3F87E60BDE8F08100242646E3E7186039
:1036F000E1E700BF80090220E4020020440200202C
:1037000010B582B028B9134B1B681C6E14B902B0F7
:1037100010BD0446FFF7A4FF2046FEF79FFD02AB55
:10372000446943F8080D1846FEF76AFE1CB902F01A
:1037300019FA02B010BD2046FEF790FD02AC826877
:1037400044F8040D936898472046FEF759FE02F0AE
:1037500009FAEEE74402002000B97047014A114619
:1037600000F002B801F0FFFF2DE9F04784B00C46ED
:1037700015460646FFF774FF002001F067FFDFF8EB
:10378000E480D8F80030814630461F6EFEF766FDB3
:1037900003680090986901F021FF314B9C42009B27
:1037A00004BFB3F90440B3F906501A895B89ADF838
:1037B0000840013A013B22442B448246ADF80C20DC
:1037C000ADF80E30ADF80A5005F0A2F86846FEF7E5
:1037D00017FE02A807F00EFD48BB504601F0FEFEA2
:1037E000FFF73EFF002F38D0D8F800301B6E8BBBA0
:1037F00005F020FA3846FEF731FD04ACD8F8003069
:1038000044F80C0D1F660068FFF702F82046FEF72B
:10381000F7FD04F0D1FC04F009FC02F0A3F94846DE
:1038200001F014FF02F09EF904B0BDE8F0872A46CB
:103830002146304600F0A0FC07F070FB0028CCD0F9
:103840002A462146304600F097FC07F067FB002827
:10385000EDD1C2E701F0B4FECAE701F0B1FEDCE74A
:1038600001F0FFFF440200202DE9F04385B0064639
:10387000904699460F46FFF7F3FE1C4A1C4B126810
:10388000507C53F8204001E02468FCB1E3681A68DA
:10389000042AF9D1DB6A0121204698470546D8B1B0
:1038A0002469A3689847013018D00C9B02940093B8
:1038B00001954B4642463946304600F0E3FA04464D
:1038C00002F050F9204605B0BDE8F083FFF766F836
:1038D000044648B1C368DDE70446F1E70C9B054C9C
:1038E00043F001030C93E0E72046ECE7440200209C
:1038F000080B02204C93010800B9704710B582B044
:103900000446FFF7ADFE104B1B681B6E9C4217D0A0
:103910002046FEF7A3FC4369019063B90068FEF7F7
:1039200075FF01A8FEF76CFD2046FEF74FFA02F086
:1039300019F902B010BD184602F0FAF80198EDE747
:1039400001F03EFEE4E700BF440200202DE9F04F05
:1039500087B0064692461C468946FFF781FE564BC5
:103960001A68564B577CDB57012B384640F397803B
:1039700004F060F80546384604F0A2F80746002E29
:1039800000F08A8005A904A8FFF7A4FD049A059B0E
:10399000B6F900C0B6F90200B6F904E0B6F90610AF
:1039A00015441F44013D2CEAEC73013F20EAE0720C
:1039B000029303927545D4BFC3EB0503C3EB0E031B
:1039C0008F42D4BFC2EB0702C2EB01021D4617466D
:1039D0000135013704B97C42002D4FDD002F4DDD4C
:1039E000109B00932A46234603990298FFF73CFF59
:1039F0008046002848D000F099F88742064604D057
:103A00002D4B1B68986C002851D1404600F09CF962
:103A1000DFF8ACB03D4600240EE0AD1BACB950461B
:103A2000C847DBF800303444FF2003B198474046D4
:103A3000FFF792FEA74212DDAE42EEDD2946404678
:103A400000F062F9AD1B002CE9D0039B02994046BF
:103A50001A1900F0A9F94046FFF752FEDFE7404689
:103A6000FFF74AFF002000F06FF9B74206D0124B73
:103A70001B68986C10B1332108F05CF902F072F801
:103A8000002007B0BDE8F08F5046C84702F06AF842
:103A9000012007B0BDE8F08F039602969AE703F085
:103AA00073FF0546384603F099FF074667E7322162
:103AB00008F040F9A9E700BF44020020040B0220EF
:103AC000C009022030B5044683B098B1FFF7C8FDA5
:103AD0002046FEF7C3FB036802AD1B6945F8040DE1
:103AE0009B68984704F088FC04462846FEF788FC4B
:103AF00002F038F8204603B030BD00BFA0B110B5C9
:103B0000044682B0FFF7ACFD2046FEF7A7FB02ABF0
:103B100000F1180443F8040D1846FEF771FC02F09A
:103B200021F8204602B010BD704700BF10B5044612
:103B300082B0FFF795FD7CB12046FEF78FFB02AB0C
:103B4000B0F90A4043F8040D1846FEF759FC02F09C
:103B500009F8204602B010BD044B1B681C6E002CF7
:103B6000EAD101F0FFFF204602B010BD4402002060
:103B70002DE9F04FDFF888B189B0064605273046B9
:103B8000FEF76CFB034607A8B3F90080B3F90440C5
:103B9000B3F90290B3F906500793C8EB040401345B
:103BA000D3F824A0C9EB0505FEF72AFC002C05F18B
:103BB000010555DD002D53DDBAF1000F55D105F09B
:103BC00039FB86427FD04A4B01934FF0010A4946A8
:103BD00040462B462246CDF808B0CDF800A000F0B4
:103BE00051F980463046FEF739FB0790C0F8248033
:103BF000B8F1000F60D0836ADFF8089143F4803396
:103C0000836207A8FEF7FCFB404600F09DF8059094
:103C1000504601F0FFFF4046FFF770FF354A364B34
:103C20001978136805FB04F29200344C984730462B
:103C30002568C9F8006005F0CFFB2060304607F02A
:103C400049FF002210462560C9F8002001F0E2FF7C
:103C5000059800F079F83046FEF7ECFB406AF0B9C1
:103C6000013F8CD109B0BDE8F08F5046FEF7F6FA5F
:103C7000034608A8B3F9045040F8083DB3F90640DC
:103C8000FEF7BEFBA8450FD04A464146504600F01D
:103C90008BF83046FEF7CEFB406A0028E0D000F0FB
:103CA000BFF809B0BDE8F08FA145D4D04A464146DF
:103CB000504600F079F8ECE707A8FEF7A1FB304684
:103CC00007F008FFCCE703F099FE824603F0DCFE24
:103CD000544503DC85427FF776AFA2468542A8BFF4
:103CE00005462A465146304606F0BAFE54466AE773
:103CF000D0DC0108F0020020C4090220240A0220BE
:103D00004C930108B02B022030B50D4683B028B982
:103D10000C4B1B681C6E14B903B030BD0446FFF792
:103D20009FFC2046FEF79AFAB0F90A300190AB42A8
:103D3000C8BF458101A8FEF763FB01F013FF03B084
:103D400030BD00BF44020020F0B5164F83B00446DA
:103D5000FFF786FC3B681E6EE4B1C6B904F06AFF4B
:103D60002046FEF77BFA02AD3B6845F8040D1C6661
:103D70000068FEF74DFD2846FEF742FB04F01CFAF2
:103D800004F054F901F0EEFE304603B0F0BD01F04E
:103D900017FCE3E701F014FC01F0E4FE304603B049
:103DA000F0BD00BF4402002070B50D4682B016463B
:103DB00028B91A4B1B681C6E14B902B070BD0446BA
:103DC000FFF74EFC2046FEF749FA36B22DB2C68008
:103DD0008580009004F02AF9009B586930B9684644
:103DE000FEF70EFB01F0BEFE02B070BDFEF736FA24
:103DF000009A0190B2F90830B2F90A20C28083809B
:103E000013B10AB10580468001A8FEF7F9FA6846A9
:103E1000FEF7F6FA01F0A6FEE6E700BF4402002036
:103E200000B9704770B5044684B0FFF719FC20460E
:103E3000FEF714FA014601A8B1F90460B1F9065081
:103E40000A894B89019132442B44013A013BADF878
:103E50000860ADF80C20ADF80E30ADF80A50FEF752
:103E6000CFFA02A807F0C6F940B12A4631462046EB
:103E700000F064F907F052F80028F6D101F072FE64
:103E800004B070BD2DE9F04FDFF82C8187B0D8F871
:103E9000004081468A4617461E461299637C119857
:103EA0000022FEF7F3FB00284DD003699B6805460E
:103EB000984704F0A1FA00FB07F48346FEF7E0F907
:103EC000109B073413F001034FEAD4043FD0002EB7
:103ED0002CDD002B42D004FB06F01830FDF71EFF4E
:103EE000034668B30022029218460393FEF7B6F920
:103EF000024606A8029BA2F8049040F8042DA2F8FE
:103F000006A017815681D460C2F810B053611560C5
:103F1000FEF776FA129B2B61D8F80020039BAB606A
:103F2000527CAA61184607B0BDE8F08F002C34D14E
:103F3000204676428642A8BF064693B3002ECADCCE
:103F40002846FEF763FC002007B0BDE8F08F00288C
:103F5000B8BF0330801000EB4000B8E700933A464A
:103F600033465146484601F04FFD029004FB06F0EF
:103F70001830FDF7E1FE03460028B5D1284603932B
:103F8000FEF744FC029B002BDDD01846FDF71EFF18
:103F9000039B184607B0BDE8F08F1838B0FBF4F06B
:103FA000C7E700933A4633465146484601F02CFD98
:103FB000002E0290DADCC3E7440200202DE9F04F26
:103FC000594C5A4BD4F800C0DFF868919CF8115056
:103FD000D9F8006053F825408BB02369002E00F01B
:103FE00088801746DCF8602080460D46002A00F0E5
:103FF0008580E2681268072A78D04D4A9A1AB2FA88
:1040000082F25209002A71D04046FEF727F9034692
:104010000AA8B3F908B040F8083DB3F90AA0DB6874
:104020000593FEF7EDF9404B18680BEB0504B0F96A
:104030000C30013CE41AB0F90830002CCCBFC4EBC2
:104040000B045C469D42BDBF591B641A1D460021EE
:10405000002C50DD0AEB0703B0F90EE0B0F90A00BE
:104060000791013BCEEB0303002BC8BFC3EB0A0A49
:10407000B842C5BFC31BC3EB0A0A00230746BAF107
:10408000000F069337DD4046FFF738FD264B0799B2
:104090001A68069BD2F860C003FB0B1100EB810687
:1040A000BCF1000F30D06046FEF7D8F8B0F904300C
:1040B000D0F80C800AAAED1AB0F9063042F8040DC7
:1040C000AD001835FF1A08FB075707441046FEF7E6
:1040D00097F987B1059B0193CDF80080D9F800507E
:1040E0005346224631463846A84704E03A46294618
:1040F00040460DF0C1FA0BB0BDE8F08FE2681268DF
:10410000B2FA82F252097DE7507CDFF82CE0CDF85C
:1041100004A04FEA8B020292009433463A462946A5
:10412000DEF80040A047E6E744020020080B02202A
:104130004C930108140B0220100B02202DE9F041D2
:1041400082B00F4690460646FEF788F8036802AC38
:10415000DB6844F8040D16215B6A00209847054689
:104160002046FEF74DF91DB1424639463046A84774
:1041700002B0BDE8F08100BF2DE9F04FA1B00D9174
:1041800010B921B0BDE8F08F92460746FEF766F8F9
:1041900020AB446943F81C0D1846FEF731F9384648
:1041A000FFF790FC0828054602DD002C00F0D980BE
:1041B00001234FF0000B38461F930A93CDF878B0D7
:1041C000FEF74CF80168DFF8688409690446D8F8FE
:1041D0000000E3684D68B4F908100F9320AE23691E
:1041E0001491407CB4F90A10099346F8144DD4F8A0
:1041F00014901691FFF7EAF8D8F800100890487C60
:10420000FFF798F904463046FEF7FAF8099A0A9B38
:10421000082A40F2A080102A13468CBF04230223F0
:10422000CDF828B00E93A54200F0AC81D8F800304C
:10423000587CFFF777F9149B06469800FDF76EFD52
:10424000129000289DD03846FFF758FC0746B9F178
:10425000000F00F0F5804846FEF700F8169B1C9012
:10426000002B40F38B8100230C930F9BCDF840A0D3
:10427000FB1815931DAB11934FF001081946836885
:1042800000221D925B690C9A9847159B0F9A9B1A06
:104290000B93149B8342044600F03181099B012B50
:1042A00000F0F280002845D01AAB13931298FDF766
:1042B000D5FF099B1A90082B07461D9A40F2D4801F
:1042C0000E9B0B99A34602FB031A81463AF8020B98
:1042D000A847B047BBF1010B49F8040BF6D1089B86
:1042E0001F2B04D838461A46214601F0A9FC0A9A29
:1042F000059200220392089A1D9802920D9A1A9B29
:1043000010990493104401232246CDF80480CDF87F
:10431000008003F03FF81398FEF772F81C981D9B7D
:104320008268119957690C9A1C441D94B847044639
:104330000028BBD1159A0F990C9B0A441592109A2C
:1043400001321092169A01339A420C9300F01681B2
:104350001C98119993E7012A6ED11EAB0E920A9315
:1043600061E73846FDF77AFF20ABB0F9088043F8E3
:10437000100D02460168B0F90A00089018460E694F
:10438000D2F80CB009920E93FEF73AF8A848A94962
:1043900000687368407C0C9351F820100C69236806
:1043A0000A93FFF713F80828099A40D910288CBF00
:1043B0002023102309938CBF4FF004094FF002090A
:1043C000A64200F02D82202D00F09E81102D7FF45A
:1043D000D8AE08FB09F0FDF7A1FC109000283FF4CF
:1043E000D0AEFDF73BFF1E903846FDF737FF1C901F
:1043F000236900F118020B92002B00F022827369EE
:10440000002B00F01E82B0F908008000FDF786FC4A
:104410000F90002840F069821D900E98FDF7F0FF84
:104420001EA8FDF7EDFF1098FDF7D0FCA9E60823C4
:1044300009934FF00109C3E70E93CDF828B0F2E6D7
:104440000A9B05930F9B03930124099B04900293FD
:10445000149A169B0D9801945146009402F09AFF0D
:104460001298FDF7B3FC8CE60E9B0B99A14602FB5C
:10447000031B82461BF8010BA847B047B9F101099D
:104480004AF8040BF6D12AE700283FF453AF1796F9
:104490000C9F0A9EDDF84090DDF834A0DDF844B0B2
:1044A0001395DDF874E00B9D05960EF0070006905D
:1044B0000AEB0E00BEF1000FB8BF0EF1070E05EBC0
:1044C000EE0E0F9DCDF810E02246012349460395DC
:1044D000CDF80880CDF80480CDF8008003F07EFE92
:1044E0001C981D9B82681C44594653691D943A468A
:1044F000984704460028D4D1139D179E1AE71298B6
:10450000FDF7ACFE099B1A90082B8146149FDDF83D
:104510002CA0044629D93AF8020BA847B047013F1E
:1045200044F8040BF7D1089B1F2B04D848461A46C1
:10453000149901F085FB0A9A059220AB1A460D9852
:1045400052F8183D0493144600220392089A0292EE
:10455000CDF80480CDF800800123149A109902F060
:1045600019FF2046FDF74CFFE4E61AF8010BA847B7
:10457000B047013F44F8040BF7D1D4E71CA8FDF77E
:104580003FFF6DE73846FFF7B9FA0746B9F1000F6C
:1045900000F0A9804846FDF761FE169B1C90002B99
:1045A00040F39D8000261DABCDF82CA0DDF834A093
:1045B000B146012598468368CDF874905B69324610
:1045C00041469847149B834204462DD0099B012BFA
:1045D00055D008B30B9B03EB060B0A9B1D98059364
:1045E0000E9B0F9A039203FB0073099A02920493A5
:1045F00022465044012359460195009502F0CAFE17
:104600001C981D9B82681C44414653691D94324688
:10461000984704460028E0D10F9B01361F44169BA3
:10462000B3425CDD1C98C6E70897B3461F4604E01A
:1046300044020020080B0220A3461C9883680BF15B
:1046400001045B692246414698478742F4D00999A4
:1046500002910B990A9A089F0592C6EB0B030F9AD9
:10466000049731440F9E0392013301950095149AEB
:10467000504606FB0377264602F08CFECFE7002863
:10468000CAD00B9B089603EB060BDDF874E00A9882
:1046900005900EF0070006900AEB0E00BEF1000F29
:1046A000B8BF0EF1070E07EBEE0E0F9ECDF810E02F
:1046B000224601235946039602950195009503F081
:1046C0008DFD1C981D9B82681C44414653691D94B6
:1046D000089A984704460028D7D1089E9CE71CA852
:1046E000FDF78EFE4DE50A9B05930F9B0393012476
:1046F000099B04900293149A169B0D9801945146BD
:10470000009402F047FE3CE509FB08F0FDF706FBCC
:104710000B9000283FF435ADFDF7A0FD1E90384604
:10472000FDF79CFD1C90256900F1180745B34FEA81
:10473000880B012619E0B9F1040F19D0B9F1010F66
:1047400016D000221E990998029001230592039227
:10475000049101965146009642460D989A4402F003
:1047600019FE089B013B089350D0B9F1020FE2D12A
:1047700038461E9925694B464246A8475F44E0E704
:104780000C950126089C14E0B9F1040F00F08D810E
:10479000994500F035810C9D05950395099D02957D
:1047A0001E9D01960096049502F0F4FD013C2DD06B
:1047B000DA460123B9F1020F514642460D980AEB41
:1047C000030BE1D108944FEA88050124DDF87890C5
:1047D000BB4646465BF8040B0A9B9847013E29F806
:1047E000020BF7D11E9B099A0292049351460123B2
:1047F000059603960194009442460D989A4402F05F
:10480000C9FD089B013B2F440893DFD10E98FDF7AB
:10481000F7FD1EA8FDF7F4FD0B98FDF7D7FAB0E4FD
:104820000124183200260492CDF80CB00295089BA2
:104830000D980596424651460194009402F0AAFD57
:104840009FE400250126089C16E0B9F1040F00F052
:10485000FC80994500F0A4801E9F0897099F02974D
:10486000089F0595039501960096049702F092FD26
:10487000013C3FF4D2ADDA460123B9F1020F5146B3
:1048800042460D980AEB030BDFD14FEA48060C9D18
:1048900008940A9F0A9601241E9EDDF82CB0C1469A
:1048A0003BF8020BA847B847B9F1010926F8020BFB
:1048B000F6D10B9E1E9A099B0293B6460A9E04925D
:1048C00001235146B644CDF81490CDF80C900194D4
:1048D000009442460D98CDF82CE09A4402F05AFD1F
:1048E000089B013B0893D7D197E5FDF7B7FC1D90D6
:1048F00000283FF492AD4FEA480337460A9301255A
:104900000C940B9E19E0B9F1040F30D0B9F1010FEE
:1049100028D000221E990998029001230592039243
:10492000049101955146009542460D989A4402F033
:1049300031FD089B013B08932BD0B9F1020FE2D166
:10494000DDF878B01D994B46424630467C69A04759
:104950000A9C1D9826440C9C59464B4642462469A5
:10496000A047D6E7DDF878B01D990223ECE7304682
:104970001D997C69DDF878B002234246A0470C9C63
:104980001D9824694B4659464246A0470A9B1E443F
:10499000BFE71DA8FDF734FD0F98FDF717FA3CE5BA
:1049A00008FA03F60C9D08940A9F0A964C461E9E30
:1049B000DDF82CB0C1463BF8020BA847B847B9F167
:1049C000010906F8010BF6D10B9E1E9A099B029372
:1049D000B6460A9E049201235146B644CDF814907F
:1049E000CDF80C900194009442460D98CDF82CE03F
:1049F0009A4402F0CFFC089B013B0893D7D10CE509
:104A000008944FEA88054C46DDF87890BB46464648
:104A10005BF8040B0A9B9847013E09F8010BF7D19C
:104A20001E9B099A02920493514601230596039610
:104A30000194009442460D989A4402F0ABFC089B06
:104A4000013B2F440893DFD1E0E64FEA48060C9D76
:104A500008940A9F0A9601241E9EDDF82CB0C146D8
:104A60003BF8020BA847B847B9F1010946F8040B17
:104A7000F6D10B9E1E9A099B0293B6460A9E04929B
:104A800001235146B644CDF81490CDF80C90019412
:104A9000009442460D98CDF82CE09A4402F07AFC3E
:104AA000089B013B0893D7D1B7E408944FEA8805E7
:104AB0000124DDF87890BB4646465BF8040B0A9B60
:104AC0009847013E49F8040BF7D11E9B099A0292C0
:104AD000049351460123059603960194009442469F
:104AE0000D989A4402F056FC089B013B2F44089312
:104AF000DFD18BE6184B194A196A70B500290CBF33
:104B00000646002682B09157012923DD03EB860279
:104B10001469651C1561ECB9956853F82630264672
:104B20002C4600E01C4601348C420ABF00249460ED
:104B30009660A342F6D0FDF731FF019050B1C368F3
:104B400021215B6A01A89847034618B122462946ED
:104B50000198984702B070BD2C080220040B022077
:104B600030B50C4D6B6A83B0044653B12A6A0A4BC8
:104B7000002A18BF00240129B8BF0121195503B02C
:104B800030BD2846054B40F8243F019102F078F9EA
:104B90000199EBE72C080220040B02200102010816
:104BA000094B1A6A002A18BF002003EB800210B4D8
:104BB0009469002C04DB43F820104FF0FF3393611D
:104BC0005DF8044B704700BF2C080220164B174AB3
:104BD000196A30B500290CBF0446002483B012576F
:104BE000012A05DD03EB84042369013B23610BB13A
:104BF00003B030BD05460120A840FDF735FD28462D
:104C0000A568A561FDF7CAFE01900028F0D0C36831
:104C100022215B6A01A8984703460028E8D029466C
:104C20000198984703B030BD2C080220040B0220E5
:104C300020B321B322B3B2F900C0B1F90630F0B508
:104C4000B1F90050B2F902E0B1F90240B2F90470D2
:104C5000B2F90660B1F904206545A8BF6546A645CE
:104C60007146A8BF2146BA42B8BF3A46B342B8BF60
:104C70003346058041808280C380F0BD7047114675
:104C80000B684A6842600360704700BF78B170B437
:104C9000068844888588C38889B292B20E44144439
:104CA00029440680448070BC1A448180C2807047C9
:104CB00070B4104D2B686A68934204460FD093E895
:104CC00007000D4E84E80700B34214BF0C333C3B91
:104CD0002B60207A003018BF012070BC7047074A53
:104CE000934206BF3C3393E8070013E9070084E8CA
:104CF0000700EEE74802002094080220580802202E
:104D0000034B09CBC01AB0FA80F04009704700BFCE
:104D100048020020F0B5374E336D85B00446002BB5
:104D200055D094E80700344C344DF36C256001AD48
:104D300085E807000BB128469847314FD7F800E0C7
:104D40007B689E4538D0B3422A4C9DF80C2035D064
:104D500013F8041C914212D03C3495E80700A3429A
:104D600083E807001BD00C339E457B601BD0B36CDF
:104D70000BB12846984700F0E3FC05B0F0BDA3F165
:104D80000C018E45E8D0A1422ED03C340C39097A72
:104D90009142E2D1B34214BF0C3B2346DDE7154BF1
:104DA0007B609E45E3D1174B9E4514BF0EF10C036B
:104DB000AEF13C033B60DAE7124CCEE796F84410C4
:104DC00091420BD095E8070086E80700CBE7304614
:104DD0000D4B40F8503F02F053F8A2E706F13C04B7
:104DE000A645EFD02146D1E701F13C0403F13001A3
:104DF000CDE700BF58080220BC2B02209594000884
:104E000048020020940802204902010810B5FEF76C
:104E100027FC0D4A136851688B420FD00B4CA342FC
:104E200093E803004FF0010414BF0833503B1360B4
:104E300005F0F6FA00F096FE204610BD002400F0C2
:104E400091FE204610BD00BFDC0200207409022044
:104E5000F0B5164C059E2568069CB5F908E0B5F935
:104E60000C707045B8BF7046BA42A8BF3A4690422F
:104E70001ADCB5F90A70B5F90E50B942B8BF394617
:104E8000AB42A8BF2B468B4203DAF0BD25682DB19B
:104E90002C46E5682D6835F00405F7D10694059693
:104EA000BDE8F04002F07ABFF0BD00BF4402002030
:104EB000B0F90220B1F906309A4214DCB1F90220AF
:104EC000B0F906309A420EDCB0F90020B1F9043096
:104ED0009A4208DCB0F90400B1F900308342CCBF3B
:104EE0000020012070470020704700BF08B5034B29
:104EF000014674221868FBF702FA08BD440200203C
:104F000000B970472DE9F04FABB004460D46164688
:104F10001D921C91FEF7A4FB2046FDF79FF9B0F906
:104F20000430046827909D42129400F08381002091
:104F3000FEF70AFF9F4B129A1B689269597C2090DA
:104F40000846279D2191824218BF5A74B5F9043052
:104F500007931846B5F90810B5F906301992B5F956
:104F60000A2013931C46091A121B0E460B911A9223
:104F700021461446324601322B8A1B9222460132C8
:104F80009B071E9240F137811C9B6A6903921B1A92
:104F90001D9A1493002BA2EB010440F3BD810993E9
:104FA000DDF86C9000234FF0010A1193002C40F3C0
:104FB000BE811E9B16930123179415934FF0000B8F
:104FC000129E7D4BB0691B56012B40F39F8100233D
:104FD000ADF8A230ADF8A03002F02CFD431EB06950
:104FE000ADF8A43002F06CFD0138ADF8A6002798AA
:104FF000524600F1140107F013FD2290002800F042
:10500000F9802798524600F1140107F009FD249019
:10501000002800F0EA80279BD868002840F097819C
:10502000169A5A4500F0DD801B9B119923909A0037
:105030000BFB031305EB83030E93C4EB0B030C93E1
:10504000139B1599234418934FEA8A0301FB02F23C
:1050500004935B461F92D346C8469A46179B534516
:1050600000F309811A9B5345B4BF00230123109319
:10507000139B119C53440F93189BA04553440893D2
:1050800000F0A0801498079B0E9D0344C0EB040918
:105090000A935FE00B9BA3426CDB109B002B69D053
:1050A000BDF9A020BA4240F3778200230593B9F1FD
:1050B000000FC0F2CC800C9B002BC0F2C8801A46B7
:1050C00049460398FEF72EF9030E40F0C080BDF963
:1050D000A030069A9A420FDBBDF9A2200F998A42AE
:1050E0000ADCBDF9A42006998A4205DBBDF9A62099
:1050F0000F998A4280F2A4809F4223DBBDF9A2303F
:10510000089883421EDCBDF9A430BB421ADBBDF90E
:10511000A630834216DB3046284B239E1B6846F0A0
:105120007F41FF229847199A254B53F822301B697B
:105130001B689847229B00930246129B08993846A9
:105140000BF046FF059B2B625C44049BA0451D446D
:10515000D94437D0524621460398FEF7E3F8030EB0
:105160000646F1D0079BE31806930A9B1F19099B7B
:10517000A3428FDDBDF9A030BB421A466ADCBDF9FF
:10518000A23008998B424FF0000371DC0D93BDF9FA
:10519000A430BB4204DBBDF9A630089A93426DDA15
:1051A000002305930D9B002B81D1BDF9A020134650
:1051B0008FE700BF44020020040B022054020020AD
:1051C000080B02200E9B1F99159A0B440E930C9B03
:1051D0001946169B9244114453450C917FF43EAFFF
:1051E000279B186824990BF055FB279B2299186878
:1051F0000BF050FB279D1C9B1B9A1D99AB801E98A2
:10520000E9801344013B4A1E02442B81199B6A81A9
:10521000219A1946914202D0A64B1B685A742098D5
:10522000FEF792FD27A8FDF7EBF800F09BFC2BB0F2
:10523000BDE8F08FB0F906309E427FF478AEF1E71A
:10524000249B2A6A06980093129B0BF0C1FEBDF9BD
:10525000A03051E7069A934207DCBDF9A2200F99CE
:10526000914202DB002205923BE70023059369E7A8
:10527000059313462DE700231093F9E6279BB3F916
:105280000420BA422DDCB3F90810B94229DBB3F986
:1052900006E00898864524DCB3F90A10814220DB39
:1052A00058692593E8B1BB1A19460593089BCEEBC4
:1052B00003031A462393FEF735F8030E259B10D0FF
:1052C000B3F90410B3F90820521A239902FB011212
:1052D00005990A4403EB82031B6A059343F07F4060
:1052E0000BE0129B186800282DD0C368089A5B69F0
:1052F00039469847059040F07F40199A6E4B53F815
:1053000022301B695B68984723904BE7F36830466F
:1053100028A91B6B98476AE600220992149A1196F5
:1053200033464FF0FF391344CA460B933EE64FF025
:10533000FF331A9A169315930023179313462344A9
:1053400093461A933CE605904FF07F40D5E7FCF773
:1053500085FF169B26905B4500F0A6801B9B11994C
:105360009A000BFB031305EB83030D93C4EB0B03B4
:105370000C93139B1599234401FB02F218934FEAF7
:105380008A0310920493079A149B1344C8460A9305
:10539000D946179B4B4500F3AF801A9B4B45B4BFD2
:1053A000002301230F93139B4B440E93189B4B44F4
:1053B0000893119B984569D0149A0D9D1C46C2EB29
:1053C000030B4A4621460398FDF7ACFF064600282A
:1053D00056D0079BE31806930A9B1F19099BA3420B
:1053E0006CDC0B9BA34269DB0F9B002B66D0BDF9E5
:1053F000A030BB42D8BF012300F3CB80BDF9A2206F
:1054000008998A4207DCBDF9A420BA4203DBBDF942
:10541000A6208A427DDA0022059263B1BBF1000F1B
:1054200062DB0C9B002B5FDB1A4659460398FDF7A5
:1054300079FF002858D1BDF9A030069A9A420EDBB8
:10544000BDF9A2200E998A4209DCBDF9A420069973
:105450008A4204DBBDF9A6200E998A423DDA9F42BA
:105460000CDBBDF9A23008998B4207DCBDF9A430F2
:10547000BB4203DBBDF9A6308B4240DA059B2B62B1
:105480005444049B44451D44D3449AD10D9B109928
:10549000159A0B440D930C9B1946169B914411448D
:1054A00099450C917FF475AF26A8FCF7A9FF279BBF
:1054B00097E600BF44020020080B0220BDF9A0308F
:1054C000BB4217DD069A934211DCBDF9A2200E996A
:1054D00091420CDB00220592B7E7249B2A6A0698CA
:1054E0000093129B0BF074FDBDF9A030B7E70023C9
:1054F0000593C3E7002381E700230F9353E7269B1F
:1055000053F82620229B00933846129B0BF060FD37
:10551000B4E7279A0592B2F90420BA420DDC059847
:10552000B0F90810B94208DBB0F906E008998E45D9
:1055300003DCB0F90A0088420DDA129A10680028DC
:105540003FF469AFC2681F9339465369089A984778
:105550001F9B059061E72593BB1A1F93CEEB0102B9
:105560001946059B23925869FDF7DCFE259B002810
:10557000E3D00598B0F90410B0F90820521A239925
:1055800002FB01121F990A4400EB8202126A059283
:1055900043E70023059341E7BDF9A230089A9342FF
:1055A0003FF783AD01230D93F1E500BF08B5034B31
:1055B00074221968FAF7A3FE08BD00BF4402002058
:1055C00008B5FEF74DF802F0E3FC02F0F5FD03F03C
:1055D0009FF9BDE8084000F0C5BA00BF70B50D4D99
:1055E0002B6804465E7CFEF73BF8012C03D900F0E3
:1055F000B9FA304670BD2046FDF7D0F90028F6D044
:105600002B685C74FFF7DCFF034B1C6000F0AAFA08
:10561000304670BD44020020542B022010B50446D1
:10562000FEF71EF8204602F0D5FCBDE8104000F061
:1056300099BA00BF10B50446FEF712F8204602F0F2
:1056400003FDBDE8104000F08DBA00BF10B5044660
:10565000FEF706F8204602F029FD044600F082FA23
:10566000204610BD38B50446FDF7FAFF044B1B6811
:10567000DD6904B1DC6100F075FA284638BD00BF71
:1056800044020020024BDA69D8611046704700BF1F
:10569000B8080220014B1860704700BF3402002098
:1056A000024B1A6818601046704700BF5402002071
:1056B000024B5A6858601046704700BF54020020E1
:1056C00070B504460D461646FDF7CAFF3246294618
:1056D000204602F00BFD044600F044FA204670BD5F
:1056E00038B505460C46FDF7BBFF094A094B126861
:1056F0000949507C094A53F820000D80C368148082
:10570000294622461C6AA047BDE8384000F02ABA64
:1057100044020020080B0220EE0A0220F00A0220B8
:1057200038B50546FDF79CFF044B1B68B3F92A40CA
:105730005D8500F017FA204638BD00BF4402002006
:10574000024B1B6803B11847704700BF9409022041
:10575000024B1A6802B91860FFF7F2BF2009022055
:1057600000B970472DE9F041DFF8C08082B00546EE
:10577000FDF776FFD8F80040A54242D06E461CB92E
:1057800017E0FCF73DFEA4B12046FCF767FD8468F6
:105790000090A5423046F4D12846FCF75FFD009BFF
:1057A0008268019001A89A60FCF72AFE3046FCF757
:1057B00027FE2846FCF752FDD8F804400090A54289
:1057C0001A4B2CD001AF1CB910E0FCF719FE6CB1DC
:1057D0002046FCF743FD44680190A5420346384645
:1057E000F3D1009A52685A60FCF70AFE3046FCF783
:1057F00007FE2846FCF7EAFA00F0B4F902B0BDE86B
:10580000F0812846FCF72AFD02AF836847F8040DB3
:105810003846C8F800306E46FCF7F2FDC9E742682A
:105820005A603046FCF7ECFDE3E700BFF8090220C0
:1058300030B583B018B90124204603B030BD04460A
:105840000D46FDF70DFF2046FCF708FD02AB8289EF
:1058500043F8040D2A42184614BF01240024FCF723
:10586000CFFD00F07FF9204603B030BD30B50A4BC4
:105870001C68002383B003605CB105462046FCF73A
:10588000EDFC02AB026943F8040D2A601846FCF7F0
:10589000B7FD204603B030BDF809022070B50023E3
:1058A00082B00B6018B90446204602B070BD0D46A8
:1058B000FCF7D4FC8468019001AE2CB93046FCF7AB
:1058C0009FFD204602B070BD3046FCF799FD204692
:1058D000FCF7C4FC036901902B60EFE7F8B5084EB4
:1058E0000468336805461B682046984733680746B6
:1058F0005B6820469847204428603846F8BD00BFC2
:105900001C0B0220F8B569B1074F05460C4600266E
:105910003B6828465B689847013C05440644F7D13C
:105920003046F8BD0E46FBE71C0B02202DE9F8437C
:10593000089C054689469846AB6849465F682846F4
:105940004346561CB847013C3246F5D1BDE8F883C2
:10595000F8B5B0F90040B0F904500C1BAC422BDA9A
:10596000B0F9021005692344013B521AE61005FB09
:105970000265DF4307F00707FF21143504F0070431
:1059800001FA07F241FA04F4D6EBE306D7B2E4B227
:1059900000EB0502435D10D0013E1C43002E02F1D6
:1059A0000103445505DD18463246FAF7D2FC03469A
:1059B00033441C783C431C70F8BD3C401C434455A8
:1059C000F8BD00BF70B4B0F902600369B0F90040DF
:1059D000921B03FB02F2091B143202EBE102802549
:1059E000835C01F0070145FA01F11943815470BC51
:1059F000704700BF03460021B3F906201B6914302D
:105A000003FB02F2FAF7A5BC2DE9F04302F10F0403
:105A1000241164001E4603FB04F383B0804603F1A7
:105A2000140017468946FCF787F90546B8B1FDF71B
:105A300017FE2846FCF712FC014602A80A4A40F865
:105A4000041D01238F80CE800C61A1F80080A1F895
:105A500002908A608B81FCF7D3FC00F083F8284623
:105A600003B0BDE8F08300BF44DD0108B0F90630A3
:105A700093423CDDF0B50D68B0F90470BD4234DAF4
:105A800006694FEAE50E06FB02E6143605F0070349
:105A9000845D04FA03F3013F013613F0FF03CEEBFC
:105AA000E702304408D122B310F8013B083525F055
:105AB0000705013A002BF6D01E0634D45B00DBB29A
:105AC0001C0605F10105F9D55F062C4605D55B00DE
:105AD000DBB25E0604F10104F9D404F00703072BDE
